:400000000040002011000000450C0000450C000080B500AF00F048FE80B500AF304B12221A6001F049FC2F4B180002F02DF9012001F052FC302001F059FA2B4B2B4A1A604D
:400040002B4B8022D2051A602A4B2A4A126802210A431A60284B294A1A60294B00221A60284B284A126808218A431A60FA23DB00180001F089FA244B180001F0BDFB234B69
:40008000BC2292011A60224B224A1A60224BE82252011A601E4B214A1A60214B822212061A60204B8022D2021A601F4B41221A601E4B40221A600E4B1D4A1A601D4B8022A3
:4000C00012031A60C0461B4B1A6880231B031340F9D1184B802252021A60C046BD4680BD30001040001BB70004010B40060000800C020B4078002E407C002E40BCBC0000C3
:4001000064F02E406CF02E40DC050000040301400000014041FF00800003014040FF008008010B4000010B4018010140080101400000014F10020B4080B582B000AF72B6D7
:400140003A4B00221A60FB1D00221A7022E0FB1D1A7813005B009B185B00354A9B183B603B681A78597809020A43997809040A43DB781B06134318003B681A795B791B02D3
:4001800013439BB2190000F00BFDFB1D1A78FB1D01321A70FB1D1B78012BD8D9254BEE2212061A60244BEE221A60244B992212041A60234B992212041A60224B99221204C8
:4001C0001A60214B992212041A60204A1F4B1B78DBB206210B43DBB213701D4B1D4A1A601D4B01221A601D4B06221A601C4B1D4A1A601D4BC4221A601C4B1D4A1A601D4B3D
:4002000004221A601C4B01221A601C4B06221A601B4B03221A601B4B1B4A1A60FFF7FCFE00F0CEFCC046BD4602B080BD6CF02E4038AA0000000002400005024000500F4051
:4002400010500F4020500F4030500F4000700F40080004400010DB00000104400801044008020440800D18000003044008030440006CDB00180304400004044008040440F2
:4002800000050440080504402400000210B5064C2378002B07D1054B002B02D0044800E000BF0123237010BDE80E00200000000044A90000084B10B5002B03D00749084854
:4002C00000E000BF07480368002B00D110BD064B002BFBD09847F9E700000000EC0E002044A90000F00B00200000000080B58CB000AFA54B1A783B001A70A34B5A783B0052
:400300005A70A14B9A783B009A709F4BDA783B00DA709D4B1A793B001A719B4B5A793B005A71994BDB880A21180002F019FC03009BB2DAB23B009A71934BDB880A211800B8
:4003400002F094FC0B009BB2DAB23B00DA718E4B1B890A21180002F003FC03009BB2DAB23B001A72884B1B890A21180002F07EFC0B009BB2DAB23B005A72834B5B890A214F
:40038000180002F0EDFB03009BB2DAB23B009A727D4B5B890A21180002F068FC0B009BB2DAB23B00DA72784BDA68FA239900100002F0D6FB0300DAB23B001A73724BDB6893
:4003C0006421180002F0CCFB0300DAB23B005A736D4BDB680A21180002F0C2FB0300DAB23B009A73684BDB680A21180002F03EFC0B00DAB23B00DA73634B1A69FA239900E1
:40040000100002F0ADFB0300DAB23B001A745E4B1B696421180002F0A3FB0300DAB23B005A74594B1B690A21180002F099FB0300DAB23B009A74544B1B690A21180002F0A7
:4004400015FC0B00DAB23B00DA744F4B5A69FA239900100002F084FB0300DAB23B001A75494B5B696421180002F07AFB0300DAB23B005A75444B5B690A21180002F070FB76
:400480000300DAB23B009A753F4B5B690A21180002F0ECFB0B00DAB23B00DA753A4B1B8B0A21180002F05CFB03009BB2DAB23B001A76354B1B8B0A21180002F0D7FB0B0042
:4004C0009BB2DAB23B005A762F4B5B8B0A21180002F046FB03009BB2DAB23B009A762A4B5B8B0A21180002F0C1FB0B009BB2DAB23B00DA76244B9B8B0A21180002F030FB6B
:4005000003009BB2DAB23B001A771F4B9B8B0A21180002F0ABFB0B009BB2DAB23B005A77194B9A7F3B009A77174BDA7F3B00DA77154B2022995C3B0020229954124B5B8C63
:40054000D9B23B00212299542423FB1812221A812423FB183A001A602423FB1822229A802423F918094B1A785B781B021A4300231204120C1B0C1B041343180006F0EEFF1D
:40058000C046BD460CB080BDF41C0020581D002080B584B000AF114B1B78012B1AD10F4B00221A700E4B1A783B001A703B0000225A703B1D14221A813B1D3A001A603B1DEC
:4005C00002229A80074A381D4023002107F064FB03F0AFF8C046BD4604B080BD090F0020080F0020581D002080B500AF64220021702000F017FD6421032000F01FFE64214C
:40060000FF2000F01BFE642000F0D6FD00F0E6FC00F0FAFCC046BD4680BDC04680B582B000AFFB1D00221A7064220021702000F0F9FC6421002000F001FE64220121702085
:4006400000F06AFDFB1D64221900012000F030FE642000F0B1FDFB1D1B781800BD4602B080BDC04680B500AF054B01221A608023DB02180001F0ECF9C046BD4680BDC046C5
:40068000040F0020B0B594B002AF62B6012001F0A5FA002001F06CFA002001F011FA002001F032FAFA235B00180001F07FF8012001F05EFA012001F003FA012001F024FA73
:4006C00000F090FB01F0B2FA01F060FC01F078FDFFF78AFF022001F08BF9CE4B180001F0F3FB4423FB1800221A70CB4B0022DA70C94B00221A714723FB1800221A7046230E
:40070000FB1800221A704523FB1800221A7000233B64C24B1B68012B00D09BE0012001F05DFD031E12D0002001F07CFD03009AB2BB4B1A80BA4B1B881A00BA49BA4B180040
:4007400002F0D0FBB84B180001F076FA3823FB1800221A703823FB1800225A700023FB63FFF75CFF03001A00B04B1A70AF4B1B781A00042313405A1E9341DAB24723FB18E2
:400780001A70AA4B1B781A00082313405A1E9341DAB24523FB181A70A44B1B781A00102313405A1E9341DAB24623FB181A709F4B1B781D004723FB181C784623FB181B78F8
:4007C0004522BA1812789A49381D0192009323002A0002F087FB3B1D180001F02DFA954B1B78012B24D1012001F0C2F9FFF7D0FE914B1B78012B13D1012001F061F98F4BA5
:400800001B78DBB2002B22D101F0A4F903005A425341DBB2180001F077F9FFF767FD16E0874B1A787C4B1A71002001F049F90EE001F0C6F903005A425341DBB2180001F0F3
:4008400097F9012001F03CF9012001F05DF9734B00221A60774B1B78012B00D02FE16E4B5B79012B4ED16C4B1B78012B29D1744B1B781A00684BDB7802339A420CDD704B0F
:400880001A78654BDB789A4221D9002001F0F4FA012001F0FFF91AE0694B1B781A005E4BDB78023B9A4212DC654B1A785A4BDB789A420CD8012001F0DFFA002001F0EAF98D
:4008C00005E0012001F0D8FA002001F0E3F9524B5B785A425341DBB2180001F07DFA4E4B5B78180001F042FA4B4B9B785A425341DBB2180001F098FA474B9B78180001F035
:4009000035FA06E7444B5B79002B12D1012001F0B3FA002001F0BEF9012001F05DFA002001F024FA012001F07FFA002001F01EFAEFE6394B9B79012B00D0EAE6364B5B79C9
:40094000002B12D1012001F097FA002001F0A2F9012001F041FA002001F008FA012001F063FA002001F002FAD3E62B4B5B79012B00D0CEE6284B1B78012B1ED1304BDB888C
:40098000012B16D82E4BDB682E4A93420DD8224B1B785A425341DBB2180001F06DFA1E4B1B78180001F076F911E0274B01225A700DE0254B01221A7009E0174B1B78002B2B
:4009C00005D1012001F058FA002001F063F9124B5B78012B3AD11A4B5B89012B16D8184B5B69184A93420DD80B4B5B785A425341DBB2180001F0F0F9074B5B78180001F03D
:400A0000B5F92DE0104B0122DA7029E00E4B01229A7025E065060000241D0020040F00200C0F002084A90000C01C00200B0F0020B4A900000A0F0020080F0020541D0020A4
:400A4000F41C0020E70300002C1D00204C4B5B78002B05D1012001F0BFF9002001F086F9474B9B78012B1ED1464B1B89012B16D8444B1B69444A93420DD8414B9B785A4289
:400A80005341DBB2180001F0CFF93D4B9B78180001F036F93DE63D4B01225A7139E63B4B01221A7135E6364B9B78002B00D030E6012001F0B9F9002001F022F929E60020A6
:400AC00001F0DAF9012001F0E5F82D4B4722BA1812781A7001F006F903001A002C492D4B180002F0FFF92B4B180001F0A5F84623FB181B78012B1DD14523FB181B78002B02
:400B000018D1002001F068F9002001F02FF91C4B4622BA1812785A7001F050F903001A001D491C4B180002F0DDF91A4B180001F083F823E04623FB181B78002B00D0E8E565
:400B40004523FB181B78012B00D0E2E5002001F06BF9012001F0D4F8094B4522BA1812789A7001F0F5F803001A000C49094B180002F0B8F9074B180001F05EF8C9E5C0466C
:400B8000241D0020F41C0020E70300002C1D0020E4A90000C01C002000AA00001CAA000080B582B000AF786039603A687B680021180002F08FF9C046BD4602B080BDC0469B
:400BC00080B500AF0A4B03221A600A4B03221A60094B802212061A60084B04221A60084B00221A60012000F00DF8C046BD4680BD300030403000314000003A4000033A402B
:400C0000000E3F4080B584B000AF0200FB1D1A700B4B1B68FB60FB1D1B78002B05D0FB68802212061343FB6003E0FB685B005B08FB60034BFA681A60C046BD4604B080BD3B
:400C400080033A4080B500AF02F000F903001B680C2B00D1FEE7FEE780B584B000AF78600F4B1A687B68D3181A000E4BD31A802B09DC0B4B1B68FB60094B1A687B68D218EF
:400C8000074B1A6007E002F0E1F803000C221A6001235B42FB60FB681800BD4604B080BDF40B0020681D002080B586B000AF224B7B61224B3B61204B7B6135E03B691B68CD
:400CC000FB603B695B68BB603B699B683B6000237B600CE0FB681A68BB681A60BB680433BB60FB680433FB607B6804337B607A683B689A42EED13B69DB683B6000237B606A
:400D000008E0BB6800221A60BB680433BB607B6804337B607A683B689A42F2D13B6910333B617B69013B7B617B69002BC6D102F093F8FFF7A7FCFEE701000000CCAA0000E7
:400D400080B582B000AF154B144A126801218A431A6000237B600FE07B68032B04D8104B7A689200D35800E00E4B0F4A796889008B507B6801337B607B682F2BECD9FFF727
:400D8000DBF90A4B00221A60044B044A126801210A431A60C046BD4602B080BD0000104000000000450C000000000020C000002080B500AF00F058F8C046BD4680BDC04665
:400DC00080B500AF064B064A1268802109060A431A6000F033F800F039F8C046BD4680BD0000254080B500AF064B1B78002B04D1FFF7DEFF034B01221A70FFF7E1FFC04624
:400E0000BD4680BD140F002080B500AF0A2000F095FC00F021F8074B064A1268520052081A60054B00221A600A2000F09DFCC046BD4680BD00002540880F254080B500AF2B
:400E40000A2000F065FCC046BD4680BD80B500AFC046BD4680BDC04680B500AF00F072F8C046BD4680BDC04680B500AF214B802212011A60204B214A1A60214B214A1A60D7
:400E8000214B00221A60214B00221A60204B1D4A1A60204B00221A600A2000F04FFC01210A2000F0E1FB1C4B19000A2000F0B6FB1A4B00221A601A4B00221A60194B00227F
:400EC0001A60194B00221A60184B00221A60184B00221A60174B10221A70174B00221A80164B00221A60164B00221A60C046BD4680BDC046000025406000254077080080CF
:400F000000032540070100800403254010032540000225400402254095230000C80E2540880E2540480F2540080F2540C80F2540880F2540321D00203E1D0020441D002042
:400F4000381D002080B500AF054B00221A60054B00221A60044B10221A70C046BD4680BD680025406C002540321D002080B500AF124B124A1268520052081A60104B002228
:400F80001A60104B00221A600F4B0F4A12680F490A401A600E4B00221A600E4B00221A600D4B10221A70054B044A1268802109060A431A60C046BD4680BDC0460000254039
:400FC000680025406C00254060002540FF5CFFFF880F2540C80F2540321D002080B500AF074B1B68DB0FDBB21A00064B1A70054B1B78002B01D0FFF707FFC046BD4680BD48
:40100000000025401C0F002080B500AF044B1B78002B01D0FFF7D4FEC046BD4680BDC0461C0F002080B588B000AFF860B9607A600423FB612E4B1B78DBB2102B53D10A20D3
:4010400000F07CFB2B4B1B680122134002D00823FB6145E07B68FA22920053437B61264B00221A60254B264A1A60264B264A1A60FB685B00FF221340FB60BB68002B03D1A8
:401080001B4B24221A7006E0194B25221A70FB6801221343FB601D4BFA681A601C4B02221A60164B1A680823FF331340BB61194B1B68C0221340BA691343BB611423FB18B5
:4010C000180000F0EDF90200BB691343BB61BB69002BE6D0BB69180000F060F90300FB610A2000F015FBFB691800BD4608B080BD321D002064002540080F2540000F2540BB
:4011000017030000C00F2540ED0F00004002254068002540400F254080B588B000AFF860B9607A600423FB61204B1B78DBB220221340DBB2002B34D07B68FA229200534350
:401140007B61FB685B00FF221340FB60BB68002B03D1164B24221A7006E0144B25221A70FB6801221343FB6000F0FCF8104BFA681A60104B1A680823FF331340BB6114236B
:40118000FB18180000F08CF90200BB691343BB61BB69002BEDD0BB69180000F0FFF80300FB61FB691800BD4608B080BD321D002040022540000F254080B586B000AF786079
:4011C00004237B61194B1B78DBB220221340DBB2002B26D07B68FA2292005343FB60144B144A126820210A4001D0182200E010221A60114B1A681223FF3313403B610C23E7
:40120000FB18180000F04CF902003B6913433B613B69002BEDD03B69180000F0BFF803007B617B691800BD4606B080BD321D00206800254064002540000F254080B586B012
:4012400000AF7860396004237B61164B1B78DBB220221340DBB2002B1FD03B68FA2292005343FB60104B7A681A60104B1A680823FF3313403B610C23FB18180000F010F919
:4012800002003B6913433B613B69002BEDD03B69180000F083F803007B617B691800BD4606B080BD321D002040022540000F254080B588B000AFF860B9607A600423FB619E
:4012C000224B1B78DBB220221340DBB2002B38D07B68FA22920053433B611D4B1A680223FF331340BB611B4B1B68042213407B611023FB18180000F0D3F80200BB691343C6
:40130000BB61BB69002B02D17B69002BE5D07B69002B07D0104B1B68DAB2BB681A700D4B0E4A1A60BB69180000F038F80300FB61FB69002B05D1FB68002B02D1084B04228A
:401340001A60FB691800BD4608B080BD321D0020000F2540C00F254040032540ED0F00006800254080B582B000AF01237B60094B1B682022134001D0082300E000237A6895
:4013800013437B60044B7A681A60C046BD4602B080BDC046640025406800254080B584B000AF78600023BB607B68002B05DA80231B06FB600123BB605AE07B68C0221340F2
:4013C00008D01023FB60314B00221A60304B10221A704DE07B680122134018D00123FB602B4B1B78DBB208221340DBB2002B0BD0284B1A688023DB05134001D10123BB60C9
:40140000234B10221A7033E00123BB6030E07A6880235B00134005D080235B00FB600123BB6025E07B680222134002D00223FB601EE00023FB607B681022134003D0144BB9
:4014400010221A7014E0124B1B78DBB208221340DBB2002B0CD00E4B1B78DBB201221340DBB2002B01D0252200E02422084B1A70BB68012B02D1FFF779FD02E0064B074A5A
:401480001A60FB681800BD4604B080BD68002540321D002060002540000F25401703000080B584B000AF78600A23FB1801221A800023FB607B681B68002B11D00A23FB1897
:4014C0001B88180000F098F97B681B685A1E7B681A607B681B68002B02D180231B06FB60FB681800BD4604B080BDC04690B58BB000AF78602723FC1800F0CFFE03002370C5
:40150000194B1A680C23FB181A60184B1A680C23FB185A607B68033B154AD35C1A000C23FB189A60134B1A680C23FB18DA601C23FB18114A1A600C23FA181C23FB185A6053
:401540000E4B1C22BA181A600D4B0E4A1A600B4B1B682723FB181B78180000F0A2FEC046BD460BB090BDC04608010B4000010B4044AA000030001040B6EA000008001040D0
:40158000040010401700008080B584B000AF78600023FB60154B154A126801210A431A60134B144A1A60144B134A1268802109020A431A607B68002B12D01023FB600CE067
:4015C000012000F019F900F019F8031E02D00023FB6005E07B68013B7B607B68002BEFD1FB681800BD4604B080BDC04660F02E4078002E400220000010002E4080B582B089
:4016000000AF054B1B68012213407B607B681800BD4602B080BDC0460C002E4080B584B000AF02003960FB1D1A7080239B05FB60FB1D1B781F2B02D9002000F0ABF8FB1DDC
:401640001B7810339B00FA68D3181B68BB60FB1D1B7810339B00FA68D3183A681A60BB681800BD4604B080BD90B587B000AF0200FB1D1A70BB1D0A1C1A70BB1D1B78032BFD
:4016800002D9002000F086F8FB1D1B781F2B02D9002000F07FF8FB1D1B7803221340DB0006337B611323FC1800F0F7FD03002370FB1D1B789B08DBB29B00144A944663443E
:4016C0001B68FB6003227B699A401300DA43FB681340FB60BB1D1A787B699A401300FA681343FB60FB1D1B789B08DBB29B00074A94466344FA681A601323FB181B78180082
:4017000000F0CFFDC046BD4607B090BD00E400E080B582B000AF0200FB1D1A70064BFA1D12781F210A40012191400A001A60C046BD4602B080BDC04600E100E080B582B049
:4017400000AF0200FB1D1A70064BFA1D12781F210A40012191400A001A60C046BD4602B080BDC04680E100E080B582B000AF0200FB1D1A70064BFA1D12781F210A4001218C
:4017800091400A001A60C046BD4602B080BDC04680E200E080B582B000AF0200FB1D1A7001BEC046BD4602B080BDC04680B582B000AF786009E00D4B1B68180000F064FD02
:4017C0007B680B4A944663447B607A6880231B029A42F0D8074B1B687A685343180000F053FDC046BD4602B080BDC046040C00200080FFFFFC0B002080B582B000AF02007F
:40180000BB1D1A80BB1D1B88044A12785343180000F03AFDC046BD4602B080BD000C002080B500AF0F4B0F4A126801218A431A600C4B0C4A126802218A431A600A4B0A4A36
:40184000126830218A4310210A431A60064B064A126807218A4301210A431A60C046BD4680BDC04600F02E4000FF2E4080B500AF0F4B0F4A126802218A431A600D4B0D4A9E
:40188000126807218A4302210A431A60094B094A126830218A4320210A431A60044B044A126801210A431A60C046BD4680BDC04600F02E4000FF2E4080B500AFFFF7B0FFE8
:4018C000044B044A1268802109060A431A60C046BD4680BD00F02E4080B584B000AF78600C4B1B6801221340FB607B68002B02D0012B03D005E0FFF793FF06E0FFF7B6FF3E
:4019000003E00020FFF746FFC046FB681800BD4604B080BD00F02E4090B583B000AFFC1D00F0BBFC03002370074B074A1268C02109020A431A60FB1D1B78180000F0B1FCE9
:40194000C046BD4603B090BD00010B4080B500AF054B1A68C0231B02134001D0012300E000231800BD4680BD00010B4090B583B000AFFC1D00F091FC030023700D4B0D4A6B
:4019800012680D490A408021C9010A431A60094B084A126808490A40802109020A431A60FB1D1B78180000F07CFCC046BD4603B090BDC04600010B40FF3FFFFF80B582B084
:4019C00000AF78607B68022B02D90020FFF7E2FE064B1A687B68DB000133DA401300012213401800BD4602B080BDC04610020B4080B582B000AF7860144B144A11687A68A4
:401A00000A431A607B680122134005D0C0460020FFF7D4FF031EFAD07A6880235B00134005D0C0460120FFF7C9FF031EFAD07A6880235B02134005D0C0460220FFF7BEFF1A
:401A4000031EFAD0C046BD4602B080BD10020B4090B585B000AF78600B23FC1800F01DFC03002370FFF772FF031E04D00123FB60FFF77CFF01E00023FB607B680D4A13400C
:401A80007B600D4B0C4A12680C4911407A680A431A60094B1B68FB68012B01D1FFF73CFF0B23FB181B78180000F0FBFBC046BD4605B090BD0404040010020B40FBFBFBFF35
:401AC00080B584B000AF0200FB1D1A700D4B1B68DAB20F23FB187F210A401A70FB1D1B78DB01D9B20F23FB180F22BA1812780A431A70044B0F22BA1812781A60C046BD46F0
:401B000004B080BD0003044080B584B000AF0200FB1D1A700E4B1B68DAB20F23FB1801218A431A70FB1D1B7801221340D9B20F23FB180F22BA1812780A431A70044B0F22B6
:401B4000BA1812781A60C046BD4604B080BDC0460004044080B500AF044B1B68DBB201221340DBB21800BD4680BDC0460404044080B584B000AF0200FB1D1A700F4B1B68BE
:401B8000DAB20F23FB1840218A431A70FB1D1B789B01DBB240221340D9B20F23FB180F22BA1812780A431A70044B0F22BA1812781A60C046BD4604B080BDC0460003044042
:401BC00080B500AF044B1B68402213409B09DBB21800BD4680BDC0460403044080B584B000AF0200FB1D1A700F4B1B68DAB20F23FB1820218A431A70FB1D1B785B01DBB20A
:401C000020221340D9B20F23FB180F22BA1812780A431A70044B0F22BA1812781A60C046BD4604B080BDC0460000044080B500AFC046BD4680BDC04680B584B000AF786021
:401C40000F23FB1801221A700E23FB187A6812781A7015E00E23FB181B78180000F030FB0F23FB181B787A68D2180E23FB1812781A700F23FB181A780F23FB1801321A7064
:401C80000E23FB181B78002BE4D1C046BD4604B080BDC04680B584B000AF0200FB1D1A700F4B1B68DAB20F23FB1840218A431A70FB1D1B789B01DBB240221340D9B20F2305
:401CC000FB180F22BA1812780A431A70044B0F22BA1812781A60C046BD4604B080BDC0460002044080B500AF044B1B68402213409B09DBB21800BD4680BDC046040204408D
:401D000080B584B000AF0200FB1D1A700F4B1B68DAB20F23FB1808218A431A70FB1D1B78DB00DBB208221340D9B20F23FB180F22BA1812780A431A70044B0F22BA18127819
:401D40001A60C046BD4604B080BDC0460002044080B500AF044B1B6808221340DB08DBB21800BD4680BDC0460402044080B584B000AF0200FB1D1A700F4B1B68DAB20F2301
:401D8000FB1804218A431A70FB1D1B789B00DBB204221340D9B20F23FB180F22BA1812780A431A70044B0F22BA1812781A60C046BD4604B080BDC0460002044080B500AF94
:401DC000044B1B68042213409B08DBB21800BD4680BDC0460402044080B584B000AF0200FB1D1A700F4B1B68DAB20F23FB1810218A431A70FB1D1B781B01DBB210221340F5
:401E0000D9B20F23FB180F22BA1812780A431A70044B0F22BA1812781A60C046BD4604B080BDC0460003044080B584B000AF0200FB1D1A700F4B1B68DAB20F23FB1808213E
:401E40008A431A70FB1D1B78DB00DBB208221340D9B20F23FB180F22BA1812780A431A70044B0F22BA1812781A60C046BD4604B080BDC0460003044080B584B000AF020090
:401E8000FB1D1A700F4B1B68DAB20F23FB1820218A431A70FB1D1B785B01DBB220221340D9B20F23FB180F22BA1812780A431A70044B0F22BA1812781A60C046BD4604B0CA
:401EC00080BDC0460003044080B582B000AF786000F050F87B68180000F00AF8032000F015F800F03BF8C046BD4602B080BDC04680B582B000AF7860034B7A681A66C04660
:401F0000BD4602B080BDC0460000002090B585B000AF0200FB1D1A700623FB600B23FC1800F0BBF9030023700B4B0B4A1268C0218A431100FA1D1078FA68904002000A43B8
:401F40001A600B23FB181B78180000F0AAF9C046BD4605B090BDC04608E400E080B500AF034B802252001A60C046BD4680BDC04600E100E080B500AF034B802252001A603E
:401F8000C046BD4680BDC04680E100E080B500AF064B1B78002B04D100F00AF8034B01221A7000F0F1F8C046BD4680BD240F002080B584B000AF03210F20FFF755FB584B19
:401FC00019000F20FFF72AFB564B01221A60564B1B68002B01DA554900E05549554B554A12680A431A60544B544A1A60544B554A1A60554B00221A60544B554A1A60554B77
:40200000554A1A60554B554A1268802149020A431A60534B00221A60524B00221A60524B01221A60514B1B687B607B68504A13407B607B68012213437B604C4B7A681A609F
:402040000023FB6065E08023DA00DC239B0113407B60FB689B00474A944663447A681A608023DB00012213400AD03D4B3C4A11680120FA68904002001204120C0A431A6046
:402080008023DB00022213400AD0364B354A11680120FA68904002001204120C0A431A608023DA0080239B00134003D080235B00BB6002E080235B01BB608023DA00802372
:4020C0005B00134005D12C4BFA6852000021D15209E0BB68002B00DA01335B1019B2264BFA685200D152BB68244A53438022D20094466344002B02DA214A94466344DB122E
:402100001BB219001F4BFA689200D150FB680133FB60FB68002B96D0C046BD4604B080BD6922000020003A4080033A40400210534002005300003A4004003A40F400008092
:4021400018003A400000FF071C003A4010003A40FF03020014003A400200020000033A4028023A4038023A4018023A4030003A40FFFFFFDF80003A40601D00201027000054
:40218000FF0700005C1D002080B500AF0A4B1B68002B0EDBC046094B1B68002BFBDB064B054A1268802109060A431A600A20FFF723FBC046BD4680BD00003A4008023A40BF
:4021C00080B500AF044B044A1268802149020A431A60C046BD4680BD04003A4080B584B000AF78600023FB607B680322134011D00B4B1B6801221340FB60FB68002B03D1B7
:402200007B6802221340F3D1FB68002B02D0044B01221A60FB681800BD4604B080BDC04610023A4080B584B000AF78607B68002B02D00020FFF7AEFA7B68002B09D17B68DA
:402240009B00084A944663441B681B041B0CFB6001E00023FB60FB681BB21800BD4604B080BDC04680013A4080B582B000AF054B1B687B60034B7A681A60C046BD4602B007
:4022800080BDC04610023A400230800803D00138FDD1C046C046C0467047EFF3108072B6704780F310887047000000000000000000000000000000000000000000000000DF
:4022C000FEB5494652465B460EB407462E4909688A462E4A12682E48022100F041FC03002A480068C0182A4900F03AFC06001F3EB346234A126801219140C9430C00012522
:402300000026FFF7CAFF814651460B6823400B6058460430FFF7B8FF3800F040284090400B68234003430B605846FFF7ADFF0136072EF1D900200130012090400B682340E5
:4023400003430B6058460630FFF79EFF4846FFF7A8FFC046C046C0460EBC894692469B46FEBDC046C046C046C046C046C046C046C046C046C046C046C046C046C046C046A1
:40238000200F00200C0C0020100C0020F80B00208025000080B582B000AF00233B60C04B1B68002B02D0BE4B1B689847BD4B1B680122134002D0BC4B00221A60BB4B1B78B9
:4023C000DBB220221340DBB2002B38D0B84B1A6880235B0013400AD0B64B1B889BB2C022920013439AB2B34B1A8001233B60B04B1B68012213400AD0AE4B1B889BB2902284
:40240000920013439AB2AB4B1A8001233B603B68002B14D0A54B1B78DBB201221340DBB2002B01D0012300E00223A24A128892B213439AB29F4B1A809C4B00221A709B4BC6
:402440001B78DBB220221340DBB2002B00D1A4E1974B1B681022134018D0974B10221A60924B1B78DBB201221340DBB2002B01D0012300E002238F4A128892B213439AB2BB
:402480008C4B1A80894B10221A7090E1874B1B78DBB208221340DBB2002B29D0844B1B68022213400ED0844B02221A60814B1B889BB28822920013439AB27E4B1A80012355
:4024C0003B6015E0794B1B78DBB201221340DBB2002B03D0754B25221A7009E0734B24221A70764B1B68002B02D0754B10221A606E4B1B78DBB204221340DBB2002B00D1D7
:4025000013E16A4B1B78DBB201221340DBB2002B5BD06C4B1B680822134033D06A4B1A686A4B1B681F211940694B1B68CB18D31A7B607B68102B02D910237B601EE07B68ED
:40254000002B1BD1634B634A126863490A401A6010237B6001233B6010E0604B1A685C4B1B68D2185E4B1B68DBB21370584B1B685A1C574B1A607B68013B7B607B68002B05
:40258000EBD11EE04F4B1B680422134019D0534B1A684F4B1B68D218514B1B68DBB213704B4B1B685A1C4A4B1A60494B1A68464B1B689A4203D24B4B04221A6001E00123D8
:4025C0003B60494B494A1A60AFE0394B1B680222134032D0384B02221A60454B1B681F221A40434B196880231B020B4001D0012300E00023D2183F4B1B689A1A3D4B1A6002
:402600003C4B1A683C4B1A602A4B1B889BB28422920013439AB2274B1A80384B374A1268802149020A431A60344B344A126834490A401A6001233B6077E0324B1B68102214
:40264000134067D020E02B4B1A681C4B1B689A4221D21A4B1B685A1E264B1B689A4205D1294B40221A60164B40221A60274A284B1968204B1B68CB181B78DBB213601D4B5B
:402680001B685A1C1B4B1A60194B1B681F221340102BD8D100E0C0461B4B10221A6044E0180F00208C0E2540880E2540321D00200C0F25403E1D0020000F2540401D00202A
:4026C000880F2540CC0F2540501D002008032540441D002060002540FFFEFFFF4C1D00204003254068002540C00F2540ED0F000008022540341D0020381D00200402254072
:40270000FFFFFEFF8C0F2540800F254040022540481D0020284B1B684022134005D0274B1A68274B1A6001233B603B68002B3ED0244B244A126824490A401A60234B00226B
:402740001A60234B00221A60224B1B78DBB202221340DBB2002B15D01F4B1B78DBB201221340DBB2002B01D0092300E00A231B4A128892B213439AB2184B1A80164B6022AD
:402780001A7014E0164B174A126820210A4001D0182200E010221A6009E00F4B1B78DBB210221340DBB2002B01D1FEF7DFFBC046BD4602B080BDC0468C0F2540341D00208D
:4027C000381D002060002540FFFEFFFFC80F2540880F25403C1D0020321D00203E1D0020680025406400254080B582B000AF78600A00BB1C1A80BB1C1A887B681A60C0462E
:40280000BD4602B080BDC04680B582B000AF78600A00BB1C1A80BB1C1A887B681A60C046BD4602B080BDC04680B584B000AF494B1B78DBB21B02484A1278D2B21343FB6029
:40284000464B1B78DBB21B02454A1278D2B21343BB60BB68434A934207D1FB68072B04D1414BBB600423FB6009E0BA68D4231B019A4204D1FB68042B01D13B4BBB603B4B32
:40288000BA681A603A4BFA681A603A4B1B78DBB21B02394A1278D2B21343FB60FA6880239B019A4202D0FB68002B01D1334BFB60334BFA681A60334B1B78DBB21B02324AFE
:4028C0001278D2B21343FB60FB68304A934206D0FB682F4A934202D0FB68052B01D12D4BFB602D4BFA681A602C4B1B681B097B602B4B1B68AA2B29D17B68012B26D9214B47
:402900001B78DBB20E2B21D1264B1B78DBB29BB21B0299B2244B1B78DBB29AB2BB1C0A431A80224BBA1C12881A60214B1B78DBB29BB21B0299B21F4B1B78DBB29AB23B00C4
:402940000A431A801C4B3A0012881A60C046BD4604B080BDD9F0FF0FD8F0FF0FDFF0FF0FDEF0FF0F580B0000580D00006C002E4074002E40DBF0FF0FDAF0FF0F0220000004
:4029800078002E40DDF0FF0FDCF0FF0F0F0F000005050000050F000080002E40EC0F00F0E00F00F06DF2FF0F6CF2FF0F84002E406FF2FF0F6EF2FF0F94002E4080B582B077
:4029C00000AF0200BB1D1A80BB1D1B881800FEF713FFC046BD4602B080BDC04680B582B000AF78607B681800FEF7E0FEC046BD4602B080BD80B500AF00F080F8C046BD4613
:402A000080BDC04680B500AF00F084F8C046BD4680BDC04680B500AF0223FF331800BD4680BDC04680B582B000AF78602B231800BD4602B080BDC04680B582B000AF7860E4
:402A40002B231800BD4602B080BDC04680B582B000AF78602B231800BD4602B080BDC04680B582B000AF78602B231800BD4602B080BDC04680B582B000AF78602B2318000C
:402A8000BD4602B080BDC04680B582B000AF78602B231800BD4602B080BDC04680B582B000AF78602B231800BD4602B080BDC04680B582B000AF78602B231800BD4602B07D
:402AC00080BDC04680B500AF2B231800BD4680BD80B582B000AF0200FB1D1A702B231800BD4602B080BDC04680B582B000AF786039602B231800BD4602B080BD80B500AF2E
:402B0000034B802252011A60C046BD4680BDC04600E100E080B500AF034B802252011A60C046BD4680BDC04680E100E090B583B000AFFC1DFFF7B1FB03002370074B074A82
:402B4000126804218A431A6030BFFB1D1B781800FFF7A7FBC046BD4603B090BD10ED00E0002243088B4274D303098B425FD3030A8B4244D3030B8B4228D3030C8B420DD330
:402B8000FF22090212BA030C8B4202D31212090265D0030B8B4219D300E0090AC30B8B4201D3CB03C01A5241830B8B4201D38B03C01A5241430B8B4201D34B03C01A5241D0
:402BC000030B8B4201D30B03C01A5241C30A8B4201D3CB02C01A5241830A8B4201D38B02C01A5241430A8B4201D34B02C01A5241030A8B4201D30B02C01A5241CDD2C309A0
:402C00008B4201D3CB01C01A524183098B4201D38B01C01A524143098B4201D34B01C01A524103098B4201D30B01C01A5241C3088B4201D3CB00C01A524183088B4201D3F8
:402C40008B00C01A524143088B4201D34B00C01A5241411A00D20146524110467047FFE701B5002000F0F0F802BDC0460029F7D076E7704703460B437FD4002243088B4223
:402C800074D303098B425FD3030A8B4244D3030B8B4228D3030C8B420DD3FF22090212BA030C8B4202D31212090265D0030B8B4219D300E0090AC30B8B4201D3CB03C01A61
:402CC0005241830B8B4201D38B03C01A5241430B8B4201D34B03C01A5241030B8B4201D30B03C01A5241C30A8B4201D3CB02C01A5241830A8B4201D38B02C01A5241430A26
:402D00008B4201D34B02C01A5241030A8B4201D30B02C01A5241CDD2C3098B4201D3CB01C01A524183098B4201D38B01C01A524143098B4201D34B01C01A524103098B4226
:402D400001D30B01C01A5241C3088B4201D3CB00C01A524183088B4201D38B00C01A524143088B4201D34B00C01A5241411A00D201465241104670475DE0CA0F00D0494215
:402D8000031000D34042534000229C4603098B422DD3030A8B4212D3FC22890112BA030A8B420CD3890192118B4208D3890192118B4204D389013AD0921100E08909C30934
:402DC0008B4201D3CB01C01A524183098B4201D38B01C01A524143098B4201D34B01C01A524103098B4201D30B01C01A5241C3088B4201D3CB00C01A524183088B4201D337
:402E00008B00C01A5241D9D243088B4201D34B00C01A5241411A00D20146634652415B10104601D34042002B00D54942704763465B1000D3404201B5002000F005F802BD57
:402E40000029F8D016E770477047C046014B18687047C046E40E00200E4B70B500251E000D4CE41AA410A54204D0AB00F35898470135F8E707F018FE084B00251E00084CED
:402E8000E41AA410A54204D0AB00F35898470135F8E770BDB4AA0000B4AA0000B4AA0000BCAA000030B50024A24208D0035D651C0C5DA34201D0181B02E02C00F4E700200D
:402EC00030BD002310B59A4203D0CC5CC4540133F9E710BD03008218934202D019700133FAE770470EB410B59DB002A9029008610B48822488604861012040421FABC881DA
:402F0000084804CBA400006801938C8100F06EF80023029A13701DB010BC08BC03B01847FFFFFF7FE40E0020F0B58E6885B007000C00039201939E4243D890238A89DB0088
:402F40001A423ED003250969236801985B1A029363695D43EB0F5D19029B6D1001331B18AB4200D91D00530510D52900380000F037FB061E14D0029A2169FFF7A2FFA2892F
:402F8000194B134080221343A38112E02A00380000F086FB061E0CD12169380000F0D4FA0C23402201203B60A38940421343A38117E0029B2661F61826606561019EED1A68
:402FC000A560019BB34200D21E0032000399206800F0A5FA0020A3689B1BA36023689E19266005B0F0BDC0467FFBFFFFF0B59FB0029005938B890F0016001B0610D50B6909
:40300000002B0DD1402100F0EBFA38603861002804D10C23029A01381360D8E040237B61002306AD6B6120336B761033AB7634002378002B03D1A31B049312D003E0252B43
:40304000F9D00134F4E7A31B320039000298FFF76BFF431C00D1B4E06A69049B944663446B612378002B00D1ABE00122002352426A6002A95432521801342B60EB60AB605A
:403080001370AB65534E21780522300000F03CFA002807D00123801B83402A68013413432B60EFE72B68DA0604D55322202102A8121811701A0704D553222B2102A81218E1
:4030C000117022782A2A03D0099B00200A210EE0059A111D12680591002A01DB099204E05242EA60022213432B6001340BE02278303A092A04D84B4301349B180120F6E7C5
:40310000002800D0099323782E2B1ED163782A2B0AD1059B02341A1D1B680592002B01DA01235B42079310E000230A201A0001346B6021783039092904D8424301345218FA
:403140000123F6E7002B00D00792234E21780322300000F0D9F9002806D04023801B83402A68013413432B60217806221B48661C297600F0C9F9002812D0194B002B06D1CB
:403180000722059B073393430833059314E005AB00933A00134B2900029800E000BF07E005AB00933A000F4B2900029800F08AF80390039B013304D06B69039A9B186B6116
:4031C00035E7BB890B985B0601D5012040421FB0F0BDC04674AA00007AAA00007EAA000000000000292F0000F7B5170001938A680B6900900C00934200DA130022003B60D6
:4032000043321278002A01D001333B6023689B0602D53B6802333B60062523681D401ED0230043331B785A1E9341226892061CD53020E1184331087021005A1C4531097800
:40324000A2184332023311700FE022000123193201990098089EB047431C0ED00135E3683A689B1A9D42F0DBDAE72200019943320098089DA847431C02D10120404220E068
:4032800006232068E1683A6803400025042B03D18D1AEB43DB171D40A3682269934201DD9B1AED180027BD420AD0220001231A3201990098089EB047431CDED00137F2E761
:4032C0000020FEBDF0B58BB006920A0043320793059004920A7E0C00109B6E2A00D1ABE011D8632A22D009D8002A00D1B5E0582A00D0C5E045310A70814A4FE0642A1DD0CF
:40330000692A1BD0BCE0732A00D1AAE009D86F2A29D0702A00D0B3E0202209680A43226037E0752A1FD0782A33D0A9E00E001A684236111D196013683370A4E021681A685A
:40334000080606D4490604D5111D19600023D55E02E0111D19601568002D3BDA2D23049A6D42137036E021681A68080606D4490604D51568111D1960ADB202E0111D19609B
:4033800015685F4B227E039308276F2A1DD00A271BE022007821453211705A4A19680392081D226818600D68100602D4500600D5ADB2D30702D520231A4322601027002D19
:4033C00003D1202322689A4322602300002243331A7002E00A274A4B03936368A360002B09DB0422216891432160002D05D1049E002B11D07BE0002D79D0049E28003900E4
:40340000FFF734FC039B013E5B5C280033703900FFF7A6FB051EF1D1082F09D12368DB0706D563682269934202DC3023013E3370049B9B1B23612BE009681A68080607D4FB
:40344000490605D5111D19601368A28A1A8004E0111D1960136862691A600023049E236116E01A68111D1960166800216268300000F04AF8002801D0801B6060636803E0BB
:40348000260042363270012323610023049A1370079B09AA00932100069B0598FFF7A4FE431C02D10120404227E02369320006990598079DA847431CF4D0236800259B0723
:4034C0000FD4099BE068984217DA180015E022000123193206990598079EB047431CE1D00135E368099A9B1A9D42F0DBE9E72600039B42361B7833708EE70BB0F0BDC04604
:4035000085AA000096AA0000C9B28218904204D003788B4202D00130F8E70020704710B5884202D98B18984201D3002305E09B1A013A08D3995C8154FAE7934203D0CC5C57
:40354000C4540133F9E710BD70B50500002944D00C1F2368002B00DAE418280000F0D8F81E4A13681100002B02D16360146031E0A3420DD92268A018834203D118685B6829
:403580008218226063600C6024E0A24203D813005A68002AF9D11E689819A0420BD12168711858181960824214D110685268411819605A600EE0A04202D90C232B6009E08F
:4035C00021686018824203D1106852684118216062605C60280000F09CF870BDBC1C0020032370B5CD1C9D43083506000C2D01D20C2501E0002D01DBA94202D90C233360D1
:4036000048E0300000F084F8234B1C681A002100002913D00B685B1B0DD40B2B02D90B60CC181EE08C4202D1636813601AE04B6863600C0016E00C004968E9E7174C236899
:40364000002B03D1300000F051F820602900300000F04CF8431C18D00323C41C9C43A0420DD12560300000F054F8200007220B30231D9043C31A0ED05A42E2500BE0211AB2
:40368000300000F033F8431CEBD10C233000336000F03FF8002070BDBC1C0020B81C0020F8B506000C001500002904D11100FFF797FF040018E0002A03D1FFF745FF2C0083
:4036C00012E000F027F885420ED929003000FFF787FF071E07D021002A00FFF7F2FB21003000FFF731FF3C002000F8BD002370B5064C050008002360FDF7AEFA431C03D19B
:403700002368002B00D02B6070BDC046641D0020704770470B1F1A68101F002A04DA891804390B68D0180438704710B500F004FF10BD10B500F00EF810BD30B47446641EFA
:403740002578641CAB4200D21D46635D5B00E31830BC184710B503480078012801D100F0CFFD10BD140C00200148008970470000280F002010B5002809D005494A68002A8D
:4037800005D0011F08788000105800F035FE10BD180C002010B50446FFF7E6FFC0B2801DA0420CD307484068002808D0A100405800F0FCFD002801D00470001D10BD00202E
:4037C00010BD0000180C0020F8B50746FFF7CCFF801DC6B20A49002005460C680DE06178002907D06188B94202D32078FFF7D2FF002804D1241D6D1CEDB2B542EFD3F8BD04
:40380000180C002010B5002801D0FFF7B3FF10BDFFB581B00A9F16000C4620D000F090F8054604281BD0002F0CD03846FFF7CCFF20492A0151184860002810D03A4604993D
:40384000FFF73FFB1B4928010E504618778101980570200406D47D20C000444304E0FF2005B0F0BD6404640C00F058F80746042807D000F077F9A0420BD800F073F9201A5F
:4038800003E0204600F086F90020F06035720020E6E700F067F9009000F092F900980121001B009000F074F802493A0151180098C860E6E7340F0020F8B5060116483418F3
:4038C000217A042903D0E068002802D017E00020F8BD00F047F9054600F072F900F03EF804280CD001010C480F18F8680021451900F04EF80020F860284600F04BF96068A7
:40390000054D002801D0FFF77DFF042020720020A8516081E060DAE7340F0020074A0020010189180B7A042B02D0C968002903D0401CC0B20428F3D370470000340F002015
:403940000549002002015218127A042A03D0401CC0B20428F6D37047340F002030B50A4B04200A4C00210A011219157A042D06D0D268002A03D09A4201D808461346491C69
:40398000C9B20429EFD330BDFFFF0000340F002030B5094C00231A011219157A042D04D0D568002906D02D18D5605B1CDBB2042BF1D330BD2D1AF7E7340F00203EB5124AA7
:4039C0000146FF2000230124126800290DD0012914D0042908D104206946009308814B81104605F02AFB80B23EBD68460093048143816946104605F01BFBF4E76846009377
:403A0000048143816946EBE7200C002070B5448905680089022803D0032809D0FF2070BD2246094C0023A46829460120A04708E0FFF77BFE241DA2B200232946022001F047
:403A4000A9FB002070BD0000240C002070B50C46002186B016460391012802D0022859D116E003A9012001F0CDFB01281BD1039D324621462846FFF724FA009528780190A0
:403A80000220694608814E816846FFF7BFFF41E0214D002B686809D0049004A9022001F0B1FB01281DD0022006B070BD002812D0298840182146FFF704FA28880024801922
:403AC00080B228806988091D884206D12C801348FFF79CFF03E00320E6E788421AD96C6018E004986860E278A378110219430B4A698000231060E3565360032313815181B7
:403B0000A1788170E178C1706178417021780170042028800020C7E7240C0020740F00203EB515460C46022803D004280CD000203EBD0091019002206946088107484A817A
:403B4000006805F07AFA07E004F050FA044B0022DB6829462046984701203EBD200C0020240C0020034801688068081A0A21484300097047800F002010B5FFF7D1FF10BDF4
:403B800003480021016041608160C16070470000800F0020024610B5FF20002A0CD0FFF7EFFF064C0321207B0843207310010A21FFF75CF82060002010BD0000800F002088
:403BC00000B504480A21806848430209FFF7D8FF104600BD800F002010B54B490868002802DA4A4B01221A70022290430860484800694549C00B4031096A0246C907C90FF8
:403C00000A4259D0012000F0FDF93F480E216C30FEF7FAFD3E4820218430FEF7F5FD3C4814219C30FEF7F0FD3948FF21C131A430FEF7EAFD3648FF212F31B030FEF7E4FD0A
:403C400033483449BC30FEF7DFFD31483249AC30FEF7DAFD30492E48491CB430FEF7D4FD2B482E49B830FEF7CFFD29482C49CC30FEF7CAFD26482B490830FEF7C5FD244887
:403C80002949A830FEF7C0FD214828498830FEF7BBFD1F4826498C30FEF7B6FD1C481921C9029030FEF7B0FDFEF7BEFDFEF7B2FEC0B2022812D01FE000290BD0002101428A
:403CC0000AD0114801216030FEF79EFD0120FEF785FE97E70121F2E7FF2010BD15491648FEF792FD14481549001DFEF78DFD124800210830FEF788FD54200449C043891C25
:403D00000870002010BD000000F02E40340C002000002E40320300002F3F00003102000010520000EC160000FA12000031D000003AE300009956000080012E40F80F0000A9
:403D400010B5FF2000F05EF90F49FF2048700E481021801D41800121417001700A490020C91C4870FFF738FF04000AD100F0C0F807210648FEF738FD044807211830FEF7AB
:403D800033FD204610BD0000340C0020CC112E4070B5002405465B1E0AE0284600F068F8010A161971702D1D1055A41CADB2A4B29C42F2DB9C4203D1284600F059F8105590
:403DC00070BD000070B500210A4D5B1E0AE0541864782602545C344346193480001D891C80B289B29942F2DB994202D1515C4019018070BD00102E40F0B50599091FCFB249
:403E000000217E1E0BE0541864782502545C2C43164D45192C80001D891C80B289B2B142F1DBFC0712D01C78515C24020F4A0C4381180C809C785D78001D210280B2294311
:403E400084182180001D80B2D9780CE059781A7809021143054A84182180001DD9789B78090280B2194380180180F0BD00102E40014940180088704700102E4010B50B4955
:403E80000020487000F034F8002000F0DBF8002000F0C8F807210648FEF7A6FC044807211830FEF7A1FC002010BD0000370C0020CC112E4010B50B46062812D006DC012834
:403EC0000CD0032801D1FFF7D9FF10BD0A28FCD00B28FAD105480078107010BDFFF730FF10BD1146184600F0C9F810BD3A0C002010B503212348FEF787FC0120FEF75EFD78
:403F000020483038406A204C80076178800F890001431C480C38FEF777FC6078002808D0401E022181401820FEF78AFFC000083800E0B82081B21548FEF766FC13480321E1
:403F400009021438FEF760FC10481149B830FEF75BFC612189010F48FEF756FC0D480321001FFEF751FC0C490C48FEF74DFC0B480B496038FEF748FC084801218838FEF7A9
:403F800043FC10BD70F02E403A0C0020D8102E4090890000041E2E40FF0F000058122E40209000000848017806290BD140780749002803D1486B400840004863C86A012219
:403FC0001043C86270470000370C002040F02E400148007870470000370C002000B50300FFF7ABFB080D050D0B070507090D012000BD032000BD042000BD022000BDFF2065
:4040000000BD000010B50446FEF7FCFC072C01D9FF2C01D102480470FEF7ECFC10BD0000370C002010B5064A012805D01921C9021046FEF7E9FB10BD1D21C902F8E70000F6
:4040400090002E4010B50A4A141D012808D009491046FEF7D9FB08492046FEF7D5FB10BD04491046891CFEF7CFFB0349491DF3E788002E4031D000003AE3000070B50C461F
:404080000546FEF7C7FCC0B202280E49287804D0FF2810D04C280CD810E0FF2809D10A4AD0680004800F032801D0087807E09069000A553803E00878207070BD4F382070FD
:4040C000087070BD360C002000002E40F8B50F000446164609D01A4D1A496868A04202D94018A04201D38E4201D90120F8BD39462046FEF7D7FE002820D032463946204607
:40410000FEF7DFFE0E49F0B2012620318E7600210C220B4653430A4A9A1813895568EF18A74207D9641B1B1B9672834206DAC01A1469C0B2491CC9B20629E9D30020F8BD08
:404140000C12002079020000002070470020054A002902D0012902D002E0906000E0D06000207047400C002070B5074C15460548A26880182A46FFF7A9FFA0684019A060F3
:4041800028B270BD900F0020400C002010B503490A220968FFF7E8FF10BD0000440C0020F3B50026F64381B000281BDB1E490968884217D80299002914D01B4F142204468C
:4041C0003F1D54432546396810354859401C09D0FEF718FC38682F1F4159C359994203DBFEF708FC3046FEBD214608310091465801590C20704308180C220299FEF761FED0
:404200000948761C001D0068C159B14200D100260549009A091D865008684159491C4151FEF7E8FB0020FEBD5C0C0020002803DB07490968884202D90020C043704704495F
:404240001422091D0968504310300858704700005C0C0020F3B50026F64381B0002841DB2349096888423DD8029900293AD0204F142204463F1D5443254639681035485925
:40428000401C2FD0FEF7BEFB3868415900292BD0211D009146580C21005971430F46C1190C220298FEF70DFE11480021001D0068761C00590C34C0190160416081600C48BF
:4042C000001D00680159B14200D100260849009A091D865008684159491E4151FEF78AFB0020FEBD3046FEBDFEF784FBFAE700005C0C002038B50124009400F039F838BDEC
:40430000FEB50027164EFF433D4600240EE01C20316860430818017A002906D04068FFF785FF002801D0254603E0641C3079A042EDDA681C12D01C2130684D434419FEF7FE
:4043400061FB69466068FFF785FF0546FEF752FB002DD9D1216868468847D5E7FEBD0000740C002038B50024009400F001F838BD1FB500220C49541E0A60002811DB496800
:4043800088420ED808491C220C31096850430818406801A9FFF704FF401C02D0002004B010BD2046FBE70000680C002038B500210091002811DB0F49097888420DDA0D4DD0
:4043C00004010C3529680859002807D0201D0818694600F063F8002801D0002038BDFEF711FB28680F34015D491E0155FEF702FB009838BD7C0C0020F8B50D4600216A463A
:404400008C461180002839DB23490978884235DA214B04010C3319680A59002A2ED020460C300B5A801C0E5C184670438018954224D3854222D2002006E007465F43BF1850
:40444000AF4206D0401CC0B2B042F6D36046002814D0114E271DC8190C366A46294600F053F800280AD168460088012808D030682946C01900F02DF8002803D00120F8BD1A
:404480000020F8BDFEF7BEFA30680F34015D491C0155FEF7AFFAF3E77C0C002070B50D46040005D0002D03D00220205E002801DA012070BDFEF7A6FA0221615E606889005C
:4044C000405828606088401E6080FEF793FA002070BD70B50D46040007D0002D05D002212078615E401E814201DB012070BDFEF789FA6088401C00B26080616880000D5099
:40450000FEF778FA002070BDF0B500231D46002802D00224045F0AE00120F0BD46689F00F6598E4201D1012503E05B1CDBB29C42F4DA15700020F0BD10B500F039F8FFF73C
:4045400047FDFFF74BFD10BD70B504460025FFF7ECF8002C06D0A079012803D8214600F01DFB00E00125284670BD000070B50E46050001D0002400E00C4C002C11D0E28A2B
:40458000500609D5D107C90F022000F0E7FBE08A40218843E08204E0D107C90F012000F0DDFB3146284600F06DFB70BDC012002038B51E4CFFF70CFD042813D0052811D0DF
:4045C000062812D003282AD007280AD100206946087002460120FFF76DFCFFF7F9FC0128FBD138BD00F028F938BD00F0CDFA00F023F900F0F5FA8007800F0228F4D10C4897
:4046000041880029F0D05B21095D0029ECD101210170A07D0140022000F0A0FB38BD00F0B7FA0120FFF7EEFC38BD0000C0120020900C00204030C07E002800D001207047AA
:4046400000B500F001F800BD902148430749084A40186030417F491CC9B24177D289914201D300214177C8B270470000A01200208C130020F8B50446407821780202800652
:40468000870FE0781143A67809050002090D0643084600F08DF900210546F2B2002812D0002C10D0022F0ED0032F0CD0002A0AD00279092A07D0002A05D0134A5A23527FF1
:4046C0001B5C9A4207D82889002100F0B7FC204604F028FDFF21002914D10C48224600682946436930469847C0B2FF280AD128464030817EF2B2491C8176FF23214628468A
:4047000000F01BF8F8BD000054120020B00C002070B505460E46084600F04EFB0446304600F056FB0121A9400A46224001400A4301D0012070BD002070BDFEB51C461646EB
:404740000F46054600F0D6F9A878FFF779FF02460190334639460094284600F00DF8002808D1A8780199FFF701FFFF2C02D1384604F0D8FCFEBD0000FFB585B005460E98FA
:404780000C46FF2810D02B49C00009680A5840180179C0795278814201D9012601E09006860F6846038108E06078A1788006860FE0780002014368460181284600F028F981
:4047C000070007D021462846079A00F0DBF8384609B0F0BD304600F0E6F804AE0346039002AA29460096204600F07DF83C20405D002818D0284600F00BF9012813D068464B
:4048000000890096C0B20190A878231DFF22079900F0FAF968460089039BC2B2A878079900F084FAD3E7684600890021C0B20091E9E70000AC0C002010B5FDF72EFD0446F0
:40484000FFF7C6FB012809D0FFF7C2FB022805D0FEF76CF92046FDF724FDEEE72046FDF720FD10BDC006C00E7047F0B505463C20405C89B016460C4600280CD0307869466A
:404880000873002806D000272046FFF7D3FE012803D003E01F2009B0F0BD012703200890204604A93830019100902346E17E34333A46E06900F015FB6846007B03A928181A
:4048C0000290009120462B46019504A92430089A00F0ECFA02466846007B3070204600F08DF81046D7E7FFB505463C20405C89B016460C46002810D0084600F089F80128E1
:404900000BD0308869468883002809D000272046FFF790FE012805D005E000200DB0F0BD0220FBE70127204603A93830019100902346E17E34333A46E06900F0D2FA291DE9
:404940002B1D07A8129A6D4607C5204603A924300C9A00F0ABFA02466846808B3080204600F04CF81046D9E7002801D0002000E003484030C07F012800D000207047000050
:40498000C012002092001018C166704710B50B4604460146184600F033FA002802D0204604F0CAFB10BD002800D102207047000000B50146FFF756FF002801D0002000E053
:4049C0000348002802D002898A4200D0002000BDC012002010B5014600F01AF80128887802D0FFF731FE10BD90214843024940186030007F10BD0000A0120020C169491C65
:404A0000C16104D1C17E491C4906490EC17670474030807F002800D001207047F7B50646087982B00C46092807D0A078F0770846FFF7EEFF012806D010E0304604F07CFB83
:404A4000022005B0F0BDA1789020294A484380186030007FFFF75CFE012810D0A078FFF783FF01280BD037780121304600F0E9F925462035062F38D00B2F0FD107E0684692
:404A8000027C21463046FFF781FF0D20D9E72046FFF7D0FD012801D1002028772046FFF799FF054604AA21463046FFF7DEFE01205F2108556946097C002001910090A0782D
:404AC00033463A46294600F09FF869460A7CA0780323294600F02AF9A0782946FFF746FD304604F029FB0020ABE70120D5E70000A012002010B502464032937F0021002B46
:404B000003D1927E002A00D00121064A927A002A00D000210279092A00D10121807800F03DF910BD70130020CB065B0E0343480901021943D00108430121C9020843014901
:404B40000881704780142E404278037812021343084A1382C37880781B021843908248780B78000203431383C8788978000201439183704700142E40024A1080000C9080C3
:404B80001181704700142E4010B5FFF70BFA10BD014952200880704700102E4000280FD00D4A108B0870000A4870908B8870000AC8700948203000880871000A4871704780
:404BC000064A10880870000A487090888870000AC8701089F0E7000040102E40C0112E400148008A70470000001A2E40044A10820448028980894843101880B27047000066
:404C0000A0102E408C130020FFB581B014460D4607460A9E0B9BFFF7E9FF002E0AD0009333460021049AFFF7E7F805484019C45505B0F0BD0021049AFFF7C4F8F5E7000076
:404C4000980C002070B502460448054D808808242C800B460021FFF7B5F870BD8C130020A0142E4010B5212402466401044953200880102300212046FFF7A4F810BD00004A
:404C800000102E40034A1082802001430148803001817047A0102E4030B500210F4B0A46012809D0032802D005280AD107E04021198102210A2204E004210C2201E004213E
:404CC0000D221882054C20342088C0B205460D42FAD022800021198230BD000080142E4010B51446024606480B46C0880021FFF74FF8012C02D103495420088010BD0000BA
:404D00008C13002000102E40064A11880170090A417091888170090AC1700349542008807047000080142E4000102E40F8B505461C4617460E46084600F046F8054AB900BC
:404D400021431582034AA03A80180180024880194455F8BDA0102E409D0C002030B50E4C238A01251A46012804D0022804D000290BD00CE02A430AE0002908D12A43228219
:404D80005008400020821A4601E05A0852009A4200D0228230BD0000001A2E40054A1082044A6032908B4023984389010143918370470000A0102E40024908820148803060
:404DC00080897047A0102E408000FF3041307047024908820148803000897047A0102E4038B50C46054600216846009104F062F9002804D1009928464C7000F023F838BDD9
:404E000010B50346446E6033002C04D0846E002C04D0FF2010BD41669A7001E08166DA70002010BD70B50C460546FFF7F1FD002802D02078687570BD21782846FFF7D0FF83
:404E400070BD704710B50B46072119708178D977014602221846FFF7E1FD002010BDF0B587B0054605A81E461746019100900C9C04AB06AA02A903A800F04EF82846FFF706
:404E8000F1FE21463046FFF7DDFE6846017A0398FFF772FE05A904A8FFF756FE6846027E21463846FFF740FE07B0F0BDF8B5069D089E2C780094FFF7D2FF0120FFF7ECFEE6
:404EC0000746002221460798FFF70AFF3046FFF71BFF241D2C70F80701D00020F8BD1F20F8BD70B5059C049D2070060A6670060CA670000EE0704806D101400E0843207195
:404F000004221946601DFDF7DCFF2046042229460930FDF7D6FF70BDF8B5079C0E46E178069D09020160A77839430902016067783943090201602778394301602079611D09
:404F40004006400E30702079C009107004221846FDF7B7FF2146042209312846FDF7B1FFF8BD03460020002A05D0002B03D11B2901D3FB2901D912207047C90070311180FE
:404F800070477047FF2070477047012070477047002070470020704710B5012200F006F810BD10B5002200F001F810BDF8B5204D0F4629781646012904D02978022901D072
:404FC0001120F8BD0C2148431A494418E078A178884201D31220F8BDFDF714FD62780C2361685A4351188CCF8CC1E178601C491CE1706178491CC9B20170A278914201D165
:40500000002101706868401C68602878012803D0FDF7F0FC0020F8BD02202870FDF7EAFC002E03D00020FEF7C9FCF3E70120FAE7B40C0020F01400200120704738B505463A
:4050400000200C4600906946092000F016F8002801D0002038BD00991320087001208870CD70280A08714C71200A8871052048700722042000F0BAF8EBE70A4610B5C1B2FF
:40508000104603F0EFFF10BD10B504F02DF810BDFEB5144C0025E17D204610300D54E07D26468000203E305804F032F8E07D401CC0B2E075042800D3E575B08E401EB086AC
:4050C0000948807A00280CD00095019511206A4602951081558129460A460020029B04F03BF8FEBD2815002070130020704700207047002070477047014A1268126A104745
:40510000BC0C002010B50B48017A01290ED0C17A00290CD001210172407A064BC000403BC1184A884968185CFEF726FD10BD0021017210BD8015002070B503461448C47AFE
:40514000092C0BD3022B05D0042B02D10846FFF79BFF70BD0846FFF79BFF70BD847AE5000B4C403C6355837ADB001B195960817AC90009194A80C17A491CC172817A491CEC
:40518000C9B281720929E8D30021817270BD000080150020FEB5002406460D462046009401940294012E05D0022E1AD10846FFF761FA15E012206946088100954A81002B5B
:4051C00069460EC90ED0002003F0C0FF040007D000F012F8002803D02946304600F026F8E0B2FEBD002003F0B7FFEFE710B5FFF7A3FFFFF787FF10BD0148007B70470000A9
:405200006013002010B5012802D002280AD103E0084603F017FF02E0084603F03BFF0006000E01D0002010BD012010BD10B5012805D0022802D1084603F074FF10BD084630
:4052400003F048FF10BD000001464A780648002A09D1064A137ADB439B0704D409781278914200D100207047132F0000A4150020F7B586B0069815460E4600280AD0152E42
:4052800005D01E2E09D9D22E07D0522E05D0FC4809B0F0BDFA48401EFAE7002000900698694640780490FF2008730698FFF7CCFF07002DD11B2E0CD01D2E0AD0F0070BD031
:4052C000012E06D004980101EE480818007BB0421CD1F00703D010E01E2EF3D0F9E71E2E17D004980101E7480818407B002804D0522E0ED0D22E09D10BE01D2E09D10498F7
:405300000101E0480818407B002802D0DC4FBF1CCEE0012E1CD004980101DA480818C088001DFEF751FA040014D0D5490120091D0F2E70D011DCD44A3300FEF7FEF90F29EE
:405340002BF745F653F56FF47CF38FF283F129000920E6E7CA4F0D3FAAE0182E71D009DC3246103A1300FEF7E8F908DEB2F92C1313E2E2131E2E24D006DC192E21D01B2E3F
:4053800001D01D2E04D1E9E0522EFCD0D22E7DD0BB4F8AE0E87804280BD00498A9780201B8481018007B401E814202D0B44FBF1C7BE0A87860712888A071000AE071E878C3
:4053C000F7E06946488154E028881738904201D30F466AE003206946488128886071000AA07146E02879012816D0102702206B46588128796071EA885889BF1C231D7A4359
:40540000C0182968FDF75DFD6B46E88859897843081858812DE04FE00227E7E769464881A88829688200601DFDF74BFD69464889A9888900F3E002206B465881A888801CD2
:405440005CE08EE12968002902D0A988002905D1012100916946488100200190012221462846049B00F070FA070023D0009800281BD0267100206A4690735673304600F0BA
:40548000D5F96A46107306990B7800E035E113724978517201945189091D5181014601AA002001F027FF070002D02046FEF7AAF93846EDE6E88817E169464881AA88601D83
:4054C0002968FDF7FEFC69464889A988A7E0E888002800D17CE7A8880028FBD0049A1301684A9A18D288521E9042F3DA28680028F0D002206B465881A888001DA88060711D
:40550000AA88E8885B894243201D18182968FDF7D8FCA888E9886B4648435989401878E7D9E0BEE0B5E0E1E046E034E021E02A89002ACFD06B4658812989221D81545B898C
:40554000090A671DD9556B465889801C81B25981A88988545989000AC85552E0012221462846049B00F0CCF907009ED1E888C01C27E7288817389042ACD2032069464881DD
:4055800028886071000AA0710498298802013D48101841806DE7288800289BD06A88002A98D0904296D86071000AA0716888E071000A2072052004E72A89002A8AD06B8932
:4055C000002B87D09A4285D86B4658812A89211D4254100A5B89621D98546B465F896889A31DF8546B465B89000AE71DD8556B465889001D87B25F81A88978545989000A5F
:40560000885458892146801C82B25A812846049B00F09AF90700A8D169464889E9884018CFE69A42BED86B4658812A88211D4254100A5B89621D98546B465F896888A31D59
:40564000F8546B465B89000AE71DD8556B465889001D87B25F81287D012805D078181022291DFDF72EFC04E0A88878545989000A885468464189287D012807D0102006E0A2
:40568000122F0000A4150020F90100000220081897E62888002891D06071000AA07103208FE62A88002A89D06A46508128886071000AA0715089801C81B251816888221D5F
:4056C00088546A46010A5289601D11546A465089801C5081CDE621462846049A00F0EEF8070098D1E8884000401C6AE62A88002AD1D06B88002B94D16AE62989002900D19C
:40570000D3E6694648812989271DC1550A0A69464989601D0A5469464889801C48810498010117480818C0880F3880B2E880A988884200D9E9806B465889EA88C0192968E6
:40574000FDF7BFFB6B465889E9880C22401880B25881C019A918FDF7B4FB6B4658890C3057E62A78002A01D0012AC5D1694648812978221D815469464889401C22E6000030
:40578000A41500204079034A000180188068086000207047A4150020F8B5074640790E46010120480C18A568304609301FD0042805D00C210D280CD0112831D122E06078DD
:4057C000042803D0FEF778F8042060700020607316E06078042806D10091601C3B46124A1E21FEF715F8787A401C607317E06078042803D0FEF760F804206070002020737F
:4058000035400DE06078042806D10091601C3B46054A1E21FDF7FCFF787A401C20733543A560F8BDA41500208D590000032809D9C10704D01B2804D01D2802D003E01E284E
:4058400001D0F1207047F22070470000F8B50546447A807A0E46012821D1287A81281ED082281CD0002E0ED11E2C0CD0E00702D01D2C06D009E0522C05D0D22C03D01B2C79
:4058800001D0082108E0E00702D01B2C02D106E01E2C04D10421C9432846FFF77DFF06480768002F06D0E888009032462146281D2B68B847F8BD0000C80C0020F0B583884C
:4058C00001240568002B15D00B4E12019719FA88A61CB24209D32A880C192271120A5B1EAD1C6271B4B2002BF1D18188C91AC1800020F0BD0148F0BDA4150020162F0000DA
:40590000F8B505899C468E46002D16D08188961C8F1919010B4B0A4CCB18DB889F420AD8714689180D712A0A4A71B2B26346714600F00AF804462046F8BD01480A38F8BD11
:40594000202F0000A4150020F8B50D4684880168002C01D0002909D01F010A4BA618FB18DB889E4204D99B1AC38002E00648F8BDC480C388A818001D1A46FDF7A2FA0020CC
:40598000F8BD0000A4150020112F000070B504464079002501010D480D4E08188068C0434107002901DB691F03E000070DD40821C9432046FFF7F0FE607A3146401C607271
:4059C0002560E5802046FFF741FF70BDA4150020172F000070B50446C38804C8042100F05DFE05000FD1617AC8070ED01D2912D0522908D0D22906D01B2904D00821C943D9
:405A00002046FFF7C9FE284670BD5229FBD0D229F9D01E29F2D00421F2E710B582798B799A4204D10622FDF73DFA002801D0002010BD012010BD0000002804D00349097832
:405A4000017000207047024870470000CC0C00201310000010B506480178022905D1032101704068002800D08047002010BD0000CC0C0020FEB504462B480E002AD0002CB0
:405A800028D0204600F040F9002821D0264FBF1CB84220D0B579022D01D0032D1BD1062231466846FDF70DFAAD1E684685716946204600F029F900280AD0B8420BD002A962
:405AC000684602F0BBFC002809D16846007A20701548401CFEBD1449C91C8842FAD120780E22124D5043B1794019817120783146504340190622FDF7E4F90D480E228179A8
:405B000020785043401941732078094950434019C01D0622FDF7D5F90549491E0878401C08700020FEBD000011140000B4150020D50C002070B5040004D02078052804D304
:405B4000124870BD1148001F70BD0E214843104D062240190021FDF7BDF920780E2148430026401986712078062248434019C01D3146FDF7AFF920780E2148434019054941
:405B800046730878401E0870002070BD15140000B4150020D40C00200B0010B50D4906D0002804D00278052A03D3081D10BD084610BD0E214A4308495218527B9A7100782C
:405BC0000E2250434118C91D06221846FDF779F9002010BD11140000B4150020F0B50646002085B005460490029003901D480C46002906D0002E04D03078052803D31948AE
:405C0000001D05B0F0BD184F0622B91D02A8FDF749F9002806D00622B91D2046FDF751F901201BE021463046FFF7B6FF0490A079022814D302D0032803D005E06846857145
:405C400002E00120694688716846FEF77DFC062269462046FDF735F968468079A0710498CFE7000011140000FA1500200B0010B50D4906D0002804D00278052A03D3081D04
:405C800010BD084610BD0E214A430849521892799A7100780E225043411806221846FDF710F9002010BD000011140000B41500207CB50026054612480C46009601960029B9
:405CC00006D0002D04D02878052802D30C48001D7CBD06220B496846FDF7E4F8002807D0062208492046FDF7ECF80120A07104E021462846FFF7BAFF064630467CBD00003C
:405D000011140000FA150020F3B583B0054604981749002818D0002D16D005248E1C2C7000206946009088808871641E0E2021464143104809180F460498FFF76EFE00286C
:405D400005D000262C7010E0084605B0F0BD2878052808D139466846FFF75FFE002802D0034E2C70F61C002CDFDC3046EDE7000011140000B415002010B50C46002808D077
:405D8000014606220448FDF79CF803488471002010BD024810BD0000D50C00201114000010B50E4A002907D0002805D00278052A04D30A48001D10BD104610BD0E235A436F
:405DC000074B8C79D218947100780E225043C0180622FDF776F8002010BD000011140000B41500200B494028497810D30A46403290420CD2084B14221B684243D218052350
:405E00001B02D21A9278002A01D001464039C8B270470000DC0C0020F80C0020F3B581B06846007914210246484322494032096800240F5C41184D8900928878022806D091
:405E4000032806D0052804D0062805D103E0012402E0082400E0042401A800F09FFC164EE0070DD0182047431448242138183268001D6943891800234F681946029AB84717
:405E800060070DD50E490298884201D1002100E001462420326868438018C26800989047200706D52420454330682818816800988847FEBDF80C0020F40C002008160020D7
:405EC00038230000FEB50E460746082B04D00021304601F097F9FEBD5079157900020543D0799479000204432846FFF77BFF69460872FAB2294602A800F0C8FC002809D157
:405F00006846007A142148431349096840188088A04208D000230222314638460095019401F0A0F9FEBD082307222946304601F0D1F944200949704340188575290AC175CF
:405F40000476210A4176304601F092F868460449007AFFF763FFFEBDF80C00201017002038230000F8B50E46082B29D15079157900020543D0799779000207433846FFF79E
:405F800031FF04460F480178A14219D00E4914200968604340188188A94211D1807806280ED144200949704340184089B84207D10121304601F026F905492046FFF72EFF1E
:405FC000F8BD0000DD0C0020F80C00201017002038230000F8B50746694600F029F9002851D101220721009800F088F801220821009800F083F8244E0024E0003558002D46
:4060000004D004236A4602213846A847641C032CF3D300241D4E1E4D04E0E0B23146FFF7FDFE641C28788442F7D300240121204601F0E8F8641CF9D01648174C00880028F1
:4060400008D000981821484300194188134802888918018012491B2008800098182148430019083003F032FB0098002201461823D243584322520019FF220271094A172081
:40608000490050520020F8BDF816002037230000DD0C0020EC0C0020081600201C0D0020EE0C0020F00C002070B50024114A0146651E142060438018007CFF2808D0641CE2
:4060C0000A2CF6D30121084602F064FF284670BD2046142600237043135080188381C3814560017404490868401E086000F0B6F8204670BD20160020FC0C0020F8B50F463A
:406100001F4916460C68601C38D01E48006884421CD014201C4960434018406812E01421194A41438D18297CB94209D1142363439A1869685160002E03D000F049F800E097
:4061400004466868411CEAD10E4804600C4A142110680D4B4143C9180B7CBB420ED10B4C0023E372A38049681160064A1368984200D11160002E01D000F02AF8F8BD00004F
:406180000C0D0020100D002020160020E816002010B50C4A0C4914680C4B641C0FD00A6814246243D218506008600868142100224843D243C018426000F056FA10BD0860AC
:4061C0001060F2E70C0D0020100D00202016002070B5054614200D4E4543AC19207C072801D0082804D17059002801D0FDF70AFB00207051A081E081FF2020740448016817
:40620000491C016000F02AF870BD000020160020FC0C0020044A1288824202D1002008607047024870470000081600201123000010B5074A074C1388A34206D000781279E8
:40624000904202D10020086010BD034810BD000008160020FFFF00001123000030B411480268002A01D0012300E000230E48104C01680E4805682078A94201D800280DD094
:406280000C4D2D68A9420BD3012809D100202070012B05D130BC89B2C0B210470120F6E730BC7047080D0020FC0C0020000D0020E80C0020040D0020FEB54149002008703D
:4062C00040480568681C72D014203F49684344183E48C17A808808180004000C02D1284600F080F83949284600F0BEF800285ED1207C009001280CD1A0684421344B4143EF
:406300000022C9184A74097C012902D1002100F079FF2C48019501688D4201D161680160207CA6686568082834D11C20374647432848A389016879180A8BD218121F92B2DA
:406340000A83016879188B8A9A4223D104460869FDF758FA216800207918086121681E4A7918888221687918C8822168791808831421126871438918498924225143174A67
:4063800030464030126880B2891800230C6A1A461946A0470198FFF71BFF681C07D00098082891D1F0B200F0C3FC8DE7FFE705480068401C02D10A49401E0860FEBD0000DA
:4063C000E90C00200C0D002020160020E816002010170020180D0020F80C0020F40C0020100D0020142148431B4910B54018C289036800219C18194B1C608489A21A94B213
:406400009C80027C012A04D0072A0FD0082A16D10EE080684421484311494018807B002801D005210BE00020988010BD017A06E08068142148430B49096840188188D87A97
:40644000001DC0B2D8720019001F1873000A58739973080AD87310BD20160020E816002010170020F80C0020F0B50C46C97AA28885B089188EB20021039152491423096824
:406480004F4A5943504BC918142358434E4B097CC018012904D007290ED0082912D115E08068442148434949401847681820394641434748405A02E08068070C0CE0009020
:4064C00090420ED10020E072A08076E0806814214843404909680F5C18203D497843085AEDE73D48008800282ED064E03B480088002803D038480088002825D03848058898
:40650000AE4200D83546701B86B23648C07A00281DD0002002906A460098107100980123010A02980001014303988001014351719571280AD071042201A90220FDF786FA66
:406540000298002805D010E0012005B0F0BD0120E0E72146E27A00230C310220FDF776FAE07A281A85B20020E072A088002812D0A84200D8054600232A4602202168FDF7CA
:4065800065FAA088A84201D3401B00E00020A0802068401920601820394641430C4808184188491C41800D480088002803D00A480188491E0180002E98D10020C5E700001E
:4065C000FFFF00000C0D0020201600201017002008160020F80C00201C0D0020EC0C0020EE0C0020E8160020074B084A18801180002801D0002902D1002010801880044975
:406600001088088070470000EE0C0020EC0C00201C0D002038B50C466946FFF7FBFD00281BD10098182148430C4940184188A14201D2002100E0091B4180094800880028A9
:4066400007D0084A1188091989B21180814200D91080002C01D000F007F838BD08160020EC0C00201C0D002010B50948017800290DD108490988002909D007490968491C1E
:4066800005D00121017000210846FFF715FE10BDE90C00201C0D00200C0D0020F8B51C0015460E4606D0002D04D0002802D0311F032901D31148F8BD6946FFF7B9FD00286C
:4066C00002D00E484230F8BD0720FFF7EDFC411C10D000990A4B0A041421324341430E46C9188A609D518C810422CA81FFF750FD0020F8BD0148401CF8BD000012230000AC
:406700002016002038B51446002801D0042901D0074838BD6946FFF78BFD002802D00448423038BD0098034940000C52002038BD12230000F00C002030B504460B480D4BE5
:4067400001780B481A68491E14254D43AD18AD78002D02D00029F6D130BD217014241B68002001226143C9188A7030BDDD0C00202B230000F80C002030B40D46C100064819
:4067800008184038046A002C04D02846A44630BC0321604730BC7047F8160020F8B5394F04463A68002A6AD0374E3168002966D02078142343439A1892880025402A1CD352
:4067C0001C22504341188868002816D08989002913D0FDF717F820781C21484331684018856020781C21484331684018858120781C21484331684018C58120781C214843CC
:40680000316840180069002813D0FCF7FBFF20781C21484331684018056120781C21484331684018858220781C21484331684018C58221781420414338680122425421781C
:4068400014225143081885802078396850434018C580207839685043401805812078396850434018056120781421484339684018C5602078142148433968401885700020B0
:40688000F8BD0000F80C0020180D0020F8B507461646094D094C0846FFF7A4FA2978814207D0074A142112684143515CB14200D1002438702046F8BDDD0C00207023000024
:4068C000F80C0020F0B587B005460E4600206946488108811446888102AF0E2B02D00223009735E06079A279010220790843E17909020A43411E0692FF29F0D2617A6B46EE
:406900000A02217A0A431A81E17A09025981A37A19436B465981172A03D3172901D3914202D90B23009713E004A900F0C9FA0028D5D1607B694600028881217B084369469A
:40694000888101A8FFF7F8FE002808D00423009700223146284600F0CDFA07B0F0BD6A4611791420404C414320684554138A117914225143081843816A4611791422514321
:4069800022680698891888806A4611891079142250432268801801816A4610791422504322683249801801616A4610791422504322682F4980186A46C16011791C2041430E
:4069C0002C489389026889188B806A46538911791C225143026889184B806A46938911791C225143026889188B806A46127900211C235A430368D21891606A4612791C23FD
:406A00005A430368D21891816A4612791C235A4300680E231018C1816A461779152240373946304600F056FC6A461079142148432168401846701079142250432268032183
:406A4000801881706A46118A242041430A480368C818828B1820454308485C582818001D02AB3946A04778E7F80C0020B56B00002D6D0000180D0020F40C002008160020BC
:406A8000FFB587B0089844214843434900244018408900900E2B7CD15079167900020643D07991790002084369460882507A00024882117A084369464882D07A00028882BD
:406AC000917A084369468882507B157B000205430098FFF787F96946087130490978814257D014212E4F484339684018817802294FD1002D01D001242BE06946098A17299E
:406B000003D36A46528A8A4201D9264DF3E705218170694608791421484339684018868069460A8A08791421484339684018028169468A8A09791C2041431B480368C91846
:406B40008A8069464A8A09791C2300685943081842800121089800F055FB002C02D001A8FFF71CFE07981821484310491422401869460979001D51433A6804AB8918498938
:406B8000242251430A4A126889184C682A460099A0470BB0F0BD000010170020DD0C0020F80C002081230000180D002008160020F40C0020FEB505780020164601902C4616
:406BC0001C20564A444310680F462118C88800282DD0401EC880002002905048006821188A89002A26D08868C9898B1993426CD8081832463946FCF764F94848006820185D
:406C0000C189891989B2C1814448006820188689B1426BD1012187680291404A0021816010682018818110682018C18133E03C480190D0E778783B4B020238781B681043CE
:406C400014226A43D218D288824266D3B21E0092904202D1BF1C96B21DE0904218DD2F4A888112680021A218D181FCF7ADFD0190002852D0B21EB91CFCF723F927480199A4
:406C80000268A2189160006800992018C1812DE023482A380190002E13D0224914200968684340184089242148431F49334609683A4640180069019984462846403066469B
:406CC000B047029801280ED010E0144EFCF79AFD316800206118886031686118888131686118C88102E03846FCF78CFD1420294641430C48006808184189242041430A48CD
:406D0000006808180549C28B09686118C9888A4203D34269284640309047FEBD180D002071230000F80C0020F40C002070470000F1B584B000200290304B049D1C201A68FE
:406D40004543A8184188525B914200D31146019101690391818AC08A081A039986B2002901D0002E39D1002005B0F0BD0820FFF79BF90090401CF7D001983446864200D9B0
:406D80000446201DFCF720FD070030D01B48224600682818C18A03980918381DFCF791F800991420164B4143C818049A82605F50211D81810421C1810098FFF7E9F90F48BB
:406DC000006828188188491E8180301B86B20B4800682818C18A0919C1820848006828188088002801D0002EC0D10298BCE70098FFF7EEF903480290F7E70000180D0020E2
:406E00002016002005230000F8B58C46082B47D15079137900020343D0799279000202432148224E007800240546376809E014216143C9198988994201D1254603E0641C43
:406E4000E4B28442F3D3A8422AD01C202F4647431748184B0068391888888018984201D9154C03E08880002A1BD000240121604600F0C8F92846FFF75BFF0D4831680068E8
:406E8000381882881420684340184089242148430A490968401883692846214640309847F8BD054C641CE1E7DD0C0020F80C0020180D0020FFFF000073230000F40C002008
:406EC00030B50A4A0A4B0446074812781B68521E24255543ED18AD8BA54202D10A80002030BD002AF3D130BD22230000DE0C0020F40C0020FFB581B002984421484312496B
:406F0000164644181F460E23152231460A9D029800F0E0F9A675300AE075287820762888000A6076A878A0766888000AE07628792077A888000A6077A777380AE0770298BB
:406F400000F096F805B0F0BD10170020FEB50646981F1D4614460F4605282CD20121384600F050F944204743134838184089FEF739FF694608711149097881420AD01421BA
:406F800048430F49096840188078022802D101A8FFF704FC0B480768002F0CD0182046430948694630180079AD1E0870A21CABB203216846B847FEBD10170020DD0C002008
:406FC000F80C0020140D002008160020F8B5234E0179427935780068012A01D0022A31D100282FD11E4A1F4B128800249A4229D06A4600F023F9002824D1009844211A4F90
:407000004143C919497C012908D101221146FFF775F8009844214843C0194474009844214843C019042101704489052C0BD02046FEF7D8FE31780546A94204D100210098BE
:4070400000F0E0F8F8BD0021009800F0DBF8052CF8D006492846FEF7E1FEF8BDDD0C002008160020FFFF0000101700201823000070B5064644201549704344180120FFF7B8
:4070800013F80546401C03D0607C012806D00CE00021304600F0B6F80D4870BD012211463046FFF72BF8002161741421094A694388182346123386605350A1898181284629
:4070C000FFF766F801206074002070BD101700201323000020160020FEB50E4C2468002C06D018250C4E4543AD196E79002E06D0002200921346019200F0B4F8FEBD287924
:407100006E4630729B1EA971921C9BB2012102A8A047FEBD140D002008160020F8B517460D4D0A4629681E46002914D0182148430A494418607901280DD10121104600F0CD
:4071400061F8207969460870B61EBA1C2C68B3B202216846A047F8BD140D002008160020FEB59C460B460146214C08A8A1C8A67B002E01D01F48FEBD00263E60A274071F72
:4071800027753F1267756160E6736381A0816674002A01D0D00706D06046E0742574E07CA0730020FEBD144A01231078401CC0B21070002800D113701278E274002DEDD1E9
:4071C0000E486F46007820817B723A72019108210091014601AB0A4A2046FCF719FB0028DCD0A6730420207002480938FEBD0000101700202F230000EA0C0020DF0C002031
:40720000CD6F0000F8B5442205460B4E55430027AC19012907D1617C012904D101221146FEF76CFF6774A773705D042803D0FCF743FB04207055F8BD1017002010B5074C30
