:400000000040002011000000611200006112000080B500AF01F056F980B500AF304B12221A6002F0FDFB2F4B180003F0E1F8012002F006FC302002F00DFA2B4B2B4A1A602D
:400040002B4B8022D2051A602A4B2A4A126802210A431A60284B294A1A60294B00221A60284B284A126808218A431A60FA23DB00180002F03DFA244B180002F071FB234BFF
:40008000BC2292011A60224B224A1A60224BE82252011A601E4B214A1A60214B822212061A60204B8022D2021A601F4B41221A601E4B40221A600E4B1D4A1A601D4B8022A3
:4000C00012031A60C0461B4B1A6880231B031340F9D1184B802252021A60C046BD4680BD30001040001BB70004010B40060000800C020B4078002E407C002E40BCBC0000C3
:4001000064F02E406CF02E40DC050000040301400000014041FF00800003014040FF008008010B4000010B4018010140080101400000014F10020B4080B582B000AF72B6D7
:400140003A4B00221A60FB1D00221A7022E0FB1D1A7813005B009B185B00354A9B183B603B681A78597809020A43997809040A43DB781B06134318003B681A795B791B02D3
:4001800013439BB2190001F019F8FB1D1A78FB1D01321A70FB1D1B78012BD8D9254BEE2212061A60244BEE221A60244B992212041A60234B992212041A60224B99221204BE
:4001C0001A60214B992212041A60204A1F4B1B78DBB206210B43DBB213701D4B1D4A1A601D4B01221A601D4B06221A601C4B1D4A1A601D4BFC221A601C4B1D4A1A601D4B05
:4002000004221A601C4B01221A601C4B06221A601B4B03221A601B4B1B4A1A60FFF7FCFE00F0DCFFC046BD4602B080BD6CF02E40E05C0100000002400005024000500F40E5
:4002400010500F4020500F4030500F4000700F40080004400010DB00000104400801044008020440800D18000003044008030440006CDB00180304400004044008040440F2
:4002800000050440080504402400000210B5064C2378002B07D1054B002B02D0044800E000BF0123237010BD7811002000000000445B0100084B10B5002B03D0074908480E
:4002C00000E000BF07480368002B00D110BD064B002BFBD09847F9E7000000007C110020445B0100F00B00200000000080B582B000AF194B1A783B001A70174B5A783B002E
:400300005A70154B9A783B009A70134BDA783B00DA70114B1A793B001A710F4B5A793B005A710D4B9A793B009A710C4B17221A810A4B3A001A60094B07229A80074B072228
:40034000DA80074A05480023002111F043F8C046BD4602B080BDC046582300204C230020A0230020B0B588B002AF786039607B68282B14D005D8262B1BD00DD8012B07D020
:4003800099E0422B24D04C2B2ED0412B1AD092E0002001F079FC8EE001F0E0FC8BE0002001F072FC464B00221A70464B00221A7081E0454B1B78042B00D07BE0002001F012
:4003C00063FC77E03F4B01221A7001F0C7FC72E03B4B00221A703B4B00221A703B4B01221A70FFF783FF66E00823FB183A6813CA13C312681A600823FB189B89142B08D1B4
:400400000823FB185B681A782D4B1A702F4B01221A700823FB189B89162B3CD10823FB185B681A782A4B1A700823FB185B685A78274B5A700823FB185B689A78244B9A7023
:400440000823FB185B68DA78214BDA700823FB185B685A791E4B5A710823FB185B689A791B4B9A711A4B1B781C00194B5B781D00174B9B781A00164B5B7916491648019369
:4004800000922B00220003F051FD134B180002F087FBFFF72BFF114B1A785B781B021A4300231204120C1B0C1B04134318000FF089FD00E0C046C046BD4606B0B0BDC0462F
:4004C000981100209A110020982300209911002058230020485B0100F4220020A023002080B586B000AF1D4B1B785BB2DAB23B1D1A701A4B5B785BB2DAB23B1D5A70174B86
:400500009B785BB2DAB23B1D9A70144BDB785BB2DAB23B1DDA70114B1B795BB2DAB23B1D1A710E4B5B795BB2DAB23B1D5A710C23FB181A221A810C23FB183A1D1A600C2310
:40054000FB1806229A80064A0C23F8184023002110F040FFC046BD4606B080BD60230020A023002080B586B000AF194B1A783B1D1A70174B5A783B1D5A70154B9A783B1D40
:400580009A70134BDA783B1DDA70114B1A793B1D1A710F4B5A793B1D5A710D4B9A793B1D9A710C23FB1816221A810C23FB183A1D1A600C23FB1807229A80064A0C23F818B3
:4005C0004023002110F006FFC046BD4606B080BD58230020A023002080B58CB000AFA54B1A783B001A70A34B5A783B005A70A14B9A783B009A709F4BDA783B00DA709D4BE0
:400600001A793B001A719B4B5A793B005A71994BDB880A21180003F0C7FA03009BB2DAB23B009A71934BDB880A21180003F042FB0B009BB2DAB23B00DA718E4B1B890A217C
:40064000180003F0B1FA03009BB2DAB23B001A72884B1B890A21180003F02CFB0B009BB2DAB23B005A72834B5B890A21180003F09BFA03009BB2DAB23B009A727D4B5B8916
:400680000A21180003F016FB0B009BB2DAB23B00DA72784BDA68FA239900100003F084FA0300DAB23B001A73724BDB686421180003F07AFA0300DAB23B005A736D4BDB685F
:4006C0000A21180003F070FA0300DAB23B009A73684BDB680A21180003F0ECFA0B00DAB23B00DA73634B1A69FA239900100003F05BFA0300DAB23B001A745E4B1B69642109
:40070000180003F051FA0300DAB23B005A74594B1B690A21180003F047FA0300DAB23B009A74544B1B690A21180003F0C3FA0B00DAB23B00DA744F4B5A69FA2399001000FB
:4007400003F032FA0300DAB23B001A75494B5B696421180003F028FA0300DAB23B005A75444B5B690A21180003F01EFA0300DAB23B009A753F4B5B690A21180003F09AFACC
:400780000B00DAB23B00DA753A4B1B8B0A21180003F00AFA03009BB2DAB23B001A76354B1B8B0A21180003F085FA0B009BB2DAB23B005A762F4B5B8B0A21180003F0F4F9BF
:4007C00003009BB2DAB23B009A762A4B5B8B0A21180003F06FFA0B009BB2DAB23B00DA76244B9B8B0A21180003F0DEF903009BB2DAB23B001A771F4B9B8B0A21180003F059
:4008000059FA0B009BB2DAB23B005A77194B9A7F3B009A77174BDA7F3B00DA77154B2022995C3B0020229954124B5B8CD9B23B00212299542423FB1812221A812423FB18A7
:400840003A001A602423FB1822229A802423F918094B1A785B781B021A4300231204120C1B0C1B04134318000FF060FBC046BD460CB080BD28230020A023002080B584B063
:4008800000AF114B1B78012B1AD10F4B00221A700E4B1A783B001A703B0000225A703B1D14221A813B1D3A001A603B1D02229A80074A381D4023002110F08CFD03F08EFFA8
:4008C000C046BD4604B080BD9911002098110020A023002080B500AF64220021702000F0AFFE6421032000F0B7FF6421FF2000F0B3FF642000F06EFF00F07EFE00F092FE6F
:40090000C046BD4680BDC04680B582B000AFFB1D00221A7000220021702000F091FE0021002000F099FF00220121702000F002FFFB1D00221900012000F0C8FF002000F076
:4009400049FFFB1D1B781800BD4602B080BDC04680B500AF054B01221A608023DB02180002F02AF8C046BD4680BDC04694110020F0B597B004AF62B6012002F0E3F8002021
:4009800002F0AAF8002002F04FF8002002F070F8FA235B00180001F0BDFE012002F09CF8012002F041F8012002F062F800F028FD02F0F0F802F09EFA02F0B6FBFFF78AFF99
:4009C000D04B180001F0C8F8022001F0C5FFCE4B180002F02DFA012002F088F9002002F035F9012002F0B8F9002002F057F9012002F0E8F9002002F001F900237B643F2394
:400A0000FB1800221A70C14B0022DA70BF4B00221A713E23FB1800221A703D23FB1800221A703C23FB1800221A7000233B64B84B1B68012B00D084E0012002F083FB031E11
:400A400012D0002002F0A2FB03009AB2B14B1A80B04B1B881A00B049B04B180003F066FAAE4B180002F09CF83423FB1800221A703423FB1800225A700023BB63FFF744FF6C
:400A800003001A00A64B1A70A54B1B781F221340DAB2A34B1A70A24B1B781D003E23FB181C783D23FB181B783C22BA1812789D4938000192009323002A0003F037FA3B002E
:400AC000180002F06DF83B6C01333B64964B1B78012B24D1012001F0FFFFFFF7CFFE934B1B78012B13D1012001F09EFF904B1B78DBB2002B22D101F0E1FF03005A42534158
:400B0000DBB2180001F0B4FFFFF766FD16E0894B1A787E4B1A71002001F086FF0EE002F003F803005A425341DBB2180001F0D4FF012001F079FF012001F09AFF744B002240
:400B40001A60794B1B78012B00D032E16F4B5B79012B4ED16D4B1B78012B29D1754B1B781A006A4BDB7802339A420CDD714B1A78664BDB789A4221D9002002F023F9012065
:400B800002F03CF81AE06B4B1B781A005F4BDB78023B9A4212DC674B1A785C4BDB789A420CD8012002F00EF9002002F027F805E0012002F007F9002002F020F8534B5B78D2
:400BC0005A425341DBB2180002F090F84F4B5B78180002F063F84D4B9B785A425341DBB2180002F0B9F8494B9B78180002F056F8D6E2464B5B79002B12D1012002F0E2F89A
:400C0000002001F0FBFF012002F070F8002002F045F8012002F0A0F8002002F03FF8BFE23A4B9B79012B00D0BAE2384B5B79002B12D1012002F0C6F8002001F0DFFF0120D3
:400C400002F054F8002002F029F8012002F084F8002002F023F8A3E22C4B5B79012B00D09EE22A4B1B78012B1ED1324BDB88012B16D8304BDB68304A93420DD8234B1B78EB
:400C80005A425341DBB2180002F09CF81F4B1B78180001F0B3FF11E0284B01225A700DE0264B01221A7009E0184B1B78002B05D1012002F087F8002001F0A0FF134B5B7872
:400CC000012B3DD11B4B5B89012B16D8194B5B69194A93420DD80D4B5B785A425341DBB2180002F003F8094B5B78180001F0D6FF30E0124B0122DA702CE0104B01229A70B1
:400D000028E0C046650300005109000058230020941100209C110020845B0100F42200209B110020B45B01009A110020981100209C23002028230020E70300006023002059
:400D4000C34B5B78002B05D1012001F0CFFF002001F0A4FFBE4B9B78012B1ED1BD4B1B89012B16D8BB4B1B69BB4A93420DD8B84B9B785A425341DBB2180001F0EDFFB44BF0
:400D80009B78180001F062FF0AE2B44B01225A7106E2B24B01221A7102E2AD4B9B78002B00D0FDE1012001F0D7FF002001F04EFFF6E1AB4B1B78112B00D9F0E19A00A94B68
:400DC000D3181B689F467B6C112B08D03B6C042B05DD00233B64A44B180001F0E1FE7B6C112B2CD0012001F0EDFF012001F0B4FF002001F003FF002001F028FF9B4B180029
:400E000001F0CEFE3B6C022B09D1002001F06EFF012001F043FF964B180001F0C1FE3B6C042B25D1002001F0CDFF012001F0E6FE11237B648F4B180001F0B2FE18E07B6CA8
:400E4000112B15D1012001F087FF002001F04EFF002001F0B7FF002001F0F8FE012001F01DFF012001F0CAFE834B180001F098FE7B4B1B781E0001F061FF03001C0001F03F
:400E800093FF03001D0001F0C5FF03001A007B6C7A497B48029201950094320003F046F8774B180001F07CFE7AE17B6C092B04D03B6C042B01DD00233B647B6C092B1DD013
:400EC000012001F013FF002001F098FE002001F0E5FE3B6C022B05D1002001F03DFF012001F0B4FE3B6C042B1DD1002001F06AFF012001F083FE09237B6414E07B6C092B8D
:400F000011D1012001F0F2FE002001F025FF002001F058FF002001F0C1FE012001F096FE012001F06BFE4E4B1B781E0001F006FF03001C0001F038FF03001D0001F06AFF3E
:400F400003001A007B6C4D494D48029201950094320002F0EBFF4A4B180001F021FE1FE17B6C082B04D03B6C022B01DD00233B647B6C082B17D0012001F024FF012001F00F
:400F8000B5FE002001F08AFE002001F037FE3B6C022B1DD1002001F0DFFE012001F056FE08237B6414E07B6C082B11D1012001F009FF012001F09AFE002001F0CDFE0020CF
:400FC00001F01CFE002001F069FE012001F03EFE234B1B781E0001F0B1FE03001C0001F0E3FE03001D0001F015FF03001A007B6C22492348029201950094320002F096FFFA
:401000001F4B180001F0CCFDCAE07B6C102B04D03B6C022B01DD00233B647B6C102B31D0012001F0CFFE012001F096FE002001F00DFE002001F0E2FD3B6C022B37D10020B0
:4010400001F054FE012001F029FE10237B642EE05823002028230020E7030000602300209B110020985C0100E85B0100085C0100205C0100345C0100485C0100605C010067
:40108000F42200207B6C102B11D1012001F09AFE012001F061FE002001F028FE002001F0D5FD012001F0FAFD002001F0A7FD404B1B781E0001F042FE03001C0001F074FE14
:4010C00003001D0001F0A6FE03001A007B6C39493948029201950094320002F027FF364B180001F05DFD5BE07B6C002B04D03B6C032B01DD00233B647B6C002B1DD03B6C0C
:40110000012B05D1012001F05DFE002001F076FD3B6C022B05D1012001F01EFE002001F095FD3B6C032B1DD1012001F0DFFD002001F0B4FD00237B6414E07B6C002B11D1E4
:40114000012001F03FFE012001F006FE012001F0CDFD002001F07AFD002001F09FFD002001F04CFD124B1B781E0001F0E7FD03001C0001F019FE03001D0001F04BFE030038
:401180001A007B6C0B490C48029201950094320002F0CCFE084B180001F002FD00E0C046FFF79EF9FFF7DEF903F018FB3FE4C0469B110020605C0100F422002080B582B0EA
:4011C00000AF786039603A687B680021180002F0A5FEC046BD4602B080BDC04680B500AF0A4B03221A600A4B03221A60094B802212061A60084B04221A60084B00221A6048
:40120000012000F00DF8C046BD4680BD300030403000314000003A4000033A40000E3F4080B584B000AF0200FB1D1A700B4B1B68FB60FB1D1B78002B05D0FB6880221206D5
:401240001343FB6003E0FB685B005B08FB60034BFA681A60C046BD4604B080BD80033A4080B500AF02F016FE03001B680C2B00D1FEE7FEE780B584B000AF78600F4B1A682F
:401280007B68D3181A000E4BD31A802B09DC0B4B1B68FB60094B1A687B68D218074B1A6007E002F0F7FD03000C221A6001235B42FB60FB681800BD4604B080BDF40B0020AB
:4012C000B023002080B586B000AF224B7B61224B3B61204B7B6135E03B691B68FB603B695B68BB603B699B683B6000237B600CE0FB681A68BB681A60BB680433BB60FB68A9
:401300000433FB607B6804337B607A683B689A42EED13B69DB683B6000237B6008E0BB6800221A60BB680433BB607B6804337B607A683B689A42F2D13B6910333B617B69EA
:40134000013B7B617B69002BC6D102F0A9FDFFF70FFBFEE701000000C05F010080B582B000AF154B144A126801218A431A6000237B600FE07B68032B04D8104B7A689200B1
:40138000D35800E00E4B0F4A796889008B507B6801337B607B682F2BECD9FEF7CDFE0A4B00221A60044B044A126801210A431A60C046BD4602B080BD00001040000000003E
:4013C0006112000000000020C000002080B500AF00F058F8C046BD4680BDC04680B500AF064B064A1268802109060A431A6000F033F800F039F8C046BD4680BD00002540AD
:4014000080B500AF064B1B78002B04D1FFF7DEFF034B01221A70FFF7E1FFC046BD4680BDA411002080B500AF0A2001F03BF900F021F8074B064A1268520052081A60054B57
:4014400000221A600A2001F043F9C046BD4680BD00002540880F254080B500AF0A2001F00BF9C046BD4680BD80B500AFC046BD4680BDC04680B500AF00F072F8C046BD4612
:4014800080BDC04680B500AF214B802212011A60204B214A1A60214B214A1A60214B00221A60214B00221A60204B1D4A1A60204B00221A600A2001F0F5F801210A2001F021
:4014C00087F81C4B19000A2001F05CF81A4B00221A601A4B00221A60194B00221A60194B00221A60184B00221A60184B00221A60174B10221A70174B00221A80164B0022BF
:401500001A60164B00221A60C046BD4680BDC046000025406000254077080080000325400701008004032540100325400002254004022540F5320000C80E2540880E2540BC
:40154000480F2540080F2540C80F2540880F25406623002072230020782300206C23002080B500AF054B00221A60054B00221A60044B10221A70C046BD4680BD6800254059
:401580006C0025406623002080B500AF124B124A1268520052081A60104B00221A60104B00221A600F4B0F4A12680F490A401A600E4B00221A600E4B00221A600D4B1022C9
:4015C0001A70054B044A1268802109060A431A60C046BD4680BDC04600002540680025406C00254060002540FF5CFFFF880F2540C80F25406623002080B500AF074B1B68CB
:40160000DB0FDBB21A00064B1A70054B1B78002B01D0FFF707FFC046BD4680BD00002540AC11002080B500AF044B1B78002B01D0FFF7D4FEC046BD4680BDC046AC11002028
:4016400080B588B000AFF860B9607A600423FB612E4B1B78DBB2102B53D10A2001F022F82B4B1B680122134002D00823FB6145E07B68FA22920053437B61264B00221A6056
:40168000254B264A1A60264B264A1A60FB685B00FF221340FB60BB68002B03D11B4B24221A7006E0194B25221A70FB6801221343FB601D4BFA681A601C4B02221A60164B94
:4016C0001A680823FF331340BB61194B1B68C0221340BA691343BB611423FB18180000F0EDF90200BB691343BB61BB69002BE6D0BB69180000F060F90300FB610A2000F018
:40170000BBFFFB691800BD4608B080BD6623002064002540080F2540000F254017030000C00F2540ED0F00004002254068002540400F254080B588B000AFF860B9607A6040
:401740000423FB61204B1B78DBB220221340DBB2002B34D07B68FA22920053437B61FB685B00FF221340FB60BB68002B03D1164B24221A7006E0144B25221A70FB6801228B
:401780001343FB6000F0FCF8104BFA681A60104B1A680823FF331340BB611423FB18180000F08CF90200BB691343BB61BB69002BEDD0BB69180000F0FFF80300FB61FB6953
:4017C0001800BD4608B080BD6623002040022540000F254080B586B000AF786004237B61194B1B78DBB220221340DBB2002B26D07B68FA2292005343FB60144B144A1268A0
:4018000020210A4001D0182200E010221A60114B1A681223FF3313403B610C23FB18180000F04CF902003B6913433B613B69002BEDD03B69180000F0BFF803007B617B6979
:401840001800BD4606B080BD662300206800254064002540000F254080B586B000AF7860396004237B61164B1B78DBB220221340DBB2002B1FD03B68FA2292005343FB601A
:40188000104B7A681A60104B1A680823FF3313403B610C23FB18180000F010F902003B6913433B613B69002BEDD03B69180000F083F803007B617B691800BD4606B080BDD9
:4018C0006623002040022540000F254080B588B000AFF860B9607A600423FB61224B1B78DBB220221340DBB2002B38D07B68FA22920053433B611D4B1A680223FF33134001
:40190000BB611B4B1B68042213407B611023FB18180000F0D3F80200BB691343BB61BB69002B02D17B69002BE5D07B69002B07D0104B1B68DAB2BB681A700D4B0E4A1A608F
:40194000BB69180000F038F80300FB61FB69002B05D1FB68002B02D1084B04221A60FB691800BD4608B080BD66230020000F2540C00F254040032540ED0F000068002540BD
:4019800080B582B000AF01237B60094B1B682022134001D0082300E000237A6813437B60044B7A681A60C046BD4602B080BDC046640025406800254080B584B000AF786065
:4019C0000023BB607B68002B05DA80231B06FB600123BB605AE07B68C022134008D01023FB60314B00221A60304B10221A704DE07B680122134018D00123FB602B4B1B7861
:401A0000DBB208221340DBB2002B0BD0284B1A688023DB05134001D10123BB60234B10221A7033E00123BB6030E07A6880235B00134005D080235B00FB600123BB6025E0FC
:401A40007B680222134002D00223FB601EE00023FB607B681022134003D0144B10221A7014E0124B1B78DBB208221340DBB2002B0CD00E4B1B78DBB201221340DBB2002BBF
:401A800001D0252200E02422084B1A70BB68012B02D1FFF779FD02E0064B074A1A60FB681800BD4604B080BD680025406623002060002540000F25401703000080B584B0DE
:401AC00000AF78600A23FB1801221A800023FB607B681B68002B11D00A23FB181B88180000F03EFE7B681B685A1E7B681A607B681B68002B02D180231B06FB60FB68180012
:401B0000BD4604B080BDC04680B500AF094B00221A70094B00221A70084B00221A7000F013F8074B00221A70064B00221A70C046BD4680BDA32300209C230020A2230020E2
:401B4000882300209023002080B500AF00F07CFCC046BD4680BDC046B0B594B004AF78603E23FB1800221A802823FA183D4B1000190014231A0002F0C8F93B4B1B78002B75
:401B800004D1FFF7C1FF384B01221A707B68002B5CD0364B7A681A603E23FB181B88002B29D11023FB181C22BA185A601023FB182022BA181A601023FB1800221A812023ED
:401BC000FB181B221A802023FB181B225A802023FB1804221A711C23FB1800221A703E23FC180E23FA181023FB181100180002F0D1FE030023803E23FB181B88002B29D1BF
:401C00003E23FC182823FD18AE231A0118491948194B0293194B0193052300932B0002F00FFE030023803E23FB181B88002B11D1134B01221A703E23FC18124B23221C2122
:401C400018000FF0AFFB0300238003E03E23FB1801221A803E23FB181B881800BD4610B0B0BDC046EC5C0100AD1100208C230020C8000020E51F00007902000000680100BE
:401C800098230020085D010090B585B000AF0200FB1D1A70FB1D1B78022B04D90E23FB1801221A804AE0294B1B78042B41D1284B1B78DBB21A00042313403AD1FB1D1B7811
:401CC000002B0BD1234B00221A82224B5B6820221A80204B5B6850225A8010E0FB1D1B78012B0CD11B4B96221A821A4B5B68C822D2001A80174B5B688022D2015A80164B7A
:401D0000FA1D12781A700E23FC18124B18000CF059FF030023800E23FB181B88002B0DD10B4B1B78DBB204221343DAB2084B1A7004E00E23FB180422FF321A800E23FB181C
:401D40001B881800BD4605B090BDC04698230020A3230020480C0020A223002080B500AF0CF0E0FF054B1B78DBB208221343DAB2024B1A70C046BD4680BDC046A32300203F
:401D800080B584B000AF78600A00FB1C1A700023BB60BB68002B20D07B689A79BB681A700F23FB1800221A7012E00F23FB181B780133BA68D3180F22BA18127879688A5C19
:401DC0001A700F23FB181A780F23FB1801321A700F23FB181B78052BE7D9C046BD4604B080BDC04680B582B000AF78607B681B789AB27B6801331B789BB21B029BB2134351
:401E00009BB21800BD4602B080BDC04690B585B000AF78600F23FB1800221A707B689B890F22934232D17B68181D7A680F23FC18402300210FF0CEFA030023700F23FB18DD
:401E40001B78002B1AD17B685B681800FFF7CAFF03001A00022313409BB2002B07D00F4B1B687968822252001000984706E00B4B1B6879680622FF3210009847084B1B78E7
:401E8000DBB201229343DAB2054B1A700F23FB181B781800BD4605B090BDC0468C230020A323002090B585B000AF78600F23FC187B681800FFF7AAFF03002370154B1B781C
:401EC000DBB21A00012313401FD10F23FB181B78002B16D00823FB1812229A707B689A890823FB181A800823FB180F22BA181278DA700823FA187B68110018680DF0D8FFF7
:401F000003E07B6818680EF05DF8C046BD4605B090BDC046A323002080B582B000AF7860C046BD4602B080BD80B500AF044B00225A70034B00221A70C046BD4680BDC046C6
:401F4000A023002080B582B000AF7860C046BD4602B080BD80B500AFC046BD4680BDC04680B584B000AF78600E23FB1800221A707B689B79002B1CD10F23FB1800221A7088
:401F800012E00F23FB181B787A68D35C002B04D00E23FB1801221A700BE00F23FB181A780F23FB1801321A700F23FB181B78052BE7D90E23FB181B781800BD4604B080BDE7
:401FC00080B582B000AF0200BB1D1A80C046BD4602B080BD80B582B000AF7860C046BD4602B080BD80B588B000AF02003960FB1D1A70C44B1B78DBB201221343DAB2C14BE0
:402000001A70FB1D1B78412B00D199E123DC212B00D1EFE00DDC022B00D1C1E002DC012B3BD0E8E1052B00D1BFE0062B00D1C1E0E1E1272B00D117E106DC242B00D109E157
:40204000262B00D11CE1D6E1282B00D114E12A2B00D104E1CFE14F2B00D1BFE10BDC432B00D18CE100DA87E14C2B00D1A4E14E2B00D1B5E1BFE1572B00D1B3E106DC502B65
:4020800000D1B1E1542B00D19BE1B4E1712B00D132E1FA2B00D199E1ADE11023FB1807221A701023FB1800225A701023FB18180004F07CFB1023FB1807221A701023FB18AB
:4020C00001225A701023FB18180004F06FFB0B23002B01D002F07AFB8B4B1B681800FFF73FFF031E11D0884B1B68180002F07AFB854B1B6800211800FFF742FE824B1B6818
:4021000001211800FFF73CFE36E0804B1B781A003F231A407E4B1B789901FC231B010B401A437C4B1B781903F8235B020B401A43794B1B785904FE231B040B401343BB61CB
:40214000BB69DAB2754B1A70BB691B0ADAB2734B5A70BB691B0CDAB2704B9A706F4B180002F040FB6D4B00211800FFF709FE6B4B01211800FFF704FE03200CF0C7FB0C2387
:40218000FB183F221A700C23FB1800225A700C23FB1818000CF0D8FB614B04221A702AE13B681800FFF7CEFE25E13B681A785D4B1A7020E13B687B617B691B78002B00D087
:4021C00014E17B695B78002B0BD1574B0222DA80554B24229A80544B544A1A607B69524A5A60484B1B78DBB201229343DAB2454B1A70FBE0434B1B78DBB21A002023134090
:4022000000D0F5E04A4B1B78102B02D1484B0522DA70484B1B78464A110018000CF094FC03001A000A23FB181A800A23FB181B88002B06D0404B1B680A22BA181100362006
:402240009847304B1B78DBB201221343DAB22D4B1A70CDE03B685A78384B1A70CBE03B681800FFF7B7FEC6E03B681800FFF7B2FE2B4B02221A70BEE0294B04221A70BAE016
:40228000274B1B78022B00D1B4E01E4B1B78DBB21A000123134000D1ACE01A4B1B78DBB21A00042313400BD01D4B03221A70154B1B78DBB204229343DAB2124B1A7099E09D
:4022C000104B1B78DBB21A00082313400BD0144B04221A700B4B1B78DBB208229343DAB2084B1A7086E00E4B1B78032B00D081E00B4B04221A707DE03B681B881800FFF79A
:402300005FFE78E0A3230020640C00207CF1FF0F7DF1FF0F7BF1FF0F78F1FF0F5C0C0020982300209C230020B0110020A80B0020940D0020A02300208C230020902300204E
:402340003A4A3B681000190002231A0001F0DDFD374B00221A70354B1B789E339A00354BD3180133344A1000190004231A0001F0CCFDFFF7EFFD3EE0FFF7D6FD3BE03B688F
:402380005B88162B05D81E23FB183A6852881A8003E01E23FB1817221A801E23FB1819883B681A8800231204120C1B0C1B04134318000DF087FD1EE03B681800FFF772FDC4
:4023C00019E03B681800FFF7A7FD14E01B4B1B7801221343DAB2194B1A700CE0C0460AE0C04608E0C04606E0C04604E0C04602E0C04600E0C046124B1B78DBB21A00112370
:4024000013400ED00E4B1B78DBB201229343DAB20B4B1A700B4B1B68FA1D1278396810009847C046BD4608B080BDC046A02300209C230020006801009423002088230020B2
:40244000A32300208C23002080B500AFC046BD4680BDC04690B58BB000AF78602723FC1800F0CFFE03002370194B1A680C23FB181A60184B1A680C23FB185A607B68033B1B
:40248000154AD35C1A000C23FB189A60134B1A680C23FB18DA601C23FB18114A1A600C23FA181C23FB185A600E4B1C22BA181A600D4B0E4A1A600B4B1B682723FB181B7892
:4024C000180000F0A2FEC046BD460BB090BDC04608010B4000010B40385F010030001040B6EA000008001040040010401700008080B584B000AF78600023FB60154B154A55
:40250000126801210A431A60134B144A1A60144B134A1268802109020A431A607B68002B12D01023FB600CE0012000F019F900F019F8031E02D00023FB6005E07B68013B56
:402540007B607B68002BEFD1FB681800BD4604B080BDC04660F02E4078002E400220000010002E4080B582B000AF054B1B68012213407B607B681800BD4602B080BDC046CC
:402580000C002E4080B584B000AF02003960FB1D1A7080239B05FB60FB1D1B781F2B02D9002000F0ABF8FB1D1B7810339B00FA68D3181B68BB60FB1D1B7810339B00FA68CC
:4025C000D3183A681A60BB681800BD4604B080BD90B587B000AF0200FB1D1A70BB1D0A1C1A70BB1D1B78032B02D9002000F086F8FB1D1B781F2B02D9002000F07FF8FB1DDD
:402600001B7803221340DB0006337B611323FC1800F0F7FD03002370FB1D1B789B08DBB29B00144A944663441B68FB6003227B699A401300DA43FB681340FB60BB1D1A781A
:402640007B699A401300FA681343FB60FB1D1B789B08DBB29B00074A94466344FA681A601323FB181B78180000F0CFFDC046BD4607B090BD00E400E080B582B000AF0200B9
:40268000FB1D1A70064BFA1D12781F210A40012191400A001A60C046BD4602B080BDC04600E100E080B582B000AF0200FB1D1A70064BFA1D12781F210A40012191400A0093
:4026C0001A60C046BD4602B080BDC04680E100E080B582B000AF0200FB1D1A70064BFA1D12781F210A40012191400A001A60C046BD4602B080BDC04680E200E080B582B0CD
:4027000000AF0200FB1D1A7001BEC046BD4602B080BDC04680B582B000AF786009E00D4B1B68180000F064FD7B680B4A944663447B607A6880231B029A42F0D8074B1B68BF
:402740007A685343180000F053FDC046BD4602B080BDC046A80D00200080FFFFA00D002080B582B000AF0200BB1D1A80BB1D1B88044A12785343180000F03AFDC046BD46B0
:4027800002B080BDA40D002080B500AF0F4B0F4A126801218A431A600C4B0C4A126802218A431A600A4B0A4A126830218A4310210A431A60064B064A126807218A430121E3
:4027C0000A431A60C046BD4680BDC04600F02E4000FF2E4080B500AF0F4B0F4A126802218A431A600D4B0D4A126807218A4302210A431A60094B094A126830218A432021F8
:402800000A431A60044B044A126801210A431A60C046BD4680BDC04600F02E4000FF2E4080B500AFFFF7B0FF044B044A1268802109060A431A60C046BD4680BD00F02E40FF
:4028400080B584B000AF78600C4B1B6801221340FB607B68002B02D0012B03D005E0FFF793FF06E0FFF7B6FF03E00020FFF746FFC046FB681800BD4604B080BD00F02E40CF
:4028800090B583B000AFFC1D00F0BBFC03002370074B074A1268C02109020A431A60FB1D1B78180000F0B1FCC046BD4603B090BD00010B4080B500AF054B1A68C0231B0260
:4028C000134001D0012300E000231800BD4680BD00010B4090B583B000AFFC1D00F091FC030023700D4B0D4A12680D490A408021C9010A431A60094B084A126808490A40E0
:40290000802109020A431A60FB1D1B78180000F07CFCC046BD4603B090BDC04600010B40FF3FFFFF80B582B000AF78607B68022B02D90020FFF7E2FE064B1A687B68DB0002
:402940000133DA401300012213401800BD4602B080BDC04610020B4080B582B000AF7860144B144A11687A680A431A607B680122134005D0C0460020FFF7D4FF031EFAD03E
:402980007A6880235B00134005D0C0460120FFF7C9FF031EFAD07A6880235B02134005D0C0460220FFF7BEFF031EFAD0C046BD4602B080BD10020B4090B585B000AF786019
:4029C0000B23FC1800F01DFC03002370FFF772FF031E04D00123FB60FFF77CFF01E00023FB607B680D4A13407B600D4B0C4A12680C4911407A680A431A60094B1B68FB6832
:402A0000012B01D1FFF73CFF0B23FB181B78180000F0FBFBC046BD4605B090BD0404040010020B40FBFBFBFF80B584B000AF0200FB1D1A700D4B1B68DAB20F23FB187F2129
:402A40000A401A70FB1D1B78DB01D9B20F23FB180F22BA1812780A431A70044B0F22BA1812781A60C046BD4604B080BD0003044080B584B000AF0200FB1D1A700E4B1B6898
:402A8000DAB20F23FB1801218A431A70FB1D1B7801221340D9B20F23FB180F22BA1812780A431A70044B0F22BA1812781A60C046BD4604B080BDC0460004044080B500AFF5
:402AC000044B1B68DBB201221340DBB21800BD4680BDC0460404044080B584B000AF0200FB1D1A700F4B1B68DAB20F23FB1840218A431A70FB1D1B789B01DBB2402213401F
:402B0000D9B20F23FB180F22BA1812780A431A70044B0F22BA1812781A60C046BD4604B080BDC0460003044080B500AF044B1B68402213409B09DBB21800BD4680BDC046CA
:402B40000403044080B584B000AF0200FB1D1A700F4B1B68DAB20F23FB1820218A431A70FB1D1B785B01DBB220221340D9B20F23FB180F22BA1812780A431A70044B0F222B
:402B8000BA1812781A60C046BD4604B080BDC0460000044080B500AFC046BD4680BDC04680B584B000AF78600F23FB1801221A700E23FB187A6812781A7015E00E23FB1876
:402BC0001B78180000F02CFB0F23FB181B787A68D2180E23FB1812781A700F23FB181A780F23FB1801321A700E23FB181B78002BE4D1C046BD4604B080BDC04680B584B01E
:402C000000AF0200FB1D1A700F4B1B68DAB20F23FB1840218A431A70FB1D1B789B01DBB240221340D9B20F23FB180F22BA1812780A431A70044B0F22BA1812781A60C046C2
:402C4000BD4604B080BDC0460002044080B584B000AF0200FB1D1A700F4B1B68DAB20F23FB1808218A431A70FB1D1B78DB00DBB208221340D9B20F23FB180F22BA1812783D
:402C80000A431A70044B0F22BA1812781A60C046BD4604B080BDC0460002044080B584B000AF0200FB1D1A700F4B1B68DAB20F23FB1804218A431A70FB1D1B789B00DBB2E8
:402CC00004221340D9B20F23FB180F22BA1812780A431A70044B0F22BA1812781A60C046BD4604B080BDC0460002044080B584B000AF0200FB1D1A700F4B1B68DAB20F2334
:402D0000FB1810218A431A70FB1D1B781B01DBB210221340D9B20F23FB180F22BA1812780A431A70044B0F22BA1812781A60C046BD4604B080BDC0460003044080B500AF6A
:402D4000044B1B68102213401B09DBB21800BD4680BDC0460403044080B584B000AF0200FB1D1A700F4B1B68DAB20F23FB1808218A431A70FB1D1B78DB00DBB20822134028
:402D8000D9B20F23FB180F22BA1812780A431A70044B0F22BA1812781A60C046BD4604B080BDC0460003044080B500AF044B1B6808221340DB08DBB21800BD4680BDC04641
:402DC0000403044080B584B000AF0200FB1D1A700F4B1B68DAB20F23FB1820218A431A70FB1D1B785B01DBB220221340D9B20F23FB180F22BA1812780A431A70044B0F22A9
:402E0000BA1812781A60C046BD4604B080BDC0460003044080B500AF044B1B68202213405B09DBB21800BD4680BDC0460403044080B582B000AF786000F050F87B6818006F
:402E400000F00AF8032000F015F800F03BF8C046BD4602B080BDC04680B582B000AF7860034B7A681A66C046BD4602B080BDC0460000002090B585B000AF0200FB1D1A7096
:402E80000623FB600B23FC1800F0BBF9030023700B4B0B4A1268C0218A431100FA1D1078FA68904002000A431A600B23FB181B78180000F0AAF9C046BD4605B090BDC04604
:402EC00008E400E080B500AF034B802252001A60C046BD4680BDC04600E100E080B500AF034B802252001A60C046BD4680BDC04680E100E080B500AF064B1B78002B04D164
:402F000000F00AF8034B01221A7000F0F1F8C046BD4680BDBC11002080B584B000AF03210F20FFF755FB584B19000F20FFF72AFB564B01221A60564B1B68002B01DA5549DB
:402F400000E05549554B554A12680A431A60544B544A1A60544B554A1A60554B00221A60544B554A1A60554B554A1A60554B554A1268802149020A431A60534B00221A6091
:402F8000524B00221A60524B01221A60514B1B687B607B68504A13407B607B68012213437B604C4B7A681A600023FB6065E08023DA00DC239B0113407B60FB689B00474A37
:402FC000944663447A681A608023DB00012213400AD03D4B3C4A11680120FA68904002001204120C0A431A608023DB00022213400AD0364B354A11680120FA6890400200B2
:403000001204120C0A431A608023DA0080239B00134003D080235B00BB6002E080235B01BB608023DA0080235B00134005D12C4BFA6852000021D15209E0BB68002B00DA7B
:4030400001335B1019B2264BFA685200D152BB68244A53438022D20094466344002B02DA214A94466344DB121BB219001F4BFA689200D150FB680133FB60FB68002B96D057
:40308000C046BD4604B080BDD131000020003A4080033A40400210534002005300003A4004003A40F400008018003A400000FF071C003A4010003A40FF03020014003A408D
:4030C0000200020000033A4028023A4038023A4018023A4030003A40FFFFFFDF80003A40A823002010270000FF070000A423002080B500AF0A4B1B68002B0EDBC046094BAA
:403100001B68002BFBDB064B054A1268802109060A431A600A20FFF723FBC046BD4680BD00003A4008023A4080B500AF044B044A1268802149020A431A60C046BD4680BD04
:4031400004003A4080B584B000AF78600023FB607B680322134011D00B4B1B6801221340FB60FB68002B03D17B6802221340F3D1FB68002B02D0044B01221A60FB68180036
:40318000BD4604B080BDC04610023A4080B584B000AF78607B68002B02D00020FFF7AEFA7B68002B09D17B689B00084A944663441B681B041B0CFB6001E00023FB60FB68DC
:4031C0001BB21800BD4604B080BDC04680013A4080B582B000AF054B1B687B60034B7A681A60C046BD4602B080BDC04610023A400230800803D00138FDD1C046C046C04657
:403200007047EFF3108072B6704780F31088704700000000000000000000000000000000FEB5494652465B460EB407462E4909688A462E4A12682E48022100F0B5FC030053
:403240002A480068C0182A4900F0AEFC06001F3EB346234A126801219140C9430C0001250026FFF7CEFF814651460B6823400B6058460430FFF7BCFF3800F0402840904070
:403280000B68234003430B605846FFF7B1FF0136072EF1D900200130012090400B68234003430B6058460630FFF7A2FF4846FFF7ACFFC046C046C0460EBC894692469B4646
:4032C000FEBDC046C046C046C046C046C046C046C046C046C046C046C046C046C046C046B8110020B00D0020B40D00209C0D00208025000080B582B000AF00233B60C04BC5
:403300001B68002B02D0BE4B1B689847BD4B1B680122134002D0BC4B00221A60BB4B1B78DBB220221340DBB2002B38D0B84B1A6880235B0013400AD0B64B1B889BB2C0222E
:40334000920013439AB2B34B1A8001233B60B04B1B68012213400AD0AE4B1B889BB29022920013439AB2AB4B1A8001233B603B68002B14D0A54B1B78DBB201221340DBB211
:40338000002B01D0012300E00223A24A128892B213439AB29F4B1A809C4B00221A709B4B1B78DBB220221340DBB2002B00D1A4E1974B1B681022134018D0974B10221A605C
:4033C000924B1B78DBB201221340DBB2002B01D0012300E002238F4A128892B213439AB28C4B1A80894B10221A7090E1874B1B78DBB208221340DBB2002B29D0844B1B686B
:40340000022213400ED0844B02221A60814B1B889BB28822920013439AB27E4B1A8001233B6015E0794B1B78DBB201221340DBB2002B03D0754B25221A7009E0734B2422B6
:403440001A70764B1B68002B02D0754B10221A606E4B1B78DBB204221340DBB2002B00D113E16A4B1B78DBB201221340DBB2002B5BD06C4B1B680822134033D06A4B1A6827
:403480006A4B1B681F211940694B1B68CB18D31A7B607B68102B02D910237B601EE07B68002B1BD1634B634A126863490A401A6010237B6001233B6010E0604B1A685C4B84
:4034C0001B68D2185E4B1B68DBB21370584B1B685A1C574B1A607B68013B7B607B68002BEBD11EE04F4B1B680422134019D0534B1A684F4B1B68D218514B1B68DBB21370D4
:403500004B4B1B685A1C4A4B1A60494B1A68464B1B689A4203D24B4B04221A6001E001233B60494B494A1A60AFE0394B1B680222134032D0384B02221A60454B1B681F2217
:403540001A40434B196880231B020B4001D0012300E00023D2183F4B1B689A1A3D4B1A603C4B1A683C4B1A602A4B1B889BB28422920013439AB2274B1A80384B374A12685F
:40358000802149020A431A60344B344A126834490A401A6001233B6077E0324B1B681022134067D020E02B4B1A681C4B1B689A4221D21A4B1B685A1E264B1B689A4205D117
:4035C000294B40221A60164B40221A60274A284B1968204B1B68CB181B78DBB213601D4B1B685A1C1B4B1A60194B1B681F221340102BD8D100E0C0461B4B10221A6044E0B9
:40360000A81100208C0E2540880E2540662300200C0F254072230020000F254074230020880F2540CC0F254084230020080325407823002060002540FFFEFFFF80230020FD
:403640004003254068002540C00F2540ED0F000008022540682300206C23002004022540FFFFFEFF8C0F2540800F2540400225407C230020284B1B684022134005D0274B2A
:403680001A68274B1A6001233B603B68002B3ED0244B244A126824490A401A60234B00221A60234B00221A60224B1B78DBB202221340DBB2002B15D01F4B1B78DBB2012217
:4036C0001340DBB2002B01D0092300E00A231B4A128892B213439AB2184B1A80164B60221A7014E0164B174A126820210A4001D0182200E010221A6009E00F4B1B78DBB2B1
:4037000010221340DBB2002B01D1FDF73DFFC046BD4602B080BDC0468C0F2540682300206C23002060002540FFFEFFFFC80F2540880F2540702300206623002072230020E9
:40374000680025406400254080B582B000AF78600A00BB1C1A80BB1C1A887B681A60C046BD4602B080BDC04680B582B000AF78600A00BB1C1A80BB1C1A887B681A60C04631
:40378000BD4602B080BDC04680B584B000AF494B1B78DBB21B02484A1278D2B21343FB60464B1B78DBB21B02454A1278D2B21343BB60BB68434A934207D1FB68072B04D134
:4037C000414BBB600423FB6009E0BA68D4231B019A4204D1FB68042B01D13B4BBB603B4BBA681A603A4BFA681A603A4B1B78DBB21B02394A1278D2B21343FB60FA68802340
:403800009B019A4202D0FB68002B01D1334BFB60334BFA681A60334B1B78DBB21B02324A1278D2B21343FB60FB68304A934206D0FB682F4A934202D0FB68052B01D12D4BCD
:40384000FB602D4BFA681A602C4B1B681B097B602B4B1B68AA2B29D17B68012B26D9214B1B78DBB20E2B21D1264B1B78DBB29BB21B0299B2244B1B78DBB29AB2BB1C0A43CE
:403880001A80224BBA1C12881A60214B1B78DBB29BB21B0299B21F4B1B78DBB29AB23B000A431A801C4B3A0012881A60C046BD4604B080BDD9F0FF0FD8F0FF0FDFF0FF0FA5
:4038C000DEF0FF0F580B0000580D00006C002E4074002E40DBF0FF0FDAF0FF0F0220000078002E40DDF0FF0FDCF0FF0F0F0F000005050000050F000080002E40EC0F00F0E5
:40390000E00F00F06DF2FF0F6CF2FF0F84002E406FF2FF0F6EF2FF0F94002E4080B582B000AF0200BB1D1A80BB1D1B881800FEF717FFC046BD4602B080BDC04680B582B071
:4039400000AF78607B681800FEF7E4FEC046BD4602B080BD80B500AF00F0ECF8C046BD4680BDC04680B500AF00F0F0F8C046BD4680BDC04680B500AF00F0E8F8044B1800CF
:4039800000F0A2F8002000F0ADF8C046BD4680BD993B000080B500AF034B180000F080F8C046BD4680BDC046993B000080B500AF0223FF331800BD4680BDC04680B582B0DC
:4039C00000AF78602B231800BD4602B080BDC04680B582B000AF78602B231800BD4602B080BDC04680B582B000AF78602B231800BD4602B080BDC04680B582B000AF78605C
:403A00002B231800BD4602B080BDC04680B582B000AF78602B231800BD4602B080BDC04680B582B000AF78602B231800BD4602B080BDC04680B582B000AF78602B2318003C
:403A4000BD4602B080BDC04680B582B000AF78602B231800BD4602B080BDC04680B500AF2B231800BD4680BD80B582B000AF0200FB1D1A702B231800BD4602B080BDC04660
:403A800080B582B000AF786039602B231800BD4602B080BD80B500AFC046BD4680BDC04680B582B000AF786000F050F87B68180000F00AF8002000F015F800F03BF8C0469E
:403AC000BD4602B080BDC04680B582B000AF7860034B7A681A67C046BD4602B080BDC0460000002090B585B000AF0200FB1D1A700623FB600B23FC18FFF783FB0300237074
:403B00000B4B0B4A1268C0218A431100FA1D1078FA68904002000A431A600B23FB181B781800FFF772FBC046BD4605B090BDC0460CE400E080B500AF034B802252011A6036
:403B4000C046BD4680BDC04600E100E080B500AF034B802252011A60C046BD4680BDC04680E100E090B583B000AFFC1DFFF749FB03002370074B074A126804218A431A6071
:403B800030BFFB1D1B781800FFF73FFBC046BD4603B090BD10ED00E080B500AF11F0BEFFC046BD4680BDC046002243088B4274D303098B425FD3030A8B4244D3030B8B42F7
:403BC00028D3030C8B420DD3FF22090212BA030C8B4202D31212090265D0030B8B4219D300E0090AC30B8B4201D3CB03C01A5241830B8B4201D38B03C01A5241430B8B4258
:403C000001D34B03C01A5241030B8B4201D30B03C01A5241C30A8B4201D3CB02C01A5241830A8B4201D38B02C01A5241430A8B4201D34B02C01A5241030A8B4201D30B0298
:403C4000C01A5241CDD2C3098B4201D3CB01C01A524183098B4201D38B01C01A524143098B4201D34B01C01A524103098B4201D30B01C01A5241C3088B4201D3CB00C01A8F
:403C8000524183088B4201D38B00C01A524143088B4201D34B00C01A5241411A00D20146524110467047FFE701B5002000F0F0F802BDC0460029F7D076E7704703460B43A1
:403CC0007FD4002243088B4274D303098B425FD3030A8B4244D3030B8B4228D3030C8B420DD3FF22090212BA030C8B4202D31212090265D0030B8B4219D300E0090AC30BCD
:403D00008B4201D3CB03C01A5241830B8B4201D38B03C01A5241430B8B4201D34B03C01A5241030B8B4201D30B03C01A5241C30A8B4201D3CB02C01A5241830A8B4201D3D3
:403D40008B02C01A5241430A8B4201D34B02C01A5241030A8B4201D30B02C01A5241CDD2C3098B4201D3CB01C01A524183098B4201D38B01C01A524143098B4201D34B01D5
:403D8000C01A524103098B4201D30B01C01A5241C3088B4201D3CB00C01A524183088B4201D38B00C01A524143088B4201D34B00C01A5241411A00D20146524110467047F0
:403DC0005DE0CA0F00D04942031000D34042534000229C4603098B422DD3030A8B4212D3FC22890112BA030A8B420CD3890192118B4208D3890192118B4204D389013AD054
:403E0000921100E08909C3098B4201D3CB01C01A524183098B4201D38B01C01A524143098B4201D34B01C01A524103098B4201D30B01C01A5241C3088B4201D3CB00C01AC4
:403E4000524183088B4201D38B00C01A5241D9D243088B4201D34B00C01A5241411A00D20146634652415B10104601D34042002B00D54942704763465B1000D3404201B514
:403E8000002000F005F802BD0029F8D016E770477047C046014B18687047C046701100200E4B70B500251E000D4CE41AA410A54204D0AB00F35898470135F8E712F06EF8D1
:403EC000084B00251E00084CE41AA410A54204D0AB00F35898470135F8E770BDA85F0100A85F0100A85F0100B05F010030B50024A24208D0035D651C0C5DA34201D0181B34
:403F000002E02C00F4E7002030BD002310B59A4203D0CC5CC4540133F9E710BD03008218934202D019700133FAE770470EB410B59DB002A9029008610B4882248860486136
:403F4000012040421FABC881084804CBA400006801938C8100F06EF80023029A13701DB010BC08BC03B01847FFFFFF7F70110020F0B58E6885B007000C00039201939E42AF
:403F800043D890238A89DB001A423ED003250969236801985B1A029363695D43EB0F5D19029B6D1001331B18AB4200D91D00530510D52900380000F037FB061E14D0029A6F
:403FC0002169FFF7A2FFA289194B134080221343A38112E02A00380000F086FB061E0CD12169380000F0D4FA0C23402201203B60A38940421343A38117E0029B2661F618BE
:4040000026606561019EED1AA560019BB34200D21E0032000399206800F0A5FA0020A3689B1BA36023689E19266005B0F0BDC0467FFBFFFFF0B59FB0029005938B890F0056
:4040400016001B0610D50B69002B0DD1402100F0EBFA38603861002804D10C23029A01381360D8E040237B61002306AD6B6120336B761033AB7634002378002B03D1A31B0F
:40408000049312D003E0252BF9D00134F4E7A31B320039000298FFF76BFF431C00D1B4E06A69049B944663446B612378002B00D1ABE00122002352426A6002A95432521874
:4040C00001342B60EB60AB601370AB65534E21780522300000F03CFA002807D00123801B83402A68013413432B60EFE72B68DA0604D55322202102A8121811701A0704D510
:4041000053222B2102A81218117022782A2A03D0099B00200A210EE0059A111D12680591002A01DB099204E05242EA60022213432B6001340BE02278303A092A04D84B43C5
:4041400001349B180120F6E7002800D0099323782E2B1ED163782A2B0AD1059B02341A1D1B680592002B01DA01235B42079310E000230A201A0001346B60217830390929C4
:4041800004D84243013452180123F6E7002B00D00792234E21780322300000F0D9F9002806D04023801B83402A68013413432B60217806221B48661C297600F0C9F90028C3
:4041C00012D0194B002B06D10722059B073393430833059314E005AB00933A00134B2900029800E000BF07E005AB00933A000F4B2900029800F08AF80390039B013304D06E
:404200006B69039A9B186B6135E7BB890B985B0601D5012040421FB0F0BDC046685F01006E5F0100725F010000000000713F0000F7B5170001938A680B6900900C009342E9
:4042400000DA130022003B6043321278002A01D001333B6023689B0602D53B6802333B60062523681D401ED0230043331B785A1E9341226892061CD53020E1184331087094
:4042800021005A1C45310978A2184332023311700FE022000123193201990098089EB047431C0ED00135E3683A689B1A9D42F0DBDAE72200019943320098089DA847431C00
:4042C00002D10120404220E006232068E1683A6803400025042B03D18D1AEB43DB171D40A3682269934201DD9B1AED180027BD420AD0220001231A3201990098089EB047B9
:40430000431CDED00137F2E70020FEBDF0B58BB006920A0043320793059004920A7E0C00109B6E2A00D1ABE011D8632A22D009D8002A00D1B5E0582A00D0C5E045310A70D5
:40434000814A4FE0642A1DD0692A1BD0BCE0732A00D1AAE009D86F2A29D0702A00D0B3E0202209680A43226037E0752A1FD0782A33D0A9E00E001A684236111D19601368C7
:404380003370A4E021681A68080606D4490604D5111D19600023D55E02E0111D19601568002D3BDA2D23049A6D42137036E021681A68080606D4490604D51568111D196001
:4043C000ADB202E0111D196015685F4B227E039308276F2A1DD00A271BE022007821453211705A4A19680392081D226818600D68100602D4500600D5ADB2D30702D5202324
:404400001A4322601027002D03D1202322689A4322602300002243331A7002E00A274A4B03936368A360002B09DB0422216891432160002D05D1049E002B11D07BE0002D9C
:4044400079D0049E28003900FFF734FC039B013E5B5C280033703900FFF7A6FB051EF1D1082F09D12368DB0706D563682269934202DC3023013E3370049B9B1B23612BE03B
:4044800009681A68080607D4490605D5111D19601368A28A1A8004E0111D1960136862691A600023049E236116E01A68111D1960166800216268300000F04AF8002801D098
:4044C000801B6060636803E0260042363270012323610023049A1370079B09AA00932100069B0598FFF7A4FE431C02D10120404227E02369320006990598079DA847431CE0
:40450000F4D0236800259B070FD4099BE068984217DA180015E022000123193206990598079EB047431CE1D00135E368099A9B1A9D42F0DBE9E72600039B42361B78337080
:404540008EE70BB0F0BDC046795F01008A5F0100C9B28218904204D003788B4202D00130F8E70020704710B5884202D98B18984201D3002305E09B1A013A08D3995C815481
:40458000FAE7934203D0CC5CC4540133F9E710BD70B50500002944D00C1F2368002B00DAE418280000F0D8F81E4A13681100002B02D16360146031E0A3420DD92268A01804
:4045C000834203D118685B688218226063600C6024E0A24203D813005A68002AF9D11E689819A0420BD12168711858181960824214D110685268411819605A600EE0A042E1
:4046000002D90C232B6009E021686018824203D1106852684118216062605C60280000F09CF870BDF0220020032370B5CD1C9D43083506000C2D01D20C2501E0002D01DB50
:40464000A94202D90C23336048E0300000F084F8234B1C681A002100002913D00B685B1B0DD40B2B02D90B60CC181EE08C4202D1636813601AE04B6863600C0016E00C0030
:404680004968E9E7174C2368002B03D1300000F051F820602900300000F04CF8431C18D00323C41C9C43A0420DD12560300000F054F8200007220B30231D9043C31A0ED0E7
:4046C0005A42E2500BE0211A300000F033F8431CEBD10C233000336000F03FF8002070BDF0220020EC220020F8B506000C001500002904D11100FFF797FF040018E0002A05
:4047000003D1FFF745FF2C0012E000F027F885420ED929003000FFF787FF071E07D021002A00FFF7F2FB21003000FFF731FF3C002000F8BD002370B5064C050008002360DF
:40474000FCF798FD431C03D12368002B00D02B6070BDC046AC230020704770470B1F1A68101F002A04DA891804390B68D018043870470000134A1088810703D08107890F5E
:40478000401A001D11791030484381B25088820703D08207920F801A001D800040180A494030098980B2CA0701D0503080B2890706D504495422091F09785143081880B275
:4047C00070470000BE0D0020CC11002010B501F00DFF10BD10B501F00FFF10BD10B500F05BFA10BD10B50749044609780220002907D1204601F050FF002802D120460AF01F
:4048000089F910BD5C0F002070B504460120002C12D02368002B0FD0616800290CD0074D06222889208118462968FFF76EFB6968606809780170002070BD0000CC110020AC
:40484000FFB585B0002768460E9D07734F481C460078002802D0082009B0F0BD10990F9801900095029105A807C800F007F90028F2D16946264603AB84460873002C19D0D9
:40488000002115E08A00B75A082F09D990198078002805D0083FB7521878401C187005E0002914D00027B75290198770491CC9B2A942E7D360460028CED10F98002809D070
:4048C000109901F043FA002804D00120C4E701208446EFE701F090FE2D480021416081600599016021888180022D07D3A1798171A17AC171A1890181218A418100211EE07E
:40490000481C19E082008B00A75AE65ABE46BE4211D26F463E80B4461E190296B678BE7001967646E6521719029EBB78B3706646A652019EBE70401CA842E3D3491CA942DF
:40494000DED3134822460C3000906846037B0799069800F01BF90028B8D168460B4C007B60700B480C3001F077FE0028AED1084907480C3107F0A4F90028A7D107F0BEF92D
:404980000028A3D10121217066E70000B80D0020C0110020F8B5054636480F460078002802D002242046F8BD002F60D000243249002D16D02A89D0070DD02868002808D0FF
:4049C00003881B3BE12B04D24088FB2801D81B2801D2012409E0900707D56868002804D1F7E70020088108604860002CDAD122482E8906811F481B21801D0180418004210F
:404A000001711C490020891C0870F00705D019480622801D2968FFF778FA1749B00703D56A68144812788270124D0E46AD1D281F0D60486001F056FE284601F045FE308965
:404A40000DF0D8FD30890CF0C1FF28880CF0C4FF30890DF039FF03461033FFF78BFE1F21C018890140183880A91F88809AE7012498E70000B80D0020CC110020FFB5844680
:404A8000384F1C460020BB883F78054602460646002F11D100290ED0029999420BD36146002908D0002C06D00A99002906D02E4B0B99994202D2012004B0F0BD002144E0C9
:404AC000AB001F19BF78002F3BD0E35A002B38D07B43591889B22B0000F04AF8050410161C253100A7782388BC46FF27233BEB37BB4222D26346032B1FD322E0A388002B06
:404B00001FD0302B19D31CE02389002B19D0282B13D316E0A289002A13D01346134F233BBB420AD20DE0268A002A0AD033460F4F233BBB4201D2964203D901200EE00020A1
:404B400001E000280AD16D1CEDB2099B9D42B7D31C2463435B1802998B42ACD89642AAD8AAE70000B80D002079020000BAFF000030B47446641E2578641CAB4200D21D4674
:404B8000635D5B00E31830BC18470000FFB583B0002469460C801F4606468C80002806D00598002803D004983043800701D0012466E0002FFBD03449049809888842F6D3F2
:404BC000FEF7E8FEFEF7CEFE00F012FC002855D100F07AFD002851D12C49084601F0EAF805042D0C4AD12A480499066081800021C18007810C98007AC00704D0684601F071
:404C000014FD040007D10C98007A800703D501A801F014FD0446BF1DFEB2002C20D13146059800F05DF804001AD10DF05BFE040016D16A461088928808368518144AF1B2A5
:404C40009088D288AEB29319984207D3401B801A80B201F09FFB050007D000E0FF25012400F05EFA002D04D008E0F8B200F01CF9F6E700F081FA07490120087000F0CAFB85
:404C8000204607B0F0BD0000BC0D0020CD4D0000D8110020C40D002010B503480078012801D101F019FA10BDC40D002070B5084B0446DA889E8803205518B54206D81868B9
:404CC00080182060D8884018D880002070BD0000D81100200148008970470000D8110020F0B587B007460D4600208900009006916846FFF7DBFF844600285DD130480099A9
:404D00000160002117E02E4B88001A680629115406D22C4C0419667882185670628805E0C419203CA67A8218567022891B68C018491C4280C9B2A942E5D300242DE0601CB8
:404D4000C2B2059025E01E4FA30039689600581840887118039604904E88B04217D938466F46FE80B6464F786E4677710297049F4F800168039F5E18767879184E700168F6
:404D8000764659184E800068029F18184770521CD2B2AA42D7D30598C4B2AC42CFD36046002809D168460699FFF780FF8446002802D1054900980860604607B0F0BD000056
:404DC000C80D0020D05F0100CC0D00207047000010B5002809D005494A68002A05D0011F08788000105801F083FA10BDC80D002010B50446FFF76EFFC0B2801DA0420CD31F
:404E000007484068002808D0A100405801F0E2F9002801D00470001D10BD002010BD0000C80D0020F8B516460D460446FFF752FFC0B2801DA04203D20020C0430090F8BD22
:404E4000B2B2E9B2684601F0EBF90099481C03D0024AA000526811500098F8BDC80D0020F8B50746FFF736FF801DC6B20A49002005460C680DE06178002907D06188B94281
:404E800002D32078FFF7B4FF002804D1241D6D1CEDB2B542EFD3F8BDC80D002010B5002801D0FFF795FF10BD70B506460948002504680BE06178002905D062882078121D38
:404EC0000023FFF7AFFF241D6D1CEDB2B542F1D370BD0000C80D0020FFB581B00A9F16000C4620D000F0F2F8054604281BD0002F0CD03846FFF7B4FF20492A0151184860AC
:404F0000002810D03A460499FEF7FFFF1B4928010E504618778101980570200406D47D20C000444304E0FF2005B0F0BD6404640C00F0BAF80746042807D000F04FFAA042DE
:404F40000BD800F04BFA201A03E0204600F0AAFA0020F06035720020E6E700F03FFA009000F0B6FA00980121001B009000F0ECF802493A0151180098C860E6E7E4110020DB
:404F8000F8B5060116483418217A042903D0E068002802D017E00020F8BD00F01FFA054600F096FA00F0A0F804280CD001010C480F18F8680021451900F0C6F80020F86004
:404FC000284600F06FFA6068054D002801D0FFF765FF042020720020A8516081E060DAE7E4110020FEB500266A46304601232549050169180D7A042D02D0C96800291BD0D0
:4050000000211154401CC0B20428F0D300246846005D002830D01B48210108184189476805680291002101604160042241810272C160002E02D015E01354E3E700F054F8B6
:4050400004280ED001010F4808180190C6680021304600F079F801980021C160304600F021FA0126002D07D038460299A847002F02D03846FFF712FF641CE4B2042CC6D302
:40508000FEBD0000E41100200EB5002005216A460090118150810348694600680EF087FA0EBD0000D00D0020074A0020010189180B7A042B02D0C968002903D0401CC0B236
:4050C0000428F3D370470000E41100200549002002015218127A042A03D0401CC0B20428F6D37047E411002030B50A4B04200A4C00210A011219157A042D06D0D268002AF6
:4051000003D09A4201D808461346491CC9B20429EFD330BDFFFF0000E41100207047000030B50020074C05460423020111190B72A5504D60401C4D81C0B2CD600428F4D3E8
:4051400030BD0000E411002030B5094C00231A011219157A042D04D0D568002906D02D18D5605B1CDBB2042BF1D330BD2D1AF7E7E4110020002070471CB5002469460C702B
:40518000142001902346054A05480EF015FA04480068401C00D1FF2420461CBDF5510000D00D00203EB5124A0146FF2000230124126800290DD0012914D0042908D10420DD
:4051C0006946009308814B8110460EF0F0F980B23EBD6846009304814381694610460EF0E1F9F4E768460093048143816946EBE7D00D002070B545890468416800890300D0
:40520000FFF7B6FC08280509091E22282628002005F008FC1EE0022908D0C8B22A4621460CF028FB2046FFF739FE13E002202A4621460CF01FFB2946204600F00DF809E0F7
:4052400000200DF0B3FE05E02046FFF7CBFE01E0FEF720FC002070BD014B0022DB681847D40D002070B5448905680089022803D0032809D0FF2070BD2246094C0023A468E5
:4052800029460120A04708E0FFF7A4FA241DA2B200232946022006F0C6FB002070BD0000D40D002070470000024800214160018041807047D40D002070B50C46002186B022
:4052C00016460391012802D0022859D116E003A9012006F0FDFB01281BD1039D324621462846FEF712FE0095287801900220694608814E816846FFF7B5FF41E0214D002BB6
:40530000686809D0049004A9022006F0E1FB01281DD0022006B070BD002812D0298840182146FEF7F2FD28880024801980B228806988091D884206D12C801348FFF792FF89
:4053400003E00320E6E788421AD96C6018E004986860E278A378110219430B4A698000231060E3565360032313815181A1788170E178C17061784170217801700420288054
:405380000020C7E7D40D0020241200203EB515460C46022803D004280CD000203EBD0091019002206946088107484A8100680EF0FEF807E00CF05EFA044B0022DB682946B8
:4053C0002046984701203EBDD00D0020D40D0020014AD16090607047D40D0020034801688068081A0A214843000970473012002010B5FEF7BFFA4C2204490548FEF785FDA2
:4054000003490120C870002010BD0000EC5F01003416002010B5FEF79DFA10BD70B5134C2368002B08D0207B1149C20705D04008400020738868A08070BD88680B4AA1889B
:4054400080B29268814203D90A4D691A091802E0814202D2411A5118A160A080A0689842EAD30EF0C1F800F013F870BD30120020C0102E40FFFF000010B508461946FFF784
:40548000A7FF10BD704710B5FFF780FF10BD000003480021016041608160C1607047000030120020024610B5FF20002A0CD0FFF7EFFF064C0321207B0843207310010A21F1
:4054C000FEF7F8FB2060002010BD00003012002000B504480A21806848430209FFF7D8FF104600BD301200200248007B8007C00F704700003012002010B54B4908680028E4
:4055000002DA4A4B01221A70022290430860484800694549C00B4031096A0246C907C90F0A4259D0012000F097FA3F480E216C30FEF71AF93E4820218430FEF715F93C4855
:4055400014219C30FEF710F93948FF21C131A430FEF70AF93648FF212F31B030FEF704F933483449BC30FEF7FFF831483249AC30FEF7FAF830492E48491CB430FEF7F4F85D
:405580002B482E49B830FEF7EFF829482C49CC30FEF7EAF826482B490830FEF7E5F824482949A830FEF7E0F8214828498830FEF7DBF81F4826498C30FEF7D6F81C481921C8
:4055C000C9029030FEF7D0F8FEF7DEF8FEF7EEF9C0B2022812D01FE000290BD0002101420AD0114801216030FEF7BEF80120FEF7A5F997E70121F2E7FF2010BD1549164872
:40560000FEF7B2F814481549001DFEF7ADF8124800210830FEF7A8F854200449C043891C0870002010BD000000F02E40E40D002000002E40320300002F3F00003102000091
:4056400010520000EC160000FA12000031D000003AE300009956000080012E40F80F000070B50646581C80B245086D00002408E0304600F0C1F81055000A1119A41C4870AA
:40568000A4B2AC42F4D3D80705D0D0182038D15CC47FD454C17770BD30B50A4C002100195B1E07E0541864782502545C2C430480891C89B29942F5DB994201D1515C0180A1
:4056C00030BD000000102E4010B5FF2000F0C4F90F49FF2048700E481021801D41800121417001700A490020C91C4870FFF704FF04000AD100F010F907210648FEF724F8EE
:40570000044807211830FEF71FF8204610BD0000E40D0020CC112E4070B5002405465B1E0AE0284600F068F8010A161971702D1D1055A41CADB2A4B29C42F2DB9C4203D1C1
:40574000284600F059F8105570BD000070B500210A4D5B1E0AE0541864782602545C344346193480001D891C80B289B29942F2DB994202D1515C4019018070BD00102E4087
:40578000F0B50599091FCFB200217E1E0BE0541864782502545C2C43164D45192C80001D891C80B289B2B142F1DBFC0712D01C78515C24020F4A0C4381180C809C785D786A
:4057C000001D210280B2294384182180001D80B2D9780CE059781A7809021143054A84182180001DD9789B78090280B2194380180180F0BD00102E40014940180088704775
:4058000000102E4010B50B490020487000F084F8002000F047F9002000F034F907210648FDF792FF044807211830FDF78DFF002010BD0000E70D0020CC112E4010B50B4667
:40584000062812D006DC01280CD0032801D1FFF7D9FF10BD0A28FCD00B28FAD105480078107010BDFFF730FF10BD1146184600F035F910BDEA0D0020F8B5244DAC6A012786
:40588000A007234E002816DA307806280ED1286A384328621F480069F903084381B21D481030FDF761FF042000F0D6F8174802212830FDF749FFE00718D000F01FFF01282B
:4058C0000FD1002000F06CFF062000F0C5F81049FF20C91E48707078002802D1686B384368630A4801212830FDF72EFFE0050BD53078042802D1052000F0AEF80348FF21E8
:4059000001312830FDF720FFF8BD000040F02E40E70D002000002E4010B503212348FDF723FF0120FDF7FAFF20483038406A204C80076178800F890001431C480C38FDF73F
:4059400013FF6078002808D0401E022181401820FEF79AFAC000083800E0B82081B21548FDF702FF1348032109021438FDF7FCFE10481149B830FDF7F7FE612189010F4853
:40598000FDF7F2FE0D480321001FFDF7EDFE0C490C48FDF7E9FE0B480B496038FDF7E4FE084801218838FDF7DFFE10BD70F02E40EA0D0020D8102E4090890000041E2E403F
:4059C000FF0F000058122E40209000000848017806290BD140780749002803D1486B400840004863C86A01221043C86270470000E70D002040F02E400148007870470000A0
:405A0000E70D002000B50300FFF7B2F8080D050D0B070507090D012000BD032000BD042000BD022000BDFF2000BD0000074A9168D26889B2064B92B2994204D105498A4227
:405A400001D1012100E000210170704780002E4033D000003FE3000010B50446FDF782FF072C01D9FF2C01D102480470FDF772FF10BD0000E70D00200149487070470000AB
:405A8000E40D002010B5064A012805D01921C9021046FDF769FE10BD1D21C902F8E7000090002E4010B50A4A141D012808D009491046FDF759FE08492046FDF755FE10BD50
:405AC00004491046891CFDF74FFE0349491DF3E788002E4031D000003AE3000070B50C460546FDF763FFC0B202280E49287804D0FF2810D04C280CD810E0FF2809D10A4A5A
:405B0000D0680004800F032801D0087807E09069000A553803E00878207070BD4F382070087070BDE60D002000002E40F0B50122002834D0002932D00424420600D00524C2
:405B4000792342065B06D21800D0641C034600221EE00C2516466E43124D00277519AF72104F002ABB51696007D0661EB24209D10D4E86197606760E05E05E06760E8027D5
:405B8000BE1B00E080269B198919521C2E81D2B2A242DED303480549006B002288611046F0BD0000BC14002079020000F00D002018B50020694608700A48006900280ED08B
:405BC000132149014018047E684604704F21C900054800F05BF8A04201D0012018BD002018BD0000F00D002040120020074900200C2242435218927A012A05D0401CC0B2CE
:405C00000628F5D30020704701207047BC140020F8B50F000446164609D01A4D1A496868A04202D94018A04201D38E4201D90120F8BD39462046FEF759F9002820D03246F3
:405C400039462046FEF761F90E49F0B2012620318E7600210C220B4653430A4A9A1813895568EF18A74207D9641B1B1B9672834206DAC01A1469C0B2491CC9B20629E9D320
:405C80000020F8BDBC14002079020000034610B50020024604E09C5C2018521CC0B292B28A42F8D310BD000070B500F05FF8084C064A216907480D46FEF727F90549284685
:405CC000FFF734FFFFF774FF207070BD79020000F00D002040120020002070470020054A002902D0012902D002E0906000E0D06000207047F00D002070B5084C1546084616
:405D00000549E26889182A46FEF7FFF8E0684019E06028B270BD000040120020F00D00203EB50A226946FFF7E7FF044606480A2200686946FEF7DAF8002802D00020C043EE
:405D40003EBD20463EBD0000F40D0020002802D0044A914201D2FF20704703494A6108610020704779020000F00D0020024800218160C16070470000F00D002070B5074C5A
:405D800015460548A26880182A46FFF741FFA0684019A06028B270BD40120020F00D002010B503490A220968FFF7E8FF10BD0000F40D002010B50F4A002313600E4A136004
:405DC0000E4B18600E4801600E49012008600E490860000290600E490C4808600D4914300860FF381538506000F0BCF800F0CAF9002010BD240E00200C0E0020380E00200B
:405E00003C0E0020280E0020180E0020041600201C0E0020300E0020014610B50020002910D0094B1A689C685118A14209D25868196080188A0704D08A07920F891A091D13
:405E4000196010BD002010BD0C0E0020F8B50024164E671E321F3D463168136806E01422624310328A58521C1BD0641C9C42F6D36A1C14D02C461422544322460C32885087
:405E80000C214843FFF7C8FF3168002808510AD031680020103408517068401C70602846F8BD2546E4E73846F8BD00001C0E0020F3B50026F64381B000281BDB1E4909681B
:405EC000884217D80299002914D01B4F142204463F1D54432546396810354859401C09D0FDF740FD38682F1F4159C359994203DBFDF730FD3046FEBD21460831009146588E
:405F000001590C20704308180C220299FDF7FDFF0948761C001D0068C159B14200D100260549009A091D865008684159491C4151FDF710FD0020FEBD180E0020002803DBD6
:405F400007490968884202D90020C043704704491422091D096850431030085870470000180E0020F0B500200D4A451E0346171F50600FE014260146714314680E1DA3512A
:405F80000C461668083433511668083435511468401C635039688842ECD30020F0BD00001C0E0020F3B50026F64381B0002841DB2349096888423DD8029900293AD0204FD0
:405FC000142204463F1D54432546396810354859401C2FD0FDF7C6FC3868415900292BD0211D009146580C21005971430F46C1190C220298FDF789FF11480021001D0068B4
:40600000761C00590C34C0190160416081600C48001D00680159B14200D100260849009A091D865008684159491E4151FDF792FC0020FEBD3046FEBDFDF78CFCFAE7000087
:40604000180E0020FEB504460D4600201E49089E0860471E009001900290002C11D0486885420ED2002A0CD0002E0AD0642E08D808460C3001681C2068430C18207A002839
:4060800001D03846FEBD0120226020721846FFF7DDFE6060401C13D06681A6810A4827610C3067610179A94200D205710021684601810A462846029B00F040F82846FEBDDD
:4060C00000202072DDE70000240E002038B50124009400F039F838BDFEB50027164EFF433D4600240EE01C20316860430818017A002906D04068FFF721FF002801D02546D3
:4061000003E0641C3079A042EDDA681C12D01C2130684D434419FDF725FC69466068FFF741FF0546FDF716FC002DD9D1216868468847D5E7FEBD0000300E002038B50024AC
:40614000009400F001F838BD1FB500220C49541E0A60002811DB496888420ED808491C220C31096850430818406801A9FFF7A0FE401C02D0002004B010BD2046FBE7000024
:40618000240E0020F0B50021114A4D1E174611710C3F0B46BD6016E008461C2460431668041D355114680646235014680836A3551468361DA353044616680A343353183097
:4061C0001468491C255078688142E5D30020F0BD300E002038B500210091002811DB0F49097888420DDA0D4D04010C3529680859002807D0201D0818694600F06FF9002869
:4062000001D0002038BDFDF7ADFB28680F34015D491E0155FDF79EFB009838BD400E0020F7B582B0002502986E1E06602E48D21C024017462D4A2C4610460C380178106860
:4062400005E02301C358002B0FD0641CE4B28C42F7D3711C28D03401211D40180191039900F02AF900281FD101E02646F1E71F48016820460C300F521C48039902682046D1
:406280000E30115419480399026820460F3011540398784300F0A0F8144900280968085102D00024009011E001251AE00F48016801980818009900F02CF9002801D00125C0
:4062C00002E00098C0190090641CE4B203988442ECD3002D05D10298066004480179491C0171284605B0F0BDFCFF00004C0E0020F8B50D4600216A468C461180002839DB30
:4063000023490978884235DA214B04010C3319680A59002A2ED020460C300B5A801C0E5C184670438018954224D3854222D2002006E007465F43BF18AF4206D0401CC0B23B
:40634000B042F6D36046002814D0114E271DC8190C366A46294600F006F900280AD168460088012808D030682946C01900F0D1F8002803D00120F8BD0020F8BDFDF7F2FA83
:4063800030680F34015D491C0155FDF7E3FAF3E7400E0020F8B50F46002400F031F8002817D10C4900220B460C334A600EE021011D680E466A501D680C36AA53B61C1D6812
:4063C0000F31AA551D68641C6A54E4B2BC42EED31A71F8BD400E002000280BD0C01C074A81085068890053884118994203D89368516018187047002070470000400E0020DC
:40640000F8B5064600200F4D009029700C0121466846FEF74BFC00280CD129460C3100980860301B001F84B221466846FEF73EFC002801D0FF20F8BD6C800098A860002052
:40644000F8BD0000400E0020F8B5002827DB19490978884223DA174C05010C342168485900281CD028460C30085A009028460E300E5C401C0E5420682F1DC01900F064F828
:4064800000280CD12068002445590EE0094829460C300068C01900F03CF8002801D00120F8BD00982D18641CE4B2B442EED30020F8BD0000400E002030B50D4604000BD06B
:4064C000A800FFF789FF6060002805D000202570C0436080002030BD012030BD70B50D46040005D0002D03D00220205E002801DA012070BDFDF736FA0221615E606889006D
:40650000405828606088401E6080FDF723FA002070BD70B50D46040007D0002D05D002212078615E401E814201DB012070BDFDF719FA6088401C00B26080616880000D501A
:40654000FDF708FA002070BD10B5040009D0227800216068FDF7E2FC0020C0436080002010BD012010BDF0B500231D46002802D00224045F0AE00120F0BD46689F00F65901
:406580008E4201D1012503E05B1CDBB29C42F4DA15700020F0BD00000148007870470000540E00207CB505460024FEF713F9A8796946087000A8062229460130FDF7A5FC46
:4065C0000021684604F0F4FC0C2806D0072806D01F2806D0122806D006E0022404E0042402E0272400E0012420467CBD01480121417270474017002010B500F05FF9FFF774
:40660000FBF9FFF7FFF910BD70B504460025FEF7E1F8002C06D0A079012803D8214602F081FC00E00125284670BD01460120002902D0502008800020704700000146012019
:40664000002905D003485422007850430880002070470000560E002010B502460D49FE204870032410460DF0C5FA002810D10DF069FA00280CD105F087FA002808D100F026
:4066800013FB002804D104F039FF002800D10024204610BD540E002070B50025044600280ED0A07901280BD8FEF794F8A0790028204602D002F0C8FF03E002F09DFF00E00E
:4066C0000125284670BD0000014610B50120002904D006220248FDF718FC002010BD0000600E002001460120002903D0087802490870002070470000560E00200148007AF5
:40670000704700004017002038B504460120002C20D0617801291DD800290BD0FF25E535FEF758F80C4828180088C0B22070072803D00EE0FF25CD35F2E7002069460870E4
:406740006846FFF773F969460878012801D108202070002038BD000000102E40014A002192681047540E002008B500226B461A7026280CD0094A342852680BD0352805D19A
:40678000900703D50021352005F0DAFA08BD19462620F9E7D007F9D03420F5E7540E0020014908727047000040170020F8B504460120002C26D06178012902D92278092AB8
:4067C00020D8002905D0FF25E5352078092803D004E0FF25CD35F8E708202070FDF7FAFF2078114F114E08280DD00020FFF75AF970780128207810D00D4969180880FE2068
:4068000070700020F8BD0120FFF74CF90720B8810549203188800120F2E7B8810248217820308180EBE70000C0112E40540E002000102E4070B50E46050001D0002400E075
:406840000C4C002C11D0E28A500609D5D107C90F022002F08DFFE08A40218843E08204E0D107C90F012002F083FF3146284602F067FC70BDA0160020F8B505460020044603
:406880000D4E009013E022466946284600F0E0FF0098002801D00DF08FF9A878214602F0A9FAA878214602F097FA641CE4B2308AA042E8D8F8BD00006C17002038B51E4C49
:4068C000FFF79AF8042813D0052811D0062812D003282AD007280AD100206946087002460120FEF7ABFFFFF787F80128FBD138BD00F077FB38BD02F0D3FA00F072FB02F0A1
:4069000033FB8007800F0228F4D10C4841880029F0D05B21095D0029ECD101210170A07D0140022002F024FF38BD02F0BDFA0120FFF792F838BD0000A01600207A0E00207C
:40694000F8B50646002402F081FF0546304602F097FF03460A480021068A0DE001228A401046174628401F40002803D0002F01D1224394B2491CC9B28E42EFD82046F8BD66
:406980006C1700201CB50020694648706846FFF7BBFE01AA69460A20FEF750FF6946042008561CBD70B50D4601F038FB04000BD02079002808D0FDF70DFFE178A0782A46B8
:4069C00002F044FC002070BD022070BD0148007970470000741600204030C07E002800D00120704700B500F001F800BD902148430749084A40186030417F491CC9B24177AF
:406A0000D289914201D300214177C8B270470000801600206C17002013B501F0FFFA04000BD001F09CFE002807D0214601AA0A310620FEF703FF00201CBD02201CBD000078
:406A400010B50C4601F0EAFA00280AD001F087FE002806D0224604490A20FEF7EFFE002010BD022010BD000061160020F3B581B0074601460026029802F0E0FE0446002F0A
:406A800001D0002500E0154D002D21D0284601F0FBFA032C04D13946029802F02BFF06463846029902F098F9032C06D0002C10D00121384601F0EEFB03E03146384603F0B5
:406AC0001FF9284602F07CF80221284602F092F8FEBD3846029902F07FF9FEBDA016002010B5044600F066FA002804D103F0DEFD002801D00C2010BD2078611C02F0ACFC03
:406B0000FF2801D01F2010BD02F0F2FCFF280AD02178621C02F0EEF8044821780068026B601C904710BD072010BD0000A00E002010B503F0BBFD002801D00C2010BD02F091
:406B40006DFC03480068C06A8047002010BD0000A00E002070B50D46044610210CF06CFF1021601806460CF067FF334610221946204603F0C9FD102130460CF05DFF022052
:406B80002870204604F0F0FB70BD0000F8B504464078217802028006870FE0781143A67809050002090D0643084601F037FA00210546F2B2002812D0002C10D0022F0ED085
:406BC000032F0CD0002A0AD00279092A07D0002A05D0134A5A23527F1B5C9A4207D82889002104F0F6FA20460CF0E6FFFF21002914D10C4822460068294643693046984763
:406C0000C0B2FF280AD128464030817EF2B2491C8176FF232146284600F0E3F8F8BD000034160020BC0E00200020704710B5044603F03CFD002801D00C2010BD2078611C1F
:406C400002F00AFCFF2808D002F03EFB044821780068426B601C904710BD1F2010BD0000A00E002010B500F06BF904F047FC002010BD10B5044600786178E2780843A178A3
:406C800011430843217908436179084305D003F0FFFC002803D00C2010BD122010BD204602F0D2FC002010BD10B5FCF77FFE02F0EFFD044803F066FD02F010FB012000F09F
:406CC00003F810BD48160020F1B586B003A8009005A8019028489F22017B114001736846FDF792FD002845D169460989C90705D0224806990068C2686846904769460989D1
:406D0000890706D5002835D11D480068816A0698884700282ED11B4E0025757075737571F575357675767575B570F570B5713746F5730120D03738731F20F880FF2130468E
:406D40007972A0300176457600F0CAFA00242046069901F0AFFC002803D1641C2406240EF5D0FD720749BD72B573C0310D704D704D600D7207B0F0BD34160020BC0E0020EB
:406D8000A00E00208016002070B505460E46084602F05CFD0446304602F072FD0121A9400A46224001400A4301D0012070BD002070BD10B50446084602F062FD0121A14069
:406DC000014201D0012010BD002010BD10B5FEF713FE032804D102F067F80120FEF73CFE10BDFEB51C4616460F46054601F0E8FEA878FFF7F7FD0246019033463946009414
:406E0000284600F00DF8002808D1A8780199FFF711FDFF2C02D138460CF0CEFEFEBD0000FFB585B005460E980C46FF2810D02B49C00009680A5840180179C079527881425F
:406E400001D9012601E09006860F6846038108E06078A1788006860FE0780002014368460181284601F086FC070007D021462846079A00F081FC384609B0F0BD304600F025
:406E80002FFD04AE0346039002AA29460096204600F0BBFB3C20405D002818D0284601F069FC012813D0684600890096C0B20190A878231DFF22079902F0F6F8684600897A
:406EC000039BC2B2A878079902F03AFCD3E7684600890021C0B20091E9E70000B80E0020F8B5002600253046FFF72AFD07001DD090201149704340186030447F12E0601C78
:406F0000FCF7D8FECCB23846E040C007C00F07D02146304601F058FF21463046FFF7A6FD6D1CEDB20548018AA942E8D8761C3606360ED7D0F8BD0000801600206C170020F2
:406F400010B502F0CBF90020FFF7BEFE0CF0CAFE002010BDF8B5002400F0B2F80123012800D10124104F00203E4620360425082203E0002801D0002100E0314609790029BA
:406F800007D001290BD002290BD0114681402143CCB2401C0006000EEBD07C70F8BD1C43F7E72C43F5E700008016002010B5FFF7D1FF10BD10B5044604F0F2FB002802D1A8
:406FC000601C00F001F810BD1CB500240094062269460194FCF78AFF002800D1122420461CBD10B5FCF70DF90446FEF705FD012809D0FEF701FD022805D0FCF7B3FD204684
:40700000FCF703F9EEE72046FCF7FFF810BD10B50B4681791943817103D08078114602F05DFB10BD10B582798A43827102D1807802F068FB10BD000030B50C4C0220A28AE0
:407040000B4B9978002901D0022906D11D785B78EB18282B01D9032002E0032900D101205105490DC0020143A18230BDC0112E40700E002000B500F029F8002807D0012865
:4070800005D0032801D0042801D0002000BD012000BD014600B50020C90701D000F010F800BD014600B50020C90701D000F008F800BD00000148006870470000680E00206D
:4070C00001480088000A704720102E400448008B410501D5042070474007800F7047000000102E400148406870470000680E00207CB50446002568460570200610D5FFF785
:40710000E5FF01280CD101A801F0D4FE6846007900F036FB012001F0BBFD0220FFF746FF600712D50C48017901290ED10571684601F0C0FE6846007800F056FB0220FFF713
:4071400035FF00212620FFF70FFB044800680169204688477CBD0000740E0020A00E002010B501460A4A007800241070FFF7A8FF0128084603D002F0D3F9204610BD00F034
:40718000E7F80400F9D1034801210170F5E70000700E00204017002070B50446FFF790FF002801D00C2070BDA27B01211F48002A827801D00A4301E05208520082706279CB
:4071C000012A14D0C17849084900C170184D2868016820468847207901280CD06188208803F012F82080207904280FD015E0C2780A43C270EAE72868C168E01D8847E01D78
:4072000002F00EFA0B48008D208006E02868C168E01D8847E01D02F003FA074920798870204602F08BF9002070BD000080160020A00E002034160020700E002008B50178B1
