:400000000040002011000000490500004905000080B500AF00F0CAFA80B500AF284B12221A6001F047F8274B180001F041FA012001F050F8302000F06DFE234B234A1A60D6
:40004000234B8022D2051A60224B224A126802210A431A60204B214A1A60214B00221A60204B204A126808218A431A60FA23DB00180000F09DFE1C4B180000F0BBFF1B4BA1
:40008000B82252011A601A4B1A4A1A601A4B802212061A60194B8022D2021A60184B40221A60184B1900082000F0CCFE082000F043FF074B8022D2051A60C046BD4680BDE7
:4000C00030001040001BB70004010B40060000800C020B4078002E407C002E40BCBC000064F02E406CF02E40DC050000000301400000014040FF008008010B4000010B40E6
:40010000080101402912000080B582B000AF72B63A4B00221A60FB1D00221A7022E0FB1D1A7813005B009B185B00354A9B183B603B681A78597809020A43997809040A4359
:40014000DB781B06134318003B681A795B791B0213439BB2190000F0D3F9FB1D1A78FB1D01321A70FB1D1B78012BD8D9254BEE2212061A60244BEE221A60244B99221204AC
:400180001A60234B992212041A60224B992212041A60214B992212041A60204A1F4B1B78DBB206210B43DBB213701D4BDB2212041A601C4B01221A601B4B06221A601B4BBD
:4001C0001B4A1A601B4BC0221A601B4BD82212041A601A4B01221A60194B06221A60194B03221A60184B194A1A60FFF715FF00F097F9C046BD4602B080BDC0466CF02E40D1
:4002000040240000000002400005024000500F4010500F4020500F4030500F4000700F4008000440000104400801044008020440800D180000030440080304400004044087
:400240000804044000050440080504402400000210B5064C2378002B07D1054B002B02D0044800E000BF0123237010BD5801002000000000E4230000084B10B5002B03D067
:400280000749084800E000BF07480368002B00D110BD064B002BFBD09847F9E7000000005C010020E4230000C80000200000000080B500AF642200214D2000F0C7FA6421DC
:4002C000092000F0CFFB6421842000F0CBFB642000F086FB642200214D2000F0B7FA64213F2000F0BFFB64213C2000F0BBFB642000F076FBC046BD4680BDC04680B592B0D5
:4003000000AF62B6012001F077F8002001F04CF8002000F0FFFF002001F020F8FA235B00180000F041FE012001F03EF8012000F0F1FF012001F012F800F0BCF900F0C2F975
:4003400001F082F8FFF7B4FF642200214D2000F07DFA6421272000F085FB6421002000F081FB642000F03CFB0F233B643F23FB1800221A70FA235B00180000F015FE012050
:4003800001F012F8012000F0E9FF012000F0C2FF3C23FB1800221A703C23FB1800225A703B23FB1800221A703A23FB1800221A703923FB1800221A704723FB1800221A707E
:4003C0008DE0642200214D2000F040FA6421252000F048FB4723FB181B786421180000F041FB642000F0FCFA642200214D2000F02DFA6421002000F035FB642201214D200D
:4004000000F09EFA3B23FB1864221900012000F063FB642000F0E4FA642200214D2000F015FA6421012000F01DFB642201214D2000F086FA3A23FB1864221900012000F0FD
:400440004BFB642000F0CCFA642200214D2000F0FDF96421232000F005FB642201214D2000F06EFA3923FB1864221900012000F033FB642000F0B4FA3B23FB181B78403BEF
:400480001A001C493B1D180001F088FB3B1D180000F0E0FF3A23FB181B78403B1A004723FB181B781449381D01F078FB3B1D180000F0D0FF3923FB181B78403B1A000F49BE
:4004C0003B1D180001F06AFB3B1D180000F0C2FF4723FB181A784723FB1801321A704723FB181B780E2B00D86BE73C23FB1800221A703FE7E8230000FC23000020240000A7
:4005000080B582B000AF786039603A687B680021180001F03AFBC046BD4602B080BDC04680B500AF054B03221A60054B03221A60044B00221A60C046BD4680BD30003040BF
:4005400030003140000E3F4080B500AF01F0E8FA03001B680C2B00D1FEE7FEE780B584B000AF78600F4B1A687B68D3181A000E4BD31A802B09DC0B4B1B68FB60094B1A68AA
:400580007B68D218074B1A6007E001F0C9FA03000C221A6001235B42FB60FB681800BD4604B080BDCC000020D801002080B586B000AF224B7B61224B3B61204B7B6135E024
:4005C0003B691B68FB603B695B68BB603B699B683B6000237B600CE0FB681A68BB681A60BB680433BB60FB680433FB607B6804337B607A683B689A42EED13B69DB683B6048
:4006000000237B6008E0BB6800221A60BB680433BB607B6804337B607A683B689A42F2D13B6910333B617B69013B7B617B69002BC6D101F07BFAFFF761FEFEE701000000C1
:40064000D424000080B582B000AF154B144A126801218A431A6000237B600FE07B68032B04D8104B7A689200D35800E00E4B0F4A796889008B507B6801337B607B682F2BF1
:40068000ECD9FFF741FD0A4B00221A60044B044A126801210A431A60C046BD4602B080BD00001040000000004905000000000020C000002080B500AF00F024F8C046BD46C1
:4006C00080BDC04680B500AF064B064A1268802109060A431A6000F007F800F00DF8C046BD4680BD0000254080B500AF0A2000F023FCC046BD4680BD80B500AFC046BD4662
:4007000080BDC04680B500AF204B00221A60204B204A1A60204B214A1A60214B00221A60204B00221A60204B1C4A1A601F4B00221A600A2000F016FC03210A2000F0A8FB7F
:400740001B4B19000A2000F07DFB1A4B00221A60194B00221A60194B00221A60184B00221A60184B00221A60174B00221A60174B10221A70164B00221A80164B00221A6033
:40078000154B00221A60C046BD4680BD00002540600025406C080080000325400701008004032540100325400002254004022540B5150000C80E2540880E2540480F254077
:4007C000080F2540C80F2540880F2540B0010020BE010020C4010020B801002080B500AF124B124A1268520052081A60104B00221A60104B00221A600F4B0F4A12680F4927
:400800000A401A600E4B00221A600E4B00221A600D4B10221A70054B044A1268802109060A431A60C046BD4680BDC04600002540680025406C00254060002540FF5CFFFFFA
:40084000880F2540C80F2540B001002080B588B000AFF860B9607A600423FB612E4B1B78DBB2102B53D10A2000F07CFB2B4B1B680122134002D00823FB6145E07B68FA2210
:40088000920053437B61264B00221A60254B264A1A60264B264A1A60FB685B00FF221340FB60BB68002B03D11B4B24221A7006E0194B25221A70FB6801221343FB601D4BD3
:4008C000FA681A601C4B02221A60164B1A680823FF331340BB61194B1B68C0221340BA691343BB611423FB18180000F0EDF90200BB691343BB61BB69002BE6D0BB691800A6
:4009000000F060F90300FB610A2000F015FBFB691800BD4608B080BDB001002064002540080F2540000F254017030000C00F2540ED0F00004002254068002540400F254075
:4009400080B588B000AFF860B9607A600423FB61204B1B78DBB220221340DBB2002B34D07B68FA22920053437B61FB685B00FF221340FB60BB68002B03D1164B24221A70CE
:4009800006E0144B25221A70FB6801221343FB6000F0FCF8104BFA681A60104B1A680823FF331340BB611423FB18180000F08CF90200BB691343BB61BB69002BEDD0BB6987
:4009C000180000F0FFF80300FB61FB691800BD4608B080BDB001002040022540000F254080B586B000AF786004237B61194B1B78DBB220221340DBB2002B26D07B68FA227E
:400A000092005343FB60144B144A126820210A4001D0182200E010221A60114B1A681223FF3313403B610C23FB18180000F04CF902003B6913433B613B69002BEDD03B694F
:400A4000180000F0BFF803007B617B691800BD4606B080BDB00100206800254064002540000F254080B586B000AF7860396004237B61164B1B78DBB220221340DBB2002BAF
:400A80001FD03B68FA2292005343FB60104B7A681A60104B1A680823FF3313403B610C23FB18180000F010F902003B6913433B613B69002BEDD03B69180000F083F8030084
:400AC0007B617B691800BD4606B080BDB001002040022540000F254080B588B000AFF860B9607A600423FB61224B1B78DBB220221340DBB2002B38D07B68FA229200534349
:400B00003B611D4B1A680223FF331340BB611B4B1B68042213407B611023FB18180000F0D3F80200BB691343BB61BB69002B02D17B69002BE5D07B69002B07D0104B1B68D0
:400B4000DAB2BB681A700D4B0E4A1A60BB69180000F038F80300FB61FB69002B05D1FB68002B02D1084B04221A60FB691800BD4608B080BDB0010020000F2540C00F2540B1
:400B800040032540ED0F00006800254080B582B000AF01237B60094B1B682022134001D0082300E000237A6813437B60044B7A681A60C046BD4602B080BDC04664002540BF
:400BC0006800254080B584B000AF78600023BB607B68002B05DA80231B06FB600123BB605AE07B68C022134008D01023FB60314B00221A60304B10221A704DE07B68012275
:400C0000134018D00123FB602B4B1B78DBB208221340DBB2002B0BD0284B1A688023DB05134001D10123BB60234B10221A7033E00123BB6030E07A6880235B00134005D0E4
:400C400080235B00FB600123BB6025E07B680222134002D00223FB601EE00023FB607B681022134003D0144B10221A7014E0124B1B78DBB208221340DBB2002B0CD00E4B7E
:400C80001B78DBB201221340DBB2002B01D0252200E02422084B1A70BB68012B02D1FFF79DFD02E0064B074A1A60FB681800BD4604B080BD68002540B00100206000254049
:400CC000000F25401703000080B584B000AF78600A23FB1801221A800023FB607B681B68002B11D00A23FB181B88180000F082F97B681B685A1E7B681A607B681B68002B57
:400D000002D180231B06FB60FB681800BD4604B080BDC04690B58BB000AF78602723FC1800F0CFFB03002370194B1A680C23FB181A60184B1A680C23FB185A607B68033BF3
:400D4000154AD35C1A000C23FB189A60134B1A680C23FB18DA601C23FB18114A1A600C23FA181C23FB185A600E4B1C22BA181A600D4B0E4A1A600B4B1B682723FB181B78E9
:400D8000180000F0A2FBC046BD460BB090BDC04608010B4000010B404C24000030001040B6EA000008001040040010401700008080B584B000AF78600023FB60154B154AD7
:400DC000126801210A431A60134B144A1A60144B134A1268802109020A431A607B68002B12D01023FB600CE0012000F003F900F019F8031E02D00023FB6005E07B68013BC4
:400E00007B607B68002BEFD1FB681800BD4604B080BDC04660F02E4078002E400220000010002E4080B582B000AF054B1B68012213407B607B681800BD4602B080BDC04623
:400E40000C002E4080B584B000AF02003960FB1D1A7080239B05FB60FB1D1B781F2B02D9002000F095F8FB1D1B7810339B00FA68D3181B68BB60FB1D1B7810339B00FA6839
:400E8000D3183A681A60BB681800BD4604B080BD90B587B000AF0200FB1D1A70BB1D0A1C1A70BB1D1B78032B02D9002000F070F8FB1D1B781F2B02D9002000F069F8FB1D60
:400EC0001B7803221340DB0006337B611323FC1800F0F7FA03002370FB1D1B789B08DBB29B00144A944663441B68FB6003227B699A401300DA43FB681340FB60BB1D1A7875
:400F00007B699A401300FA681343FB60FB1D1B789B08DBB29B00074A94466344FA681A601323FB181B78180000F0CFFAC046BD4607B090BD00E400E080B582B000AF020013
:400F4000FB1D1A70064BFA1D12781F210A40012191400A001A60C046BD4602B080BDC04600E100E080B582B000AF0200FB1D1A70064BFA1D12781F210A40012191400A00EA
:400F80001A60C046BD4602B080BDC04680E100E080B582B000AF0200FB1D1A7001BEC046BD4602B080BDC04680B582B000AF786009E00D4B1B68180000F07AFA7B680B4A9B
:400FC000944663447B607A6880231B029A42F0D8074B1B687A685343180000F069FAC046BD4602B080BDC046DC0000200080FFFFD400002080B582B000AF0200BB1D1A80A1
:40100000BB1D1B88044A12785343180000F050FAC046BD4602B080BDD800002080B500AF0F4B0F4A126801218A431A600C4B0C4A126802218A431A600A4B0A4A1268302106
:401040008A4310210A431A60064B064A126807218A4301210A431A60C046BD4680BDC04600F02E4000FF2E4080B500AF0F4B0F4A126802218A431A600D4B0D4A12680721CF
:401080008A4302210A431A60094B094A126830218A4320210A431A60044B044A126801210A431A60C046BD4680BDC04600F02E4000FF2E4080B500AFFFF7B0FF044B044AF5
:4010C0001268802109060A431A60C046BD4680BD00F02E4080B584B000AF78600C4B1B6801221340FB607B68002B02D0012B03D005E0FFF793FF06E0FFF7B6FF03E00020E0
:40110000FFF746FFC046FB681800BD4604B080BD00F02E4090B583B000AFFC1D00F0D1F903002370074B074A1268C02109020A431A60FB1D1B78180000F0C7F9C046BD46C5
:4011400003B090BD00010B4080B500AF054B1A68C0231B02134001D0012300E000231800BD4680BD00010B4090B583B000AFFC1D00F0A7F9030023700D4B0D4A12680D4999
:401180000A408021C9010A431A60094B084A126808490A40802109020A431A60FB1D1B78180000F092F9C046BD4603B090BDC04600010B40FF3FFFFF90B585B000AF7860AF
:4011C0000B23FC1800F07DF903002370FFF7BCFF031E04D00123FB60FFF7C6FF01E00023FB607B680D4A13407B600D4B0C4A12680C4911407A680A431A60094B1B68FB6859
:40120000012B01D1FFF786FF0B23FB181B78180000F05BF9C046BD4605B090BD0404040010020B40FBFBFBFF80B500AF344B1B68042213401FD0334B1B680422134017D0F2
:40124000314B1B6804221340DA432E4B1B681A402C4B1A602C4B1B68042293431A002A4B1A602A4B1B68002B02D0284B1B6898470420FFF7A1FF224B1A688023DB0013404F
:4012800022D0204B1A688023DB00134017D01E4B1A688023DB001340DA431A4B1B681A40184B1A60184B1B68194A1A40164B1A60164B5B68002B02D0144B5B68984780235C
:4012C000DB001800FFF778FF0D4B1A688023DB02134011D00B4B1A688023DB02134006D00A4B9B68002B02D0084B9B6898478023DB021800FFF760FFC046BD4680BDC046BC
:4013000010020B40E80000208401002088010020FFFBFFFF80B584B000AF0200FB1D1A700D4B1B68DAB20F23FB187F210A401A70FB1D1B78DB01D9B20F23FB180F22BA18CC
:4013400012780A431A70044B0F22BA1812781A60C046BD4604B080BD0003044080B584B000AF0200FB1D1A700E4B1B68DAB20F23FB1801218A431A70FB1D1B780122134072
:40138000D9B20F23FB180F22BA1812780A431A70044B0F22BA1812781A60C046BD4604B080BDC0460004044080B584B000AF0200FB1D1A700F4B1B68DAB20F23FB18402190
:4013C0008A431A70FB1D1B789B01DBB240221340D9B20F23FB180F22BA1812780A431A70044B0F22BA1812781A60C046BD4604B080BDC0460003044080B584B000AF020022
:40140000FB1D1A700F4B1B68DAB20F23FB1820218A431A70FB1D1B785B01DBB220221340D9B20F23FB180F22BA1812780A431A70044B0F22BA1812781A60C046BD4604B054
:4014400080BDC0460000044080B500AFC046BD4680BDC04680B584B000AF78600F23FB1801221A700E23FB187A6812781A7015E00E23FB181B78180000F032F80F23FB1856
:401480001B787A68D2180E23FB1812781A700F23FB181A780F23FB1801321A700E23FB181B78002BE4D1C046BD4604B080BDC0460230800803D00138FDD1C046C046C0463F
:4014C0007047EFF3108072B6704780F31088704700000000000000000000000000000000FEB5494652465B460EB407462E4909688A462E4A12682E48022100F085FA0300E3
:401500002A480068C0182A4900F07EFA06001F3EB346234A126801219140C9430C0001250026FFF7CEFF814651460B6823400B6058460430FFF7BCFF3800F04028409040FF
:401540000B68234003430B605846FFF7B1FF0136072EF1D900200130012090400B68234003430B6058460630FFF7A2FF4846FFF7ACFFC046C046C0460EBC894692469B46A3
:40158000FEBDC046C046C046C046C046C046C046C046C046C046C046C046C046C046C046A4010020EC000020F0000020D00000208025000080B582B000AF00233B60C04BC1
:4015C0001B68002B02D0BE4B1B689847BD4B1B680122134002D0BC4B00221A60BB4B1B78DBB220221340DBB2002B38D0B84B1A6880235B0013400AD0B64B1B889BB2C0228C
:40160000920013439AB2B34B1A8001233B60B04B1B68012213400AD0AE4B1B889BB29022920013439AB2AB4B1A8001233B603B68002B14D0A54B1B78DBB201221340DBB26E
:40164000002B01D0012300E00223A24A128892B213439AB29F4B1A809C4B00221A709B4B1B78DBB220221340DBB2002B00D1A4E1974B1B681022134018D0974B10221A60B9
:40168000924B1B78DBB201221340DBB2002B01D0012300E002238F4A128892B213439AB28C4B1A80894B10221A7090E1874B1B78DBB208221340DBB2002B29D0844B1B68C8
:4016C000022213400ED0844B02221A60814B1B889BB28822920013439AB27E4B1A8001233B6015E0794B1B78DBB201221340DBB2002B03D0754B25221A7009E0734B242214
:401700001A70764B1B68002B02D0754B10221A606E4B1B78DBB204221340DBB2002B00D113E16A4B1B78DBB201221340DBB2002B5BD06C4B1B680822134033D06A4B1A6884
:401740006A4B1B681F211940694B1B68CB18D31A7B607B68082B02D908237B601EE07B68002B1BD1634B634A126863490A401A6008237B6001233B6010E0604B1A685C4BF9
:401780001B68D2185E4B1B68DBB21370584B1B685A1C574B1A607B68013B7B607B68002BEBD11EE04F4B1B680422134019D0534B1A684F4B1B68D218514B1B68DBB2137031
:4017C0004B4B1B685A1C4A4B1A60494B1A68464B1B689A4203D24B4B04221A6001E001233B60494B494A1A60AFE0394B1B680222134032D0384B02221A60454B1B681F2275
:401800001A40434B196880231B020B4001D0012300E00023D2183F4B1B689A1A3D4B1A603C4B1A683C4B1A602A4B1B889BB28422920013439AB2274B1A80384B374A1268BC
:40184000802149020A431A60344B344A126834490A401A6001233B6077E0324B1B681022134067D020E02B4B1A681C4B1B689A4221D21A4B1B685A1E264B1B689A4205D174
:40188000294B40221A60164B40221A60274A284B1968204B1B68CB181B78DBB213601D4B1B685A1C1B4B1A60194B1B681F221340082BD8D100E0C0461B4B10221A6044E01E
:4018C000780100208C0E2540880E2540B00100200C0F2540BE010020000F2540C0010020880F2540CC0F2540D001002008032540C401002060002540FFFEFFFFCC010020A1
:401900004003254068002540C00F2540ED0F000008022540B4010020B801002004022540FFFFFEFF8C0F2540800F254040022540C8010020284B1B684022134005D0274B09
:401940001A68274B1A6001233B603B68002B3ED0244B244A126824490A401A60234B00221A60234B00221A60224B1B78DBB202221340DBB2002B15D01F4B1B78DBB2012274
:401980001340DBB2002B01D0092300E00A231B4A128892B213439AB2184B1A80164B60221A7014E0164B174A126820210A4001D0182200E010221A6009E00F4B1B78DBB20E
:4019C00010221340DBB2002B01D1FEF707FFC046BD4602B080BDC0468C0F2540B4010020B801002060002540FFFEFFFFC80F2540880F2540BC010020B0010020BE010020AC
:401A00006800254064002540002243088B4274D303098B425FD3030A8B4244D3030B8B4228D3030C8B420DD3FF22090212BA030C8B4202D31212090265D0030B8B4219D32D
:401A400000E0090AC30B8B4201D3CB03C01A5241830B8B4201D38B03C01A5241430B8B4201D34B03C01A5241030B8B4201D30B03C01A5241C30A8B4201D3CB02C01A524123
:401A8000830A8B4201D38B02C01A5241430A8B4201D34B02C01A5241030A8B4201D30B02C01A5241CDD2C3098B4201D3CB01C01A524183098B4201D38B01C01A5241430977
:401AC0008B4201D34B01C01A524103098B4201D30B01C01A5241C3088B4201D3CB00C01A524183088B4201D38B00C01A524143088B4201D34B00C01A5241411A00D2014686
:401B0000524110467047FFE701B5002000F006F802BDC0460029F7D076E770477047C046014B18687047C046540100200E4B70B500251E000D4CE41AA410A54204D0AB00A5
:401B4000F35898470135F8E700F0B2FC084B00251E00084CE41AA410A54204D0AB00F35898470135F8E770BDBC240000BC240000BC240000C4240000002310B59A4203D0FB
:401B8000CC5CC4540133F9E710BD03008218934202D019700133FAE7704700000EB410B59DB002A9029008610B48822488604861012040421FABC881084804CBA400006886
:401BC00001938C8100F06EF80023029A13701DB010BC08BC03B01847FFFFFF7F54010020F0B58E6885B007000C00039201939E4243D890238A89DB001A423ED003250969A0
:401C0000236801985B1A029363695D43EB0F5D19029B6D1001331B18AB4200D91D00530510D52900380000F037FB061E14D0029A2169FFF7A1FFA289194B134080221343D8
:401C4000A38112E02A00380000F086FB061E0CD12169380000F0D4FA0C23402201203B60A38940421343A38117E0029B2661F61826606561019EED1AA560019BB34200D202
:401C80001E0032000399206800F0A5FA0020A3689B1BA36023689E19266005B0F0BDC0467FFBFFFFF0B59FB0029005938B890F0016001B0610D50B69002B0DD1402100F06A
:401CC000EBFA38603861002804D10C23029A01381360D8E040237B61002306AD6B6120336B761033AB7634002378002B03D1A31B049312D003E0252BF9D00134F4E7A31B5A
:401D0000320039000298FFF76BFF431C00D1B4E06A69049B944663446B612378002B00D1ABE00122002352426A6002A95432521801342B60EB60AB601370AB65534E217877
:401D40000522300000F03CFA002807D00123801B83402A68013413432B60EFE72B68DA0604D55322202102A8121811701A0704D553222B2102A81218117022782A2A03D0BF
:401D8000099B00200A210EE0059A111D12680591002A01DB099204E05242EA60022213432B6001340BE02278303A092A04D84B4301349B180120F6E7002800D0099323782B
:401DC0002E2B1ED163782A2B0AD1059B02341A1D1B680592002B01DA01235B42079310E000230A201A0001346B6021783039092904D84243013452180123F6E7002B00D081
:401E00000792234E21780322300000F0D9F9002806D04023801B83402A68013413432B60217806221B48661C297600F0C9F9002812D0194B002B06D10722059B0733934341
:401E40000833059314E005AB00933A00134B2900029800E000BF07E005AB00933A000F4B2900029800F08AF80390039B013304D06B69039A9B186B6135E7BB890B985B06DE
:401E800001D5012040421FB0F0BDC0467C240000822400008624000000000000E11B0000F7B5170001938A680B6900900C00934200DA130022003B6043321278002A01D069
:401EC00001333B6023689B0602D53B6802333B60062523681D401ED0230043331B785A1E9341226892061CD53020E1184331087021005A1C45310978A21843320233117069
:401F00000FE022000123193201990098089EB047431C0ED00135E3683A689B1A9D42F0DBDAE72200019943320098089DA847431C02D10120404220E006232068E1683A6804
:401F400003400025042B03D18D1AEB43DB171D40A3682269934201DD9B1AED180027BD420AD0220001231A3201990098089EB047431CDED00137F2E70020FEBDF0B58BB095
:401F800006920A0043320793059004920A7E0C00109B6E2A00D1ABE011D8632A22D009D8002A00D1B5E0582A00D0C5E045310A70814A4FE0642A1DD0692A1BD0BCE0732A26
:401FC00000D1AAE009D86F2A29D0702A00D0B3E0202209680A43226037E0752A1FD0782A33D0A9E00E001A684236111D196013683370A4E021681A68080606D4490604D555
:40200000111D19600023D55E02E0111D19601568002D3BDA2D23049A6D42137036E021681A68080606D4490604D51568111D1960ADB202E0111D196015685F4B227E0393A1
:4020400008276F2A1DD00A271BE022007821453211705A4A19680392081D226818600D68100602D4500600D5ADB2D30702D520231A4322601027002D03D1202322689A434B
:4020800022602300002243331A7002E00A274A4B03936368A360002B09DB0422216891432160002D05D1049E002B11D07BE0002D79D0049E28003900FFF72CFD039B013EB9
:4020C0005B5C280033703900FFF79EFC051EF1D1082F09D12368DB0706D563682269934202DC3023013E3370049B9B1B23612BE009681A68080607D4490605D5111D196089
:402100001368A28A1A8004E0111D1960136862691A600023049E236116E01A68111D1960166800216268300000F04AF8002801D0801B6060636803E026004236327001237A
:4021400023610023049A1370079B09AA00932100069B0598FFF7A4FE431C02D10120404227E02369320006990598079DA847431CF4D0236800259B070FD4099BE068984231
:4021800017DA180015E022000123193206990598079EB047431CE1D00135E368099A9B1A9D42F0DBE9E72600039B42361B7833708EE70BB0F0BDC0468D2400009E2400008D
:4021C000C9B28218904204D003788B4202D00130F8E70020704710B5884202D98B18984201D3002305E09B1A013A08D3995C8154FAE7934203D0CC5CC4540133F9E710BD21
:4022000070B50500002944D00C1F2368002B00DAE418280000F0D8F81E4A13681100002B02D16360146031E0A3420DD92268A018834203D118685B688218226063600C602A
:4022400024E0A24203D813005A68002AF9D11E689819A0420BD12168711858181960824214D110685268411819605A600EE0A04202D90C232B6009E021686018824203D194
:40228000106852684118216062605C60280000F09CF870BDAC010020032370B5CD1C9D43083506000C2D01D20C2501E0002D01DBA94202D90C23336048E0300000F084F824
:4022C000234B1C681A002100002913D00B685B1B0DD40B2B02D90B60CC181EE08C4202D1636813601AE04B6863600C0016E00C004968E9E7174C2368002B03D1300000F092
:4023000051F820602900300000F04CF8431C18D00323C41C9C43A0420DD12560300000F054F8200007220B30231D9043C31A0ED05A42E2500BE0211A300000F033F8431C7A
:40234000EBD10C233000336000F03FF8002070BDAC010020A8010020F8B506000C001500002904D11100FFF797FF040018E0002A03D1FFF745FF2C0012E000F027F885420E
:402380000ED929003000FFF787FF071E07D021002A00FFF7F1FB21003000FFF731FF3C002000F8BD002370B5064C050008002360FEF7D4F8431C03D12368002B00D02B6081
:4023C00070BDC046D4010020704770470B1F1A68101F002A04DA891804390B68D0180438704700000000000074656D70657261747572652069732025640A000052656D6F48
:4024000074652074656D7065726174757265203120697320256420626574612025640A0052656D6F74652074656D70657261747572652032206973202564200A0000000035
:4024400000300F40000400400F400004030405060708090A0B0C0E0F101112131415161718191B1C1D1E1F2021222325262728292A2B2E2F3031323334354300232D302B68
:402480002000686C4C00656667454647003031323334353637383941424344454600303132333435363738396162636465660000F8B5C046F8BC08BC9E4670477902000093
:4024C00045060000F8B5C046F8BC08BC9E46704751020000E8240000C800002090000000800000000000000000000000D8010020006CDC0280BB0000300000000000C05DA9
:4025000001000000F000000004040400010000000001044000000000000000000000000000000000000000000000000000000000000000007A2400000000000000000000BA
:4025400000000000000000000000000000000000000000000000000000000000000000000000000000000000000000000000000000000000F4000020000000000000000047
:40258000000000000000000000000000000000000000000000000000000000000000000000000000000000000000000000000000000000000000000000000000000000001B
:4025C00000000000000000000000000000000000000000000000000000000000000000000000000000000000000000000000000000000000000000000000000000000000DB
:40260000000000000000000000000000000000000000000000000000000000000000000000000000000000000000000000000000000000000000000000000000000000009A
:40264000000000000000000000000000000000000000000000000000000000000000000000000000000000000000000000000000000000000000000000000000000000005A
:020000040001F9
:0200000490303A
:0200000011B13C
:0200000490402A
:4000000000000000000000000000000000000000000000000000000000000000000000000000000000000000000000000000000000000000000000000000000000000000C0
:400040000000000000000000000000000000000000000000000000000000000000000000000000000000000000000000000000000000000000000000000000000000000080
:0200000490501A
:0C00000000020E51119E00010E5D234F06
:0200000490600A
:0100000001FE
:00000001FF