:400000000040002011000000D1030000D103000080B500AF00F0E6F980B500AF2D4B12221A6000F07FFE2C4B180001F045F8012000F088FE302000F0A5FC284B284A1A60E9
:40004000284B8022D2051A60274B274A126802210A431A60254B264A1A60264B00221A60254B254A126808218A431A60FA23DB00180000F0D5FC214B180000F0F3FD204B03
:40008000A02212011A601F4B1F4A1A601F4BE82252011A601B4B1E4A1A601E4B822212061A601D4B8022D2021A601C4B40221A601B4B41221A601B4B1900082000F0FAFC11
:4000C000082000F071FD074B8022D2051A60C046BD4680BD30001040001BB70004010B40060000800C020B4078002E407C002E40BCBC000064F02E406CF02E40DC050000B9
:40010000000301400000014040FF00800403014041FF008008010B4000010B401801014008010140990E000080B582B000AF72B6334B00221A60FB1D00221A7022E0FB1D52
:400140001A7813005B009B185B002E4A9B183B603B681A78597809020A43997809040A43DB781B06134318003B681A795B791B0213439BB2190000F0D9F8FB1D1A78FB1D9A
:4001800001321A70FB1D1B78012BD8D91E4BEE2212061A601D4BEE221A601D4B992212041A601C4B992212041A601B4A1A4B1B78DBB206210B43DBB21370184BDB221204B3
:4001C0001A60174BC8221A60164BD82212041A60154B08221A60154B01221A60144B06221A60144B03221A60134B24221A60FFF713FF00F0ABF8C046BD4602B080BDC0461D
:400200006CF02E4098150000000002400005024000500F4030500F4000700F40080004400003044008030440180304400004044008040440000504400805044010B5064C07
:400240002378002B07D1054B002B02D0044800E000BF0123237010BD500100200000000094150000084B10B5002B03D00749084800E000BF07480368002B00D110BD064BE1
:40028000002BFBD09847F9E7000000005401002094150000C80000200000000080B582B000AF00F03DF9012000F0DEFE3B1D03221A703B1D00225A70391D022302227020E0
:4002C00000F0F2F9C04600F01FFB020002231340F9D0154901230122702000F079FAC04600F012FB020001231340F9D00E4B1B78002B03D1002000F091FE08E00A4B1B7899
:400300001A000123134002D0002000F05FFEC82000F082FC012000F081FE012000F032FE012000F053FED4E76C01002080B582B000AF786039603A687B680021180001F0E6
:4003400021F9C046BD4602B080BDC04680B500AF0A4B03221A600A4B03221A60094B802212061A60084B08221A60084B00221A60012000F00DF8C046BD4680BD300030402F
:400380003000314000003A4000033A40000E3F4080B584B000AF0200FB1D1A700B4B1B68FB60FB1D1B78002B05D0FB68802212061343FB6003E0FB685B005B08FB60034B02
:4003C000FA681A60C046BD4604B080BD80033A4080B500AF01F0AAF803001B680C2B00D1FEE7FEE780B586B000AF224B7B61224B3B61204B7B6135E03B691B68FB603B696D
:400400005B68BB603B699B683B6000237B600CE0FB681A68BB681A60BB680433BB60FB680433FB607B6804337B607A683B689A42EED13B69DB683B6000237B6008E0BB6826
:4004400000221A60BB680433BB607B6804337B607A683B689A42F2D13B6910333B617B69013B7B617B69002BC6D101F065F8FFF715FFFEE701000000F815000080B582B07B
:4004800000AF154B144A126801218A431A6000237B600FE07B68032B04D8104B7A689200D35800E00E4B0F4A796889008B507B6801337B607B682F2BECD9FFF735FE0A4BCF
:4004C00000221A60044B044A126801210A431A60C046BD4602B080BD0000104000000000D103000000000020C000002080B500AF00F036F8C046BD4680BDC04680B500AF12
:40050000064B064A1268802109060A431A6000F019F800F01FF8C046BD4680BD0000254080B500AF064B1B78002B04D1FFF7DEFF034B01221A70FFF7E1FFC046BD4680BDC4
:400540007001002080B500AF0A2000F02DFBC046BD4680BD80B500AFC046BD4680BDC04680B500AF204B00221A60204B204A1A60204B214A1A60214B00221A60204B00222F
:400580001A60204B1C4A1A601F4B00221A600A2000F020FB03210A2000F0B2FA1B4B19000A2000F087FA1A4B00221A60194B00221A60194B00221A60184B00221A60184BD4
:4005C00000221A60174B00221A60174B10221A70164B00221A80164B00221A60154B00221A60C046BD4680BD00002540600025407708008000032540070100800403254062
:40060000100325400002254004022540D9100000C80E2540880E2540480F2540080F2540C80F2540880F2540A0010020AE010020B4010020A801002080B500AF124B124A16
:400640001268520052081A60104B00221A60104B00221A600F4B0F4A12680F490A401A600E4B00221A600E4B00221A600D4B10221A70054B044A1268802109060A431A6016
:40068000C046BD4680BDC04600002540680025406C00254060002540FF5CFFFF880F2540C80F2540A001002080B586B000AFF860B9607A603B6004237B61BB68002B20D093
:4006C000344B1B78DBB2102B0CD10A2000F082FA314B1B680122134001D0082300E000237B610EE02B4B1B78DBB2602B09D12B4B1B889BB2082293439AB2284B1A80002392
:400700007B617B69002B3CD1224B28221A70244B00221A60234B00221A60234B7A681A60224BBA681A603B68DAB2214B1A70FB685B00FF221340FB60184B1B889BB202226F
:4007400093439AB2154B1A801A4B40221A601A4B1A4A1A601A4B1422FF321A60194B40221A603B680122134005D000F0EFF8164BFA681A6005E0144BFA681A60134B0222AF
:400780001A600A2000F010FA7B691800BD4606B080BDC046A001002064002540AE010020A4010020A8010020B0010020B8010020AC010020800F2540000F254017030000C3
:4007C000080F2540880F2540400225406800254080B586B000AFF860B9607A603B6004237B61BB68002B20D0394B1B78DBB2102B0CD10A2000F0EEF9364B1B680122134095
:4008000001D0082300E000237B610EE0304B1B78DBB2602B09D1304B1B889BB2082293439AB22D4B1A8000237B617B69002B47D1274B29221A70294B00221A60284B7A6854
:400840001A60284BBA681A603B68DAB2264B1A70FB685B00FF22134001221343FB601E4B1B889BB2012293439AB21B4B1A801F4B1F4A1A601F4B1422FF321A60184B1B68A3
:40088000072B03D81C4B04221A6009E01B4B1B4A1268802149000A431A60174B08221A603B680122134005D000F050F8144BFA681A6005E0124BFA681A60124B02221A60C5
:4008C0000A2000F071F97B691800BD4606B080BDA001002064002540AE010020B4010020C0010020BC010020AC010020000F254017030000080F2540C80F254060002540BE
:40090000400225406800254080B582B000AF0A2000F060F90B4B1B889BB27B600A4B1B78DBB220221340DBB2002B03D07B68042213437B600A2000F037F97B681800BD4682
:4009400002B080BDAE010020A001002080B582B000AF01237B60094B1B682022134001D0082300E000237A6813437B60044B7A681A60C046BD4602B080BDC04664002540F3
:400980006800254090B58BB000AF78602723FC1800F09BFB03002370194B1A680C23FB181A60184B1A680C23FB185A607B68033B154AD35C1A000C23FB189A60134B1A6881
:4009C0000C23FB18DA601C23FB18114A1A600C23FA181C23FB185A600E4B1C22BA181A600D4B0E4A1A600B4B1B682723FB181B78180000F06EFBC046BD460BB090BDC046A9
:400A000008010B4000010B40A415000030001040B6EA000008001040040010401700008080B584B000AF78600023FB60154B154A126801210A431A60134B144A1A60144BD5
:400A4000134A1268802109020A431A607B68002B12D01023FB600CE0012000F003F900F019F8031E02D00023FB6005E07B68013B7B607B68002BEFD1FB681800BD4604B064
:400A800080BDC04660F02E4078002E400220000010002E4080B582B000AF054B1B68012213407B607B681800BD4602B080BDC0460C002E4080B584B000AF02003960FB1D3D
:400AC0001A7080239B05FB60FB1D1B781F2B02D9002000F095F8FB1D1B7810339B00FA68D3181B68BB60FB1D1B7810339B00FA68D3183A681A60BB681800BD4604B080BDCC
:400B000090B587B000AF0200FB1D1A70BB1D0A1C1A70BB1D1B78032B02D9002000F070F8FB1D1B781F2B02D9002000F069F8FB1D1B7803221340DB0006337B611323FC18D4
:400B400000F0C3FA03002370FB1D1B789B08DBB29B00144A944663441B68FB6003227B699A401300DA43FB681340FB60BB1D1A787B699A401300FA681343FB60FB1D1B78E2
:400B80009B08DBB29B00074A94466344FA681A601323FB181B78180000F09BFAC046BD4607B090BD00E400E080B582B000AF0200FB1D1A70064BFA1D12781F210A4001211A
:400BC00091400A001A60C046BD4602B080BDC04600E100E080B582B000AF0200FB1D1A70064BFA1D12781F210A40012191400A001A60C046BD4602B080BDC04680E100E0F5
:400C000080B582B000AF0200FB1D1A7001BEC046BD4602B080BDC04680B582B000AF786009E00D4B1B68180000F046FA7B680B4A944663447B607A6880231B029A42F0D869
:400C4000074B1B687A685343180000F035FAC046BD4602B080BDC046D80000200080FFFFD000002080B582B000AF0200BB1D1A80BB1D1B88044A12785343180000F01CFAFB
:400C8000C046BD4602B080BDD400002080B500AF0F4B0F4A126801218A431A600C4B0C4A126802218A431A600A4B0A4A126830218A4310210A431A60064B064A12680721C1
:400CC0008A4301210A431A60C046BD4680BDC04600F02E4000FF2E4080B500AF0F4B0F4A126802218A431A600D4B0D4A126807218A4302210A431A60094B094A1268302132
:400D00008A4320210A431A60044B044A126801210A431A60C046BD4680BDC04600F02E4000FF2E4080B500AFFFF7B0FF044B044A1268802109060A431A60C046BD4680BD6A
:400D400000F02E4080B584B000AF78600C4B1B6801221340FB607B68002B02D0012B03D005E0FFF793FF06E0FFF7B6FF03E00020FFF746FFC046FB681800BD4604B080BDEA
:400D800000F02E4090B583B000AFFC1D00F09DF903002370074B074A1268C02109020A431A60FB1D1B78180000F093F9C046BD4603B090BD00010B4080B500AF054B1A685F
:400DC000C0231B02134001D0012300E000231800BD4680BD00010B4090B583B000AFFC1D00F073F9030023700D4B0D4A12680D490A408021C9010A431A60094B084A1268B7
:400E000008490A40802109020A431A60FB1D1B78180000F05EF9C046BD4603B090BDC04600010B40FF3FFFFF90B585B000AF78600B23FC1800F049F903002370FFF7BCFF47
:400E4000031E04D00123FB60FFF7C6FF01E00023FB607B680D4A13407B600D4B0C4A12680C4911407A680A431A60094B1B68FB68012B01D1FFF786FF0B23FB181B78180066
:400E800000F027F9C046BD4605B090BD0404040010020B40FBFBFBFF80B500AF344B1B68042213401FD0334B1B680422134017D0314B1B6804221340DA432E4B1B681A4024
:400EC0002C4B1A602C4B1B68042293431A002A4B1A602A4B1B68002B02D0284B1B6898470420FFF7A1FF224B1A688023DB00134022D0204B1A688023DB00134017D01E4BBE
:400F00001A688023DB001340DA431A4B1B681A40184B1A60184B1B68194A1A40164B1A60164B5B68002B02D0144B5B6898478023DB001800FFF778FF0D4B1A688023DB0225
:400F4000134011D00B4B1A688023DB02134006D00A4B9B68002B02D0084B9B6898478023DB021800FFF760FFC046BD4680BDC04610020B40E4000020800100208401002052
:400F8000FFFBFFFF80B584B000AF0200FB1D1A700D4B1B68DAB20F23FB187F210A401A70FB1D1B78DB01D9B20F23FB180F22BA1812780A431A70044B0F22BA1812781A604C
:400FC000C046BD4604B080BD0003044080B584B000AF0200FB1D1A700F4B1B68DAB20F23FB1840218A431A70FB1D1B789B01DBB240221340D9B20F23FB180F22BA181278A8
:401000000A431A70044B0F22BA1812781A60C046BD4604B080BDC0460003044080B584B000AF0200FB1D1A700E4B1B68DAB20F23FB1801218A431A70FB1D1B780122134039
:40104000D9B20F23FB180F22BA1812780A431A70044B0F22BA1812781A60C046BD4604B080BDC0460004044080B584B000AF0200FB1D1A700F4B1B68DAB20F23FB182021F3
:401080008A431A70FB1D1B785B01DBB220221340D9B20F23FB180F22BA1812780A431A70044B0F22BA1812781A60C046BD4604B080BDC046000004400230800803D001381C
:4010C000FDD1C046C046C0467047EFF3108072B6704780F31088704780B582B000AF00233B60C04B1B68002B02D0BE4B1B689847BD4B1B680122134002D0BC4B00221A6006
:40110000BB4B1B78DBB220221340DBB2002B38D0B84B1A6880235B0013400AD0B64B1B889BB2C022920013439AB2B34B1A8001233B60B04B1B68012213400AD0AE4B1B88BC
:401140009BB29022920013439AB2AB4B1A8001233B603B68002B14D0A54B1B78DBB201221340DBB2002B01D0012300E00223A24A128892B213439AB29F4B1A809C4B00220A
:401180001A709B4B1B78DBB220221340DBB2002B00D1A4E1974B1B681022134018D0974B10221A60924B1B78DBB201221340DBB2002B01D0012300E002238F4A128892B2C0
:4011C00013439AB28C4B1A80894B10221A7090E1874B1B78DBB208221340DBB2002B29D0844B1B68022213400ED0844B02221A60814B1B889BB28822920013439AB27E4B44
:401200001A8001233B6015E0794B1B78DBB201221340DBB2002B03D0754B25221A7009E0734B24221A70764B1B68002B02D0754B10221A606E4B1B78DBB204221340DBB2E7
:40124000002B00D113E16A4B1B78DBB201221340DBB2002B5BD06C4B1B680822134033D06A4B1A686A4B1B681F211940694B1B68CB18D31A7B607B68082B02D908237B60B5
:401280001EE07B68002B1BD1634B634A126863490A401A6008237B6001233B6010E0604B1A685C4B1B68D2185E4B1B68DBB21370584B1B685A1C574B1A607B68013B7B600D
:4012C0007B68002BEBD11EE04F4B1B680422134019D0534B1A684F4B1B68D218514B1B68DBB213704B4B1B685A1C4A4B1A60494B1A68464B1B689A4203D24B4B04221A60A2
:4013000001E001233B60494B494A1A60AFE0394B1B680222134032D0384B02221A60454B1B681F221A40434B196880231B020B4001D0012300E00023D2183F4B1B689A1AD1
:401340003D4B1A603C4B1A683C4B1A602A4B1B889BB28422920013439AB2274B1A80384B374A1268802149020A431A60344B344A126834490A401A6001233B6077E0324B9A
:401380001B681022134067D020E02B4B1A681C4B1B689A4221D21A4B1B685A1E264B1B689A4205D1294B40221A60164B40221A60274A284B1968204B1B68CB181B78DBB254
:4013C00013601D4B1B685A1C1B4B1A60194B1B681F221340082BD8D100E0C0461B4B10221A6044E0740100208C0E2540880E2540A00100200C0F2540AE010020000F2540B3
:40140000B0010020880F2540CC0F2540C001002008032540B401002060002540FFFEFFFFBC0100204003254068002540C00F2540ED0F000008022540A4010020A80100203A
:4014400004022540FFFFFEFF8C0F2540800F254040022540B8010020284B1B684022134005D0274B1A68274B1A6001233B603B68002B3ED0244B244A126824490A401A600F
:40148000234B00221A60234B00221A60224B1B78DBB202221340DBB2002B15D01F4B1B78DBB201221340DBB2002B01D0092300E00A231B4A128892B213439AB2184B1A80D3
:4014C000164B60221A7014E0164B174A126820210A4001D0182200E010221A6009E00F4B1B78DBB210221340DBB2002B01D1FFF7A3F8C046BD4602B080BDC0468C0F25402C
:40150000A4010020A801002060002540FFFEFFFFC80F2540880F2540AC010020A0010020AE0100206800254064002540014B18687047C046480100200E4B70B500251E007F
:401540000D4CE41AA410A54204D0AB00F35898470135F8E700F03EF8084B00251E00084CE41AA410A54204D0AB00F35898470135F8E770BDE0150000E0150000E015000048
:40158000E815000003008218934202D019700133FAE770470000000000300F40000400400F400004030405060708090A0B0C0E0F101112131415161718191B1C1D1E1F2099
:4015C00021222325262728292A2B2E2F3031323334354300F8B5C046F8BC08BC9E467047650200007D040000F8B5C046F8BC08BC9E4670473D02000008160000C8000020E5
:40160000880000007800000000000000006CDC0280BB0000300000000000C05D01000000F000000004040400000000000000000000000000000000000000000000000000DB
:401640000000000000000000D21500000000000000000000000000000000000000000000000000000000000000000000000000000000000000000000000000000000000083
:401680000000000000000000E80000200000000000000000000000000000000000000000000000000000000000000000000000000000000000000000000000000000000022
:4016C00000000000000000000000000000000000000000000000000000000000000000000000000000000000000000000000000000000000000000000000000000000000EA
:4017000000000000000000000000000000000000000000000000000000000000000000000000000000000000000000000000000000000000000000000000000000000000A9
:401740000000000000000000000000000000000000000000000000000000000000000000000000000000000000000000000000000000000000000000000000000000000069
:401780000000000000000000000000000000000000000000000000000000000000000000000000000000000000000000000000000000000000000000000000000000000029
:020000040001F9
:0200000490303A
:02000000011CE1
:0200000490402A
:4000000000000000000000000000000000000000000000000000000000000000000000000000000000000000000000000000000000000000000000000000000000000000C0
:400040000000000000000000000000000000000000000000000000000000000000000000000000000000000000000000000000000000000000000000000000000000000080
:0200000490501A
:0C00000000020E51119E00010E5812BAB1
:0200000490600A
:0100000001FE
:00000001FF